S01600002E2E2F4368617267655F315F56312E73726563C3
S31508004000CC3E012035140208000000000000000024
S315080040100000000000000000000000000000000092
S3150800402000000000000000000000000015920108D2
S315080040300000000000000000B19201080193010889
S315080040400000000000000000000000000000000062
S315080040500000000000000000000000000000000052
S315080040600000000081E201080000000000000000D6
S315080040700000000000000000000000000000000032
S315080040800000000000000000000000005D130208A8
S3150800409015130208391302088113020800000000EC
S315080040A0059B0108F19A0108DD9A0108CD9A0108D5
S315080040B0B99A0108A59A0108919A0108000000001A
S315080040C000000000000000000000000000000000E2
S315080040D0000000000DF7010825F701083DF7010863
S315080040E00000000000000000B9F701080000000009
S315080040F07D9A0108699A0108599A0108000000008A
S31508004100000000006DF70108000000000000000034
S315080041100000000000000000000000000000000091
S3150800412000000000000000000000000071F7010810
S3150800413000000000B1E2010800000000ED130208CB
S31508004140A5130208C913020811140208E9F70108A1
S3150800415000000000000000000000000055F70108FC
S315080041600000000000000000000000000000000041
S315080041700000000000000000000000000000000031
S311080041800000000000000000EE11AA5527
S3150800C000000000000000803F0000803F0000803FE5
S3150800C01000000040000000000000C03F0000F040A3
S3150800C0200000284100004841CDCC4CBE000080BF2E
S3150800C030000048C1000028C10000803F0000000041
S3150800C0400000000000000000000000000000803F23
S3150800C0500000803F0000803F0000803F0000803FD6
S3150800C0600000000000000000000000000000803F03
S3150800C0700000803F000000000000803F0000803F75
S3150800C0800000803F00000000000000000000008063
S3150800C0900102030405060700010000010100000172
S3150800C0A00001010000000000000000000000F03F51
S3150800C0B00000000000000000000000000000000072
S3150800C0C0000000000000F03F000000000000F03F04
S3150800C0D00000000000000000000000000000000052
S3150800C0E0000000000000F03F01000001010000010F
S3150800C0F0000000000000F03F000000000000000003
S3150800C1000000000000000000000000000000F03FF2
S3150800C110000000000000F03F0000000000000000E2
S3150800C1200000000000000000000000000000F03FD2
S3150800C130000000000000F03F0000000000000000C2
S3150800C1400000000000000000000000000000F03FB2
S3150800C150000000000000F03F0000000000000000A2
S3150800C1600000000000000000000000000000F03F92
S3150800C1700A0A0A004368617267655F315F56315F74
S3150800C180736F66747761726549445F76315F3236DC
S3150800C190303931385F3137303435320041707043C9
S3150800C1A074726C5461736B00200000000014024026
S3150800C1B008000900200000000014024010000E00CC
S3150800C1C0200000000014024020000F00200000009C
S3150800C1D00014024040000400200000000014024041
S3150800C1E0800005002000000000140240000106003F
S3150800C1F02000000000140240000207002000000092
S3150800C2000014024000040800040000000008024070
S3150800C21001000A00040000000008024004000C00A7
S3150800C220414443636F6E76657273696F6E546173CA
S3150800C2306B0000002E2E2F626C6F636B7365742F74
S3150800C2407274772F53544D33322F7372632F686588
S3150800C25061705F342E630000546D724370754C6FC5
S3150800C260616400002E2E2F626C6F636B7365742FEA
S3150800C2707274772F53544D33322F7372632F746150
S3150800C280736B732E6300000049444C4500000000A0
S3150800C2902E2E2F626C6F636B7365742F7274772FF3
S3150800C2A053544D33322F7372632F74696D657273ED
S3150800C2B02E630000546D7220537663002E2E2F6273
S3150800C2C06C6F636B7365742F7274772F53544D3389
S3150800C2D0322F7372632F53544D33325F45343037E0
S3150800C2E02F6D61632E6300004D61634E6574546162
S3150800C2F0736B0000457643686E6C3100457643687B
S3150800C3006E6C3200457643686E6C33002E2E2F62B3
S3150800C3106C6F636B7365742F7274772F53544D3338
S3150800C320322F7372632F53544D33325F453430378F
S3150800C3302F706F72742E6300000001400100000028
S3150800C340020100001000000000100240000209006F
S3150800C350100000000010024000080B000004004016
S3150800C3600200000001020000010000000000024077
S3150800C37040000600020000000004024020000500FC
S3150800C3800008004004000000010200000800000048
S3150800C390000C024000100C0008000000000C0240CF
S3150800C3A000200D0000040140020000000203000006
S3150800C3B004000000000802404000060004000000D7
S3150800C3C000080240800007005443502F49500000DF
S3150800C3D0040006000A0005000C000200040008001C
S3150800C3E008000A0032000A001C0020009400200001
S3150800C3F01400100030001400140010001000040689
S3150800C40060F2002068F2002058F200206CF200204A
S3150800C41001020304050607070707070707000000C8
S3150800C42003060C1830607800FFFFFFFF00000000CD
S3150800C430FFFFFFFFFFFF00000000000000000000F4
S3150800C440455F6C696E6B000010000000001002402A
S3150800C4500001000001000800100000000010024062
S3150800C4600004000101000A0010000000001002404C
S3150800C4700010000201000C0010000000001002402D
S3150800C4800002000001000900100000000010024030
S3150800C4900008000101000B00100000000010024017
S3150800C4A00020000201000D001000000000100240EC
S3150800C4B00040000301000E000100000000000240D9
S3150800C4C020000100010005000100000000000240F4
S3150800C4D040000200020006000200000000040240BC
S3150800C4E0200002010200050008000000000C0240BE
S3150800C4F00010030002000C0008000000000C0240B7
S3150800C5000020030102000D0004000000000802409C
S3150800C5104000040003000600040000000008024072
S3150800C520800004010300070010000000001002400C
S3150800C530200005000300050010000000001002405E
S3150800C5404000050103000600200000000014024018
S3150800C5504000060003000600200000000014024008
S3150800C56080000700030007002000000000140240B6
S3150800C570000108000900080020000000001402401D
S3150800C580000209000900090000000140010000003E
S3150800C59002011900000000400100000001021C0011
S3150800C5A0000400400200000001021D0000080040CF
S3150800C5B00400000001021E00000401400200000001
S3150800C5C002012C0000400140000001000201180091
S3150800C5D00044014000000200020119000048014021
S3150800C5E00000040002011A00001C00408000000040
S3150800C5F001022C00002000400001000001022D006D
S3150800C60004000000000802400100000020000000AD
S3150800C6100014024040000000200000000014024000
S3150800C6208000000020000000001402400001000005
S3150800C6302000000000140240000200002000000054
S3150800C640001402400004000002000000000402403A
S3150800C65080000000020000000004024040000000C4
S3150800C6601000000000100240040000001000000046
S3150800C67000100240100000001000000000100240E8
S3150800C68020000000100000000010024040000000DA
S3150800C6904000000000180240800000004000000032
S3150800C6A00018024000010000400000000018024087
S3150800C6B00010000040000000001802400080000042
S3150800C6C00100000000000240100000000200000007
S3150800C6D000040240200000000100000000000240A3
S3150800C6E04000000001000000000002402000000099
S3150800C6F008000000000C02400100000008000000CD
S3150800C700000C02400200000008000000000C024075
S3150800C7100400000008000000000C024008000000A9
S3150800C72008000000000C024010000000080000008D
S3150800C730000C02402000000008000000000C024027
S3150800C7404000000008000000000C024080000000C5
S3150800C75008000000000C024000010000080000006C
S3150800C760000C02400002000008000000000C024015
S3150800C7700004000008000000000C02400008000049
S3150800C78008000000000C024000100000080000002D
S3150800C790000C02400020000008000000000C0240C7
S3150800C7A00040000008000000000C02400080000065
S3150800C7B010000000001002400100000010000000F8
S3150800C7C000100240020000001000000000100240A5
S3150800C7D00800000010000000001002408000000061
S3150800C7E010000000001002400001000010000000C8
S3150800C7F00010024000020000100000000010024075
S3150800C80000040000100000000010024000080000AC
S3150800C8101000000000100240001000001000000088
S3150800C8200010024000200000100000000010024026
S3150800C83000400000100000000010024000800000C8
S3150800C8402000000000140240010000002000000043
S3150800C85000140240020000002000000000140240FC
S3150800C8600400000020000000001402400800000038
S3150800C8702000000000140240100000002000000004
S3150800C88000140240200000002000000000140240AE
S3150800C89000080000200000000014024000100000FC
S3150800C8A020000000001402400020000020000000C4
S3150800C8B0001402400040000020000000001402405E
S3150800C8C0008000004000000000180240010000003F
S3150800C8D0400000000018024002000000400000006E
S3150800C8E00018024004000000400000000018024042
S3150800C8F00800000040000000001802401000000078
S3150800C900400000000018024020000000400000001F
S3150800C91000180240400000004000000000180240D5
S3150800C9200002000040000000001802400004000059
S3150800C9304000000000180240000800004000000007
S3150800C94000180240002000004000000000180240C5
S3150800C9500040000001000000000002400100000045
S3150800C960040000000008024001000000200000004A
S3150800C970001402404000000020000000001402409D
S3150800C98080000000200000000014024000010000A2
S3150800C99020000000001402400002000020000000F1
S3150800C9A000140240000400000200000000040240D7
S3150800C9B08000000002000000000402404000000061
S3150800C9C010000000001002400400000010000000E3
S3150800C9D00010024010000000100000000010024085
S3150800C9E02000000010000000001002404000000077
S3150800C9F040000000001802408000000040000000CF
S3150800CA000018024000010000400000000018024023
S3150800CA1000100000400000000018024000800000DE
S3150800CA2001000000000002401000000002000000A3
S3150800CA30000402402000000001000000000002403F
S3150800CA404000000001000000000002402000000035
S3150800CA5008000000000C0240010000000800000069
S3150800CA60000C02400200000008000000000C024012
S3150800CA700400000008000000000C02400800000046
S3150800CA8008000000000C024010000000080000002A
S3150800CA90000C02402000000008000000000C0240C4
S3150800CAA04000000008000000000C02408000000062
S3150800CAB008000000000C0240000100000800000009
S3150800CAC0000C02400002000008000000000C0240B2
S3150800CAD00004000008000000000C024000080000E6
S3150800CAE008000000000C02400010000008000000CA
S3150800CAF0000C02400020000008000000000C024064
S3150800CB000040000008000000000C02400080000001
S3150800CB101000000000100240010000001000000094
S3150800CB200010024002000000100000000010024041
S3150800CB3008000000100000000010024080000000FD
S3150800CB401000000000100240000100001000000064
S3150800CB500010024000020000100000000010024011
S3150800CB600004000010000000001002400008000049
S3150800CB701000000000100240001000001000000025
S3150800CB8000100240002000001000000000100240C3
S3150800CB900040000010000000001002400080000065
S3150800CBA020000000001402400100000020000000E0
S3150800CBB00014024002000000200000000014024099
S3150800CBC004000000200000000014024008000000D5
S3150800CBD020000000001402401000000020000000A1
S3150800CBE0001402402000000020000000001402404B
S3150800CBF00008000020000000001402400010000099
S3150800CC002000000000140240002000002000000060
S3150800CC1000140240004000002000000000140240FA
S3150800CC2000800000400000000018024001000000DB
S3150800CC30400000000018024002000000400000000A
S3150800CC4000180240040000004000000000180240DE
S3150800CC500800000040000000001802401000000014
S3150800CC6040000000001802402000000040000000BC
S3150800CC700018024040000000400000000018024072
S3150800CC8000020000400000000018024000040000F6
S3150800CC9040000000001802400008000040000000A4
S3150800CCA00018024000200000400000000018024062
S3150800CCB000400000040000000008024000200000B8
S3150800CCC010000000001002400002000002000200EE
S3150800CCD001000900100000000010024000080001D1
S3150800CCE00400200001000B001000000000100240A4
S3150800CCF0002000020800000201000D0010000000DC
S3150800CD0000100240004000031000002001000E0041
S3150800CD10010000000000024020000100020002009D
S3150800CD20010005000100000000000240400002006A
S3150800CD300200020002000600020000000004024091
S3150800CD40200002010400200002000500080000007F
S3150800CD50000C0240001003000200020002000C0052
S3150800CD6008000000000C0240002003010400200017
S3150800CD7002000D0004000000000802404000040004
S3150800CD80020002000300060004000000000802403A
S3150800CD9080000401040020000300070010000000C2
S3150800CDA000100240200005000200020003000500F2
S3150800CDB01000000000100240400005010400200099
S3150800CDC00300060020000000001402404000060090
S3150800CDD002000200030006002000000000140240C2
S3150800CDE08000070002000200030007002000000080
S3150800CDF000140240000108000200020009000800B1
S3150800CE00200000000014024000020900020002008F
S3150800CE1009000900000001400100000002011B0092
S3150800CE20000000400100000001021C000004004050
S3150800CE300200000001021D00000800400400000076
S3150800CE4001021E00000401400200000002012E003B
S3150800CE5000400140000001000201180000440140A2
S3150800CE600000020002011900004801400000040009
S3150800CE7002011A00001C00408000000001022C007C
S3150800CE80002000400001000001022D0000100140B2
S3150800CE901000000002250000020000000004024005
S3150800CEA0400006000200000000040240800007005F
S3150800CEB007000000004400400000020001260000B0
S3150800CEC008000000000C02402000050008000000D1
S3150800CED0000C024040000600070000000048004021
S3150800CEE0000004000127000008000000000C0240B2
S3150800CEF00001080008000000000C024000020900BA
S3150800CF00070000000014014020000000024700004E
S3150800CF10040000000008024040000600040000006B
S3150800CF20000802408000070008000000100000000A
S3150800CF300010024000020000020002000100090081
S3150800CF401000000000100240000800010400200044
S3150800CF5001000B0010000000001002400020000233
S3150800CF600800000201000D00100000000010024039
S3150800CF70004000031000002001000E000100000020
S3150800CF800000024020000100020002000100050026
S3150800CF9001000000000002404000020002000200FA
S3150800CFA00200060002000000000402402000020100
S3150800CFB0040020000200050008000000000C0240E2
S3150800CFC0001003000200020002000C000800000026
S3150800CFD0000C0240002003010400200002000D009E
S3150800CFE0040000000008024040000400020002009D
S3150800CFF00300060004000000000802408000040147
S3150800D0000400200003000700100000000010024082
S3150800D01020000500020002000300050010000000C1
S3150800D020001002404000050104002000030006002D
S3150800D0302000000000140240400006000200020022
S3150800D04003000600200000000014024080000700CC
S3150800D050020002000300070020000000001402403E
S3150800D0600001080002000200090008002000000074
S3150800D070001402400002090002000200090009002B
S3150800D080000001400100000002011B0000000040F2
S3150800D0900100000001021C0000040040020000001C
S3150800D0A001021D00000800400400000001021E00E5
S3150800D0B0000401400200000002012E000040014069
S3150800D0C000000100020118000044014000000200AF
S3150800D0D002011900004801400000040002011A007C
S3150800D0E0001C00408000000001022C0000200040C7
S3150800D0F00001000001022D002E2E2F626C6F636B5B
S3150800D1007365742F7274772F53544D33322F73729D
S3150800D110632F71756575652E6300000050505000C9
S3150800D120457643686E6C3100457643686E6C32000E
S3150800D130457643686E6C33000707070020D1000860
S3150800D14028D1000830D10008040404000064004017
S3150800D1500000000208000000000C02400100000068
S3150800D16008000000000C0240020001000913141513
S3150800D17016000000006800400000000402000000DD
S3150800D18000040240200005000200000000040240DE
S3150800D19040000600093F4041420000002E2E2F6243
S3150800D1A06C6F636B7365742F7274772F53544D339A
S3150800D1B0322F7372632F53544D33325F45343037F1
S3150800D1C02F63616E2E63000043616E4576656E744B
S3150800D1D05461736B0000000043616E5472616E7394
S3150800D1E06D69745461736B004574685F6966000005
S3150800D1F0706F770000000000000000000000304358
S30D0800D20000000000000030C325
S315080100000B78FF2B00D070474B78002BFBD107F0FC
S31508010010A9BC00BF08B5012006F0AAFD034A40F2B3
S3150801002067610020BDE8084008F052BC01000108DC
S31508010030002000F0F5B900BF704700BF2DE9F84F61
S31508010040DDF82CB00C9DDDF8289095F8088004465B
S3150801005016461F46DBE900010022002317F06CF95A
S31508010060002842D0A0452CBF4FF0000A4FF0010AE4
S3150801007089F801A000220023DBE9020117F05CF9E7
S3150801008038B1A04594BF4FF000084FF0010889F830
S315080100900280BAF1000F02D199F8023013B3304643
S315080100A03946DDE90E2316F003FD06460F46ACB9BF
S315080100B00F9BDDF838A003F1004B52465B464FF023
S315080100C0010817F025F958B188F00103DBB289F860
S315080100D000302C72C5E90067BDE8F88F0123F6E701
S315080100E0A046F1E7D5E90067D9E799F801A0C1E784
S315080100F02DE9F84FDDF82CB00C9D0A9E2F7A04469F
S3150801010090469946DBE900010022002317F014F90D
S3150801011000283DD0A7422CBF4FF0000A4FF0010A34
S3150801012086F801A000220023DBE9020117F004F991
S3150801013020B1A74294BF00270127B770BAF1000F73
S3150801014001D1B3780BB340464946DDE90E2316F0D3
S31508010150AFFC804689467CB10F9F0E9A07F1004392
S3150801016017F0D6F84FF0010368B1DBB233702C7281
S31508010170C5E90089BDE8F88F234633702C72C5E9B5
S315080101800089BDE8F88F0346EFE7D5E90089DAE784
S3150801019096F801A0C6E700BF704700BF91ED007A47
S315080101A007EE900AB4EEE77AF1EE10FA30B43FDAC8
S315080101B098000C1894ED007AF4EEC77AF1EE10FA6D
S315080101C024D5012B4FEA530037D9002401EB8005CA
S315080101D095ED007AF4EEC77AF1EE10FA54BF0446AB
S315080101E003461D1B1819012D4FEA5000EED8A4002D
S315080101F0231D08191944D0ED006A91ED007A77EEAE
S31508010200E67A37EE667AC7EE876A03E00346041F85
S31508010210F7EE006A1444134494ED007AD3ED007A9C
S3150801022077EEC77A30BCA6EEA77A17EE100A7047A2
S31508010230DFED036A00240423ECE704230024D8E74E
S315080102400000000070B491F90040844240DACC56AF
S31508010250844223DD012B4FEA53043ED900250E576C
S315080102608642D4BF254623465E1B5C19012E4FEAFA
S315080102705404F4D86E1CB3001C1F4D5D895D401BE8
S31508010280C0B207EE900A491BC9B2B8EE677A07EE03
S31508010290901AF8EE676A87EE266A03E09B001C1F30
S315080102A0B7EE006A1444134494ED007AD3ED007A4C
S315080102B077EEC77ABDEEC77A67EE867A17EE100A29
S315080102C0FDEEE77A70BC17EE903A034458B27047D0
S315080102D09FED046A00240423E4E700242546042349
S315080102E00126CAE7000000002DE9F04F85B0029308
S315080102F00F9B0191002B039208DD0E9B0F9900229B
S3150801030003EB810143F8042B8B42FBD1019B002BA4
S3150801031055DDDDF838A0A0F1040E4FF000090F9B5A
S315080103205EF8046FC9EB0308029B9845A8BF984677
S31508010330B8F1000F4FEA1647B6B243DD039B5446A0
S315080103401D4603EB880C002255F8043B20688018EB
S315080103509AB22CBF4FF0010B4FF0000B02FB07F1CD
S315080103601B0C0BEB114B02FB06F203FB07BB03FB52
S3150801037006F3104409040BEB134B824288BF0BF1B9
S31508010380010B1B040844814294BF59460BF1010134
S315080103901844834294BF0A464A1CAC4544F8040BE8
S315080103A0D2D1C8440F9B4345C4BF0E9B43F82820AE
S315080103B0019B09F101094B450AF1040AAFD105B0C0
S315080103C0BDE8F08FC8460022ECE700BF2DE9F843E7
S315080103D00F1E1EDD14464FF000084FF00009061FD8
S315080103E0002556F8040F16F0A1FC224615F06CFA02
S315080103F002460B464046494616F05CFB0135AF42BC
S315080104008046894604F12004EBD140464946BDE8B9
S31508010410F8834FF000084FF00009F6E700000000E6
S315080104202DE9F04FDFF870B32DED0A8BBBF80230DA
S31508010430BFB0002B03F0D18204200EF06BFCC94C2F
S31508010440C94B1870B4F898310F93002103201D4643
S3150801045007F024F807EE900AC44B9FEDC56A188089
S31508010460F8EE677AB5F5FA7F27EE866A04F0FE8418
S3150801047094ED588AD4ED597A9FEDBE9A9FEDBE7ACE
S31508010480B4EE486AF1EE10FAC8BFB0EE468A78EEC5
S31508010490277AF6EE006AA7EEA69A29EE079AB5EE2E
S315080104A0C09AF1EE10FA04F1F784B44BB44A1293E8
S315080104B01D4602F11401042319EE100AFFF76EFE18
S315080104C007EE900A79EE277AC5ED007A94ED5BBAC4
S315080104D0DFEDAC7ADFEDA89AB4EE4B6AF1EE10FACD
S315080104E048BFB0EE46BA7BEE677A67EEA99AF5EE93
S315080104F0C09AF1EE10FA01DBD4ED5C9AA24ADFF854
S315080105006482012302F1080119EE900AFFF746FEFB
S31508010510B4F89A310C9307EE900A672B79EEA77A0D
S315080105209A4B08BF0127C3ED007A18BF002704F0CC
S315080105308F840C9A964D85F8A370642A0CBF0127FF
S315080105400027934B04F07784924BDFF8509293F887
S3150801055000A085F8AE70BAF1010F0CBF99F8B73053
S3150801056094F8A83189F83030BBF804301BB999F8EA
S3150801057030607600F6B2682A0CBF0127002704F01E
S31508010580BE84BAF1010F0CBF99F8B62094F8A921D7
S3150801059085F8A27089F83120002B02F0B386B4F8E9
S315080105A09A31692B0CBF0126002604F09D84BAF105
S315080105B0010F0CBF99F8B53094F8AA3189F8323091
S315080105C0BBF8043085F8A160002B02F08B86B4F8DD
S315080105D09A316A2B0CBF0126002604F0D783BAF19B
S315080105E0010FBBF804800CBF99F8B43094F8AB310D
S315080105F085F8A06089F83330B8F1000F02F0D98781
S31508010600B4F89A21574F6B2A0CBF0126002604F02D
S31508010610D583BAF1010F0CBF99F8B33094F8AC3110
S3150801062089F83430BBF8043085F89F6023B999F806
S3150801063034104900C9B206916C2A0CBF012600265E
S3150801064004F0AF83BAF1010F0CBF99F8B22094F800
S31508010650AD2185F89E6089F83520002B02F0818747
S31508010660B4F89A316D2B0CBF0126002604F083835A
S31508010670BAF1010F0CBF99F8B13094F8AE3189F887
S315080106803630BBF8043085F89D60002B02F0598797
S31508010690B4F89A316E2B0CBF0126002604F0C083EC
S315080106A0BAF1010FBBF804800CBF99F8C03094F871
S315080106B0AF3185F8AC6089F83730B8F1000F02F030
S315080106C0EF86B4F89A21274F6F2A0CBF0126002618
S315080106D004F09983BAF1010F0CBF99F8BF3094F869
S315080106E0B03189F83830BBF8043085F8AB6023B9E6
S315080106F099F838004000C1B20A91702A0CBF012648
S31508010700002604F07383BAF1010F0CBF99F8BE20D5
S3150801071094F8B12185F8AA6089F83920002B02F0EE
S315080107209786B4F89A31712B0CBF0126002604F07E
S315080107305283BAF1010F0CBF99F8BD3094F8B23162
S3150801074089F83A30BBF8043085F8A960002B02F025
S315080107506F86B4F89A31722B0CBF0126002604F075
S31508010760DB831DE050C5002016CA002034C50020D1
S315080107703333533A45CBDCBF0D650E4130CA0020F1
S3150801078000C0000845CBDC3F28C00008DCC70020B4
S3150801079008C80020D9C700203CC5002008C9002088
S315080107A0BAF1010FBBF804800CBF99F8BC3094F874
S315080107B0B33185F8A86089F83B30B8F1000F02F02B
S315080107C0DF85B4F89A21CC4F40F22F139A420CBF19
S315080107D00126002604F0D083B2F5967F85F8B56028
S315080107E0C64B0CBF0126002604F0B983C44B85F815
S315080107F0C06093F800A0BAF1020F0CBF99F8C8308F
S3150801080094F8B43189F83C30BBF8043023B999F827
S315080108103C004000C1B20D91B2F5987F0CBF01268C
S31508010820002604F08F83BAF1020F0CBF99F8C7208E
S3150801083094F8B52185F8B46089F83D20002B03F0BA
S31508010840A480B4F89A2140F231139A420CBF0126CA
S31508010850002604F06C83BAF1020F0CBF99F8C63072
S3150801086094F8B63189F83E30BBF8043085F8B360A0
S31508010870002B03F07A80B4F89A31B3F5997F0CBF4F
S315080108800126002604F0AA83BAF1020FBBF80480F8
S315080108900CBF99F8C53094F8B73185F8B26089F874
S315080108A03F30B8F1000F03F00F80B4F89A21924F48
S315080108B040F233139A420CBF0126002604F07683D0
S315080108C0BAF1020F0CBF99F8C43094F8B83189F817
S315080108D04030BBF8043085F8B16023B999F8400077
S315080108E04000C1B20E91B2F59A7F0CBF01260026CF
S315080108F004F04F83BAF1020F0CBF99F8C32094F89C
S31508010900B92185F8B06089F84120002B02F0B48737
S31508010910B4F89A2140F235139A420CBF01260026F3
S3150801092004F05183BAF1020F0CBF99F8C23094F85A
S31508010930BA3189F84230BBF8043085F8AF60002B2C
S3150801094002F08A87B4F89A31B3F59B7F0CBF01266A
S31508010950002604F08083BAF1020FBBF804800CBFAD
S3150801096099F8D13094F8BB3185F8BE6089F84330DF
S31508010970B8F1000F02F01F87B4F89A215E4F40F2D2
S3150801098037139A420CBF0126002604F05783BAF1A1
S31508010990020F0CBF99F8D03094F8BC3189F844306D
S315080109A0BBF8043085F8BD6023B999F844004000C6
S315080109B0C1B21091B2F59C7F0CBF0126002603F047
S315080109C0FD83BAF1020F0CBF99F8CF2094F8BD2127
S315080109D085F8BC6089F84520002B02F0DE82B4F860
S315080109E09A2140F239139A420CBF0126002604F0D7
S315080109F08D83BAF1020F0CBF99F8CE3094F8BE3147
S31508010A0089F84630BBF8043085F8BB60002B02F044
S31508010A10B482B4F89A31B3F59D7F0CBF012600263E
S31508010A2004F05F81BAF1020FBBF804800CBF99F894
S31508010A30CD3094F8BF3185F8BA6089F84730B8F1F6
S31508010A40000F03F03180BBF80230002B4BD1149B09
S31508010A50002B00F0F18699F86630002B00F0EC8641
S31508010A6000202849B4F8A231234E41F6FE7293427A
S31508010A709CBF0133A6F8A23194F890311E4A5E074D
S31508010A8004F1D285012643F0040366F3010382F8D3
S31508010A90903116F071FC1C4BC9F8280007EE900A34
S31508010AA01E709FED1A7AF4EEC77AF1EE10FA44F346
S31508010AB0DE85174B83ED007A164A174BD2ED008A6D
S31508010AC0F1EE047AF4EEE78AF1EE10FAC3ED008A44
S31508010AD004F3A685F7EE007AF4EE678AF1EE10FACA
S31508010AE048BFF0EE678A94F8C0310D93032B024F85
S31508010AF00CBF0126002611E050C5002008C80020B9
S31508010B00CDC800200000304014CA00200000004271
S31508010B1004CA002014000020F4C7002004F06183F1
S31508010B200D9B6E70012B0CBF01260026C04A04F0EE
S31508010B304C83022BEE70BE4A0CBF0126002604F038
S31508010B403883BC4AAE70042B0CBF0126002692F8E6
S31508010B5000A0B74B04F02383B74B2E701B78FE2BEE
S31508010B6004F00B8394F8C1310E93BAF1010FB34B1C
S31508010B7004F0FA821A461193D4F874311360B4F862
S31508010B809A21AF4F40F2F7139A420CBF012600266D
S31508010B9004F0DD82B2F5FA7F85F89960A44B0CBFA3
S31508010BA00126002604F0C682A64B85F89C601E78AD
S31508010BB0012E0CBF99F8AE3094F8C23189F8483045
S31508010BC0BBF8043023B999F848004000C1B2139123
S31508010BD0B2F5FC7F0CBF0127002703F0F786012E2B
S31508010BE00CBF99F8AD2094F8C32185F8987089F857
S31508010BF04920002B03F0F880B4F89A2140F2F91342
S31508010C009A420CBF0127002704F08180012E0CBFF0
S31508010C1099F8AC3094F8C43189F84A30BBF80430F5
S31508010C2085F89770002B03F0A880B4F89A31B3F5CC
S31508010C30FD7F0CBF0127002704F05E80012EBBF85B
S31508010C4004800CBF99F8AB3094F8C53185F89670D5
S31508010C5089F84B30B8F1000F02F0BD87BBF80230B6
S31508010C604BB9149B002B00F0FB8599F86F0016F021
S31508010C705DF8CDE92601B4F89A21714F40F2C323F4
S31508010C809A420CBF0126002603F07D86B2F52F7F16
S31508010C9085F84060664B0CBF0126002603F0668680
S31508010CA0694B85F84F601B780693012B0CBF99F8A1
S31508010CB09B3094F8C63189F84C30BBF8043023B917
S31508010CC099F84C004000C1B21A91B2F5317F0CBFB8
S31508010CD00126002603F03D86069A85F83F60012A1B
S31508010CE00CBF99F89A2094F8C72189F84D20002B52
S31508010CF003F00881B4F89A2140F2C5239A420CBF41
S31508010D000126002603F01A86069B85F83E60012B0C
S31508010D100CBF99F8993094F8C83189F84E30BBF868
S31508010D200430002B03F0DE80B4F89A2140F2C62382
S31508010D309A420CBF0126002603F05586069BBBF88E
S31508010D40048085F84D60012B0CBF99F8A73094F8FB
S31508010D50C93189F84F30B8F1000F03F06D80B4F846
S31508010D609A21374F40F2C7239A420CBF0126002623
S31508010D7004F05781069B85F84C60012B0CBF99F846
S31508010D80A63094F8CA3189F85030BBF8043023B933
S31508010D9099F850004000C1B22291B2F5327F0CBFDA
S31508010DA00126002604F03081069A85F84B60012A4F
S31508010DB00CBF99F8A52094F8CB2189F85120002B6E
S31508010DC002F0D184B4F89A2140F2C9239A420CBFA1
S31508010DD00126002604F00D81069B85F84A60012B41
S31508010DE00CBF99F8A43094F8CC3189F85230BBF885
S31508010DF00430002B02F06682B4F89A2140F2CA2325
S31508010E009A420CBF0126002604F06380069BBBF8B4
S31508010E10048085F84960012B0CBF99F8A33094F832
S31508010E20CD3189F85330B8F1000F02F027840DE06F
S31508010E3008C80020F8C80020C7C70020E4C8002059
S31508010E4050C5002004C80020D8C70020BBF80830C8
S31508010E500A931A468B4B002A40F0348194F9A4214F
S31508010E605B88A2F10402B2FA82F25209109289F859
S31508010E707020002B00F02D8194F8E331824A022B71
S31508010E8002D8013382F8E33194F895317E4903F0AB
S31508010E90020202F0FF00002A40F0F38491F894213F
S31508010EA07A4E7B4F43F0020381F89531012363F3B0
S31508010EB0071281F89421774A33704FF07E533870C0
S31508010EC01360BBF806306F4A002B40F0C181704FA2
S31508010ED0714E3B781793D6E900010022002394F856
S31508010EE0DE8116F029FA30B1179B434594BF0023DA
S31508010EF0012389F8F13000220023D6E9020116F010
S31508010F001BFA40B1179B43452CBF4FF000084FF021
S31508010F10010889F8F280D9F8F03023F07F4323F0ED
S31508010F20FF03003318BF012389F871300A9B002B90
S31508010F3040F0C48496F840303F78002B44F0DA83B9
S31508010F4096F84130002B44F0F28399F8E330534A7E
S31508010F50002B40F0B08492F8E670003718BF0127DD
S31508010F604F4B13931A4696F842301770002B44F0EC
S31508010F70EB8696F84330002B44F0D68699F8E9308B
S31508010F80464A002B44F0FF8292F8EC30003318BF32
S31508010F9001234449BBF806200B706ABB189300224B
S31508010FA00023D6E9040194F8DF7116F0C5F9002883
S31508010FB004F02A87189B9F422CBF4FF000084FF078
S31508010FC0010889F8EF8000220023D6E9060116F008
S31508010FD0B3F930B1189B9F4294BF0027012789F8BE
S31508010FE0F070B8F1000F44F0D18299F8F03000336F
S31508010FF018BF012389F87230BBF808300A93002B11
S3150801100040F02E81214B284A93F90080274F02F19F
S31508011010580140460623FFF715F9254A064602F107
S315080110203C01404606233E701096FFF70BF9214A0C
S31508011030DFF88CE0074602F12001404606238EF8C8
S315080110400070FFF7FFF8109B1B4A13F1000818BF41
S315080110504FF00108003718BF0127031C18BF0123E9
S3150801106089F87530154B89F873801B7889F874707F
S315080110701070002B00F0F980012389F8763089F881
S31508011080773005E13CC5002050C50020F8C700208F
S31508011090F0C8002030C50020A8C0000808C90020F3
S315080110A0D8C80020C5C7002038C0000834CA0020A7
S315080110B054C0000870C00008F0C7002016CA0020F6
S315080110C029CA00205B88002B7FF4FBAE99F87030A3
S315080110D0109399F8643013931A46544B1869002AE9
S315080110E040F0C58315F044FE06460F460022504BD4
S315080110F03046394616F020F94FF0010800B9804606
S3150801110000224B4B304639465FFA88F816F014F937
S3150801111000284FD095F8C330012B4BD0454B1868A2
S3150801112015F026FECDE91A0102460B463046394628
S3150801113016F002F9002844F0A0843F4B186815F010
S3150801114017FE02460B4630463946CDE9222316F0EC
S31508011150E9F8002804F0FE83DDE91A23304639460A
S3150801116016F0D6F8002804F0F58300220023DDE9FD
S31508011170260116F0E1F8002805F09B83DDE9222314
S315080111803046394615F094FC00222C4B15F044FEE6
S315080111902B4BCDE91A01186815F0EAFD02460B46F4
S315080111A0DDE91A0115F038FE0022264B15F082FCFE
S315080111B0C9E9000185F8C38000221D4B304639462E
S315080111C016F09CF84FF0010800B980460022184B2A
S315080111D0304639465FFA88F816F090F8B0B195F8B6
S315080111E0C430012B12D0184B186815F0C1FDCDE992
S315080111F01A0102460B463046394616F09DF8002874
S3150801120004F01C86114B0022C9E90223FDEEE87A97
S3150801121085F8C48017EE903A013B032B04F2F88552
S31508011220DFE813F00A23030EF222370E08C900205D
S3150801123000007440440000204000002000002A40BD
S3150801124020000020000033403C0000200000184028
S315080112500A9B002B00F0258313890A93C64B139327
S31508011260C64B1B78002B7FF407AF99F8731099F8D2
S31508011270742099F87530003118BF0121003218BF62
S315080112800122003389F8761089F8772018BF0123DF
S3150801129089F878300A9BBA4A6BB9BA4B9FEDBA7A84
S315080112A0D3ED007AF0EEE77A67EE877AFCEEE77A15
S315080112B017EE903A93850F9BB44E01339BB2B3F563
S315080112C07A7F4FF0000188BF0B461293B4F89C3120
S315080112D00F9308201F4606F0E1F807EE900AAC4B7B
S315080112E09FEDAC6A1880F8EE677AB7F5FA7F27EEB4
S315080112F0866A03F0838396ED5E7AD4ED5F6ADFED45
S31508011300A68AA64B0A93B4EEC76AF1EE10FAD4BFC1
S31508011310F0EE477AF0EE467A77EEA67AF6EE006AAE
S31508011320E7EEA68AD8BF83ED007A9FED9D7AC8BFFE
S3150801133083ED006A68EE878AF5EEC08AF1EE10FA47
S3150801134004F1F780974B984A1A931E4602F1140145
S31508011350042318EE900AFEF721FF07EE900A78EEAD
S31508011360A77AC6ED007AD4ED61AADFED907A9FEDF2
S315080113708CAAB4EE6A6AF1EE10FA48BFF0EE46AAF4
S315080113807AEEE77A27EE8AAAB5EEC0AAF1EE10FA46
S3150801139001DB94ED62AA864A012302F108011AEEDD
S315080113A0100AFEF7FBFE07EE900A824ABBF80230E6
S315080113B07AEE277AC2ED007A6BB97F4AD2ED007AC6
S315080113C0B1EE047AF4EEC77AF1EE10FA44F3CD8061
S315080113D07A4A82ED007ABAF1020F794A03F0A186B8
S315080113E011461092D4F88C210A60BBF80460002ECD
S315080113F061D1744A744992ED007A744AD1ED007A42
S31508011400D2ED006AF4EEC77AF1EE10FAF4EEE67A56
S31508011410CCBF01220022F1EE10FA89F87920C4F234
S31508011420EC80F4EEC77AF1EE10FA94BF012100219F
S31508011430674A89F87A1092ED007AF4EEC77AF1EEE6
S3150801144010FAC4F2D780F4EEE67AF1EE10FA4CBF40
S31508011450012100215F4A89F87B10D2ED006AF4EE7A
S31508011460E67AF1EE10FAC4F2C280F4EEC77AF1EE2A
S3150801147010FA4CBF01200020574999F8652091EDD3
S31508011480007A89F87C00F3EE027AB2FA82F2B4EEB7
S31508011490E77A5209F1EE10FA89F87D2008DC4F4AFD
S315080114A092ED007AB4EEE77AF1EE10FA44F37D8113
S315080114B0012289F87E200BBB99F87E303A4994F8C7
S315080114C0E5212F4F002B14BF042302230B44134499
S315080114D093F897302093184615F028FC404BC3E93A
S315080114E00001149BCDE91C0143B197F86E30002B1E
S315080114F044F078819FED1E7B8DED1C7B0C9A40F2A2
S315080115008B339A4203F01C840C99364A0023B1F5B1
S31508011510617F85F82E3003F00584334A85F83D301E
S3150801152092F800A0BAF1020F0CBF99F88A3094F824
S31508011530CE3189F8543026B999F854004000C3B21F
S3150801154024930C9BB3F5637F0CBF0127002703F097
S31508011550BB83BAF1020F0CBF99F8893094F8CF31E1
S3150801156085F82D7089F85530002E02F075823DE018
S315080115700000000000000000D8C8002016CA00209C
S3150801158008C9002030C5002000C07F4450C500208E
S31508011590CEC800203333533A45CBDCBF24C50020DF
S315080115A00D650E4120C5002000C0000845CBDC3F73
S315080115B028C00008E8C80020F4C7002000CA002097
S315080115C000C800202C00002008CA00203000002096
S315080115D028000020380000202CCA00201CCA002040
S315080115E020CA002008C80020F2C700200C9A40F241
S315080115F08D339A420CBF0126002603F0B183BAF156
S31508011600020F0CBF99F8883094F8D03189F8563012
S31508011610BBF8043085F82C60002B02F0F2810C9A95
S3150801162040F28E339A420CBF0126002603F07B81D5
S31508011630BAF1020FBBF804800CBF99F8973094F8F9
S31508011640D13185F83B6089F85730B8F1000F02F0BF
S31508011650B9840C9A40F28F339A420CBF01260026B0
S3150801166002F08885BAF1020F0CBF99F8963094F802
S31508011670D23189F85830BBF8043085F83A6023B975
S3150801168099F858004000C2B228920C9AB2F5647FC4
S315080116900CBF0126002602F06085BAF1020F0CBFC5
S315080116A099F8952094F8D32185F8396089F8592055
S315080116B0002B02F05F840C9A40F291339A420CBFD8
S315080116C00126002603F07781BAF1020F0CBF99F8BB
S315080116D0943094F8D43189F85A30BBF8043085F837
S315080116E03860002B02F036840C9A40F292339A4203
S315080116F00CBF0126002603F05381BAF1020FBBF88D
S3150801170004800CBF99F8933094F8D53185F8376081
S3150801171089F85B30B8F1000F02F0AA84BBF808809B
S315080117206D4BB8F1000F41F0208494F9A5715B88DF
S31508011730A7F10407B7FA87F77F0989F87F70002BA5
S3150801174040F03E8199F8653008931A46634BD3ED0C
S3150801175006BA1AB1DFED627A6BEEA7BADFED617AE6
S31508011760F4EEE7BAF1EE10FACCBF0126002633DD16
S3150801177095F8C130012B2FD05B4BD3ED007AF4EEEF
S31508011780E7BAF1EE10FA04F37E81584B93ED00CADD
S31508011790F4EECCBAF1EE10FAC4F2C180F4EEE7BA6F
S315080117A0F1EE10FA04F2BB8000220023DDE91C01E8
S315080117B015F0C2FD002805F0B5803BEECCCA4C4BAE
S315080117C0F2EE0A7A6CEE277AD3ED006AB3EE037A63
S315080117D0A7EEA67A89ED087ADFED427A85F8C16027
S315080117E0F4EEE7BAF1EE10FA4CBF01260026414B9A
S315080117F00FD593F8C230012B0BD03F4BD3ED007AAE
S31508011800F4EEE7BAF1EE10FA44F30E843B4BC9F84D
S3150801181024303B4B85F8C260D3ED007AFDEEE77ABA
S3150801182017EE903A013B032B04F2FE82DFE813F030
S315080118305A2076004220AA0099F86730274A002BD9
S315080118407FF40EA992F86830002B7FF409A992F863
S3150801185069300020002B7FF404A92A49FFF702B951
S31508011860294B93ED007B8DED267BFFF704BA15F026
S315080118707FFA17A3D3E9002315F0CEFA06460F46D9
S3150801188034E491F894311B09013B062B04F21587C0
S31508011890DFE813F04C267924EF24A624BE247E25FE
S315080118A0F7251A4E1A4F96F840303F78002B3FF429
S315080118B047AB03F01FBF0127FFF752BB154B164A6B
S315080118C01B7813921893FFF76ABB00BFAFF300802A
S315080118D0AA4C58E87AB6FB3F3CC5002008C9002047
S315080118E0D7B3DD3F0000A04344000020400000209C
S315080118F02000002008C800203C0000200000C0404D
S3150801190000CA002000004040D0C70020A8C0000837
S31508011910F0C80020C5C70020D8C8002099F879303A
S31508011920B94A002B43F0D98792F87A30002B44F054
S315080119308D8692F87B30002B44F0AA8092F87C3091
S31508011940002B03F0CA87DDE91C010022002315F0EC
S31508011950F3FC002805F08680AC4AAD4BD2ED007A3F
S3150801196093ED007A37EEC77AF3EE026AF1EE087A5A
S31508011970E7EE267A9FEDA77AF4EEC77AF1EE10FA2A
S3150801198043F3A387A44A4FF084431360A34B002F64
S3150801199003F00586D2ED006AD3ED007AF4EEE76A24
S315080119A0F1EE10FA43F3E186DFED9D6A9D4B87EE72
S315080119B0A67AC3ED007A89ED077AB8F1000F21D12D
S315080119C094F8E231984A022B02D8013382F8E231BF
S315080119D094F89531944A13F0010143F0EF8592F892
S315080119E09401924E924F43F0010382F895310123F7
S315080119F063F3030082F894018E4A33704FF07E53E5
S31508011A0039701360BBF806308B4A002B41F06E82A1
S31508011A10874F8A4E94F8E0313A7808931692D6E9B8
S31508011A2008010022002315F087FC38B1089B169A95
S31508011A309A4294BF0023012389F8E130002200234A
S31508011A40D6E90A0115F078FC38B1169B089A934233
S31508011A502CBF0023012389F8E230D9F8E03023F0BE
S31508011A607F4323F0FF03003318BF012389F8803031
S31508011A70B8F1000F01F04082714B724A1B7814923B
S31508011A80199300220023D6E90C0194F8E17115F0A7
S31508011A9053FC002804F0B481199B9F422CBF4FF0D8
S31508011AA000084FF0010889F8DF8000220023D6E9F3
S31508011AB00E0115F041FC30B1199B9F4294BF0027D6
S31508011AC0012789F8E070B8F1000F43F08D8599F880
S31508011AD0E030003318BF012389F88130BBF808606C
S31508011AE056BB524B584A93F9007002F15801062326
S31508011AF03846FEF7A7FB554A10F1000E18BF4FF0FE
S31508011B00010E02F13C010623384689F882E0FEF708
S31508011B1099FB4F4A10F1000E18BF4FF0010E02F162
S31508011B2020013846062389F883E0FEF78BFB00304F
S31508011B3018BF012089F88400464B1B78002B41F019
S31508011B40CE8199F8821099F8832099F8843000316A
S31508011B5018BF0121003218BF0122003389F8851008
S31508011B6089F8862018BF012389F88730264A6EB975
S31508011B70304B9FED397AD3ED007AF0EEE77A67EECE
S31508011B80877AFCEEE77A17EE903AD3850F9B0133F5
S31508011B909BB219460D9B0133DBB21846B1F57A7F24
S31508011BA00A46BBF8023088BF002215280D92024664
S31508011BB028BF00220F9243B9D9ED057A9FED277AFE
S31508011BC0274B67EE877AC3ED007A2EB994F9A631C9
S31508011BD01E9394F9A7311F930C9A134601339BB2AE
S31508011BE0B3F5AF6F089301F2768140F2BF239A42AB
S31508011BF043F03A8595F84430012B35D0194901202F
S31508011C000DF054FD01232FE008C9002008CA002061
S31508011C103800002000000042DCC8002004CA002069
S31508011C200000704238C5002050C500202ACA00208D
S31508011C30C8C70020C0C700203CC50020A8C00008AE
S31508011C40C6C70020B8C7002038C0000854C000081D
S31508011C5070C0000816CA002000C07F440000664311
S31508011C60ECC80020A7C9002085F84430069BB4F8C3
S31508011C709E21012B40F222330CBF99F89F1094F84C
S31508011C80D61189F85C109A420CBF0126002602F08B
S31508011C90EF860C9B85F89260B3F5307F0CBF012661
S31508011CA00026BF4B02F0D986069BB4F89E2185F81B
S31508011CB04360012B40F223330CBF99F89E1094F828
S31508011CC0D71189F85D109A420CBF0126002602F049
S31508011CD0F9860C9A85F8916040F2C1239A420CBFA5
S31508011CE001260026AE4B02F0E286069B85F8426085
S31508011CF0012BB4F89E310CBF99F89D1094F8D811B0
S31508011D0089F85E10B3F5497F0CBF0126002602F05B
S31508011D10C4860C9A85F8906040F2C2239A420CBF99
S31508011D20012600269E4B02F0AD86069B85F841608A
S31508011D30012BB4F89E310CBF99F89C1094F8D9116F
S31508011D4089F85F1040F225329342964F0CBF01265F
S31508011D50002602F0208740F22632934285F88F60EA
S31508011D608F4A0CBF0126002602F0078740F2273268
S31508011D70934285F88E608A4A0CBF0126002602F036
S31508011D80EE86B3F54A7F85F88D60854A0CBF012634
S31508011D90002602F0D68640F22932934285F88C60F5
S31508011DA07F4A0CBF0126002602F0BD8640F22E327C
S31508011DB0934285F88B607A4A0CBF0126002602F009
S31508011DC0A586B3F5487F85F88A60754A0CBF012652
S31508011DD0002602F08E8640F22132934285F8896008
S31508011DE06F4A0CBF0126002602F0768640F22A3297
S31508011DF0934285F888606A4A0CBF0126002602F0DC
S31508011E00848540F22B32934285F88760644A0CBF79
S31508011E100126002602F06B85B3F54B7F85F88660AF
S31508011E205F4A0CBF0126002602F0538540F22D3287
S31508011E30934285F885605A4B0CBF0126002602F0AD
S31508011E403C850C9A85F8846040F287339A420CBF28
S31508011E5001260026524B02F02585B4F89E2185F805
S31508011E603260BAF1020F40F2EA330CBF99F88E10CC
S31508011E7094F8DA1189F860109A420CBF01260026F7
S31508011E8002F006850C9B85F88360B3F5627F0CBF6B
S31508011E9001260026424B02F0F084B4F89E2185F80B
S31508011EA03160BAF1020F40F2EB330CBF99F88D108D
S31508011EB094F8DB1189F861109A420CBF01260026B5
S31508011EC002F0D1840C9A85F8826040F289339A42ED
S31508011ED00CBF01260026324B02F0BA84B4F89E31B3
S31508011EE085F83060BAF1020F0CBF99F88C1094F896
S31508011EF0DC1189F86210B3F57B7F0CBF0126002639
S31508011F0002F09C840C9A85F8816040F28A339A42E1
S31508011F100CBF01260026224B02F08584B4F89E31B7
S31508011F2085F82F60BAF1020F40F2ED320CBF99F82D
S31508011F308B1094F8DD1189F863109342194F0CBF81
S31508011F400126002602F0638440F2EE32934285F8B8
S31508011F508060134A0CBF0126002602F04A8440F22B
S31508011F60EF32934285F87F600D4A0CBF01260026A1
S31508011F7002F03184B3F57C7F85F87E60084A0CBF90
S31508011F800126002602F0198440F2F132934285F8BF
S31508011F907D60034A0CBF0126002602F0008403E097
S31508011FA008C8002050C5002040F2F632934285F851
S31508011FB07C60B44A0CBF0126002602F0E383B3F520
S31508011FC07A7F85F87B60AF4A0CBF0126002602F0AE
S31508011FD0CC8340F2E932934285F87A60A94A0CBF6C
S31508011FE00126002602F0B48340F2F232934285F8C4
S31508011FF07960A44A0CBF0126002602F09B8340F2B1
S31508012000F332934285F878609E4A0CBF0126002672
S3150801201002F08283B3F57D7F85F87760994A0CBF14
S315080120200126002602F06A8340F2F532934285F8CA
S315080120307660944A0CBF0126002602F05183CA2B0A
S3150801204085F875608F4A0CBF0126002602F03A838F
S31508012050CB2B85F874608B4A0CBF0126002602F04B
S315080120602383CC2B85F87360864A0CBF012600268C
S3150801207002F00C83CD2B85F87260824A0CBF0126CB
S31508012080002602F0F582CE2B85F871607D4A0CBFD9
S315080120900126002602F0DE82CF2B85F87060794A88
S315080120A00CBF0126002602F0C782D02B85F86F6087
S315080120B0744A0CBF0126002602F0B082D12B85F89E
S315080120C06E60704A0CBF0126002602F09982D22B57
S315080120D085F86D606B4A0CBF0126002602F08282E4
S315080120E0D32B85F86C60674A0CBF0126002602F0DF
S315080120F06B82D42B85F86B60624A0CBF01260026D9
S3150801210002F05482D52B85F86A605E4A0CBF012617
S31508012110002602F02F82D62B85F86960594A0CBF32
S315080121200126002602F01982C82B85F86860554AEF
S315080121300CBF0126002602F00382C92B85F86760C9
S31508012140504A0CBF0126002602F0ED81B3F5C97F7E
S3150801215085F866604B4A0CBF0126002602F0D58138
S3150801216040F29312934285F86560464A0CBF0126F0
S31508012170002602F0BC81B3F5CA7F85F86460414A3E
S315080121800CBF0126002602F0A48140F29512934263
S3150801219085F863603B4A0CBF0126002602F08B8155
S315080121A0B3F5CB7F85F86260364A0CBF0126002657
S315080121B002F0738140F29712934285F86160314AC1
S315080121C00CBF0126002602F05A81B3F5CC7F85F8AB
S315080121D060602C4A0CBF0126002602F0428140F2BB
S315080121E09912934285F85F60264A0CBF012600269C
S315080121F002F02981B3F5CF7F85F85E60214A0CBFCD
S315080122000126002602F01281B3F5C87F85F85D60C4
S315080122101C4A0CBF0126002602F0FB8040F29112EF
S31508012220934285F85C60174A0CBF0126002602F026
S31508012230E380B3F5CD7F85F85B60124A0CBF0126B2
S31508012240002602F0CB8040F29B12934285F85A6031
S315080122500C4A0CBF0126002602F0B280B3F5CE7FE8
S3150801226085F85960074A0CBF0126002602F09A80B4
S3150801227040F29D12934285F85860024A08BF01262A
S3150801228002E000BF08C8002018BF002602F07C80C3
S3150801229040F25A22934285F85760CB4A0CBF012671
S315080122A0002602F0638040F25B22934285F856606D
S315080122B0C54A0CBF0126002602F04A80B3F5177FEE
S315080122C085F85560C04A0CBF0126002602F0328007
S315080122D040F25D22934285F85460BB4A0CBF012641
S315080122E0002602F0198040F25E22934285F8536077
S315080122F0B54A0CBF0126002602F00180B3F5167F08
S3150801230085F85260B04A0CBF0126002601F0EA871B
S3150801231040F25922934285F85160AB4A0CBF012617
S31508012320002601F0D28701339BB2B3F5966F1A46A0
S3150801233088BF002206920C9A85F8506040F22D1348
S315080123409A4201F0AB870C989F4B40F23B11002251
S31508012350884285F8BF2001F03E870C9983F8B92099
S31508012360B1F59E7F43F0A98493F8B830012B03D0C9
S31508012370964901200DF09AF90122002385F8B82023
S3150801238085F8B7300C99A1F59773B3FA83F3A1F1E0
S315080123907306A1F17408A1F1750AA1F166075B0933
S315080123A0B6FA86F6B8FA88F8BAFA8AFAB7FA87F759
S315080123B0652985F8B6304FEA5616834B4FEA581801
S315080123C04FEA5A1A4FEA571743F02E8493F8AD305D
S315080123D0012B03D07E4901200DF068F9012385F808
S315080123E0A76085F8A68085F8AD300C9A85F8A5A072
S315080123F0662A754B44F05D8393F8A430012B03D00C
S31508012400744901200DF052F9002385F8A4701E467F
S3150801241085F89B301A931F461A4685F89A7085F8EF
S3150801242095200C9A684BB2F5FE7F43F0748393F8B6
S315080124309430012B03D0684901200DF037F99DF836
S31508012440683085F89430BBF8048085F89360B8F154
S31508012450000F00F0F1850C9A40F2BD239A4200F074
S31508012460E4860C98584B40F2CB210022884285F825
S315080124704E2003F04E800C9983F84820B1F5337F3E
S3150801248043F0748393F84730012B03D05349012055
S315080124900DF00CF90122002385F8472085F846300E
S315080124A00C9840F2BE23C31A40F2933240F2953794
S315080124B040F28636B3FA83F340F28531C2EB000A5D
S315080124C0C71B861BA0F565785B09BAFA8AFAB7FABB
S315080124D087F7B6FA86F6B8FA88F8884285F8453055
S315080124E04FEA5A1A4FEA57174FEA5616364B4FEA2A
S315080124F0581843F0258393F83C30012B03D038490B
S3150801250001200DF0D3F8012385F836A085F835802A
S3150801251085F83C300C9985F8347040F28632914240
S31508012520294B07D193F83330012B03D02D490120CC
S315080125300DF0BCF885F8336001200DF0D3F8B4F836
S31508012540A011294E204A294F01290CBF0123002336
S3150801255033700BD192F82B20012A07D0244B084659
S3150801256019700DF079F83378B7F8A01185F82B3082
S3150801257002290CBF01260026134B02F0BD87032949
S3150801258085F82A60104B0CBF0126002602F0A787A2
S31508012590042985F829600C4B0CBF0126002602F098
S315080125A09187052985F82860074B0CBF0126002667
S315080125B002F06D87062985F82760034B0CBF0126B3
S315080125C0002602F0588715E008C80020D3C9002064
S315080125D0C9C90020C0C90020B1C90020A9C9002065
S315080125E0A0C9002097C90020E0C8002050C50020D6
S315080125F0F1C70020072985F82660B34B0CBF0126D1
S31508012600002602F02B87082985F82560AE4B0CBFFA
S315080126100126002602F01587CA2985F82460AA4BE7
S315080126200CBF0126002602F0FF86CB2985F8236018
S31508012630A54B0CBF0126002602F0E986CC2985F8B0
S315080126402260A14B0CBF0126002602F0D386CD29B4
S3150801265085F821609C4B0CBF0126002602F0BD8639
S31508012660CE2985F82060984B0CBF0126002602F07A
S31508012670A886CF29EE77944B0CBF0126002602F0D7
S315080126809486D029AE77904B0CBF0126002602F01E
S315080126908086C9296E778C4B0CBF0126002602F06D
S315080126A06C86B1F5C97F2E77874B0CBF01260026AC
S315080126B002F0578640F293139942EE76824B0CBF8D
S315080126C00126002602F04186B1F5CA7FAE767E4B19
S315080126D00CBF0126002602F02C8640F2951399427A
S315080126E06E76794B0CBF0126002602F01686B1F5E7
S315080126F0CB7F2E76744B0CBF0126002602F001868D
S3150801270040F297139942EE756F4B0CBF01260026CE
S3150801271002F0EB85B1F5CC7FAE756B4B0CBF01268C
S31508012720002602F0D68540F2911399426E75664BE2
S315080127300CBF0126002602F0C0850F292E7508D97F
S31508012740A1F1C8030F2B04D9A1F5C8730F2B03F206
S315080127501D805E4E0123337040F2592399420CBF06
S315080127600127002702F09D8540F25A239942EF740A
S31508012770554B0CBF0127002702F0878540F25B23E2
S315080127809942AF74504B0CBF0127002702F071859F
S31508012790B1F5177F6F744C4B0CBF0127002702F068
S315080127A05C8540F25D2399422F74474B0CBF012784
S315080127B0002702F0468540F25E239942EF73424BA9
S315080127C00CBF0127002702F0308540F25F239942AA
S315080127D0AF733D4B0CBF0127002702F01A85B1F5EF
S315080127E0187F6F73384B0CBF0127002702F0058548
S315080127F040F2213399422F73334B0CBF012700272F
S3150801280002F0568240F222339942EF722E4B0CBFE8
S315080128100127002702F0408240F223339942AF7222
S31508012820294B0CBF0127002702F02A82B1F5497FFF
S315080128306F72254B0CBF0127002702F0158240F263
S31508012840253399422F72204B0CBF0127002702F02E
S31508012850FF8140F226339942EF711B4B0CBF0127CA
S31508012860002702F0E98140F227339942AF71164BEE
S315080128700CBF0127002702F0A681B1F54A7F6F71C7
S31508012880114B0CBF0127002702F0918101312F71ED
S315080128908DB2B5F5AF6F4FF0000088BF05460CF055
S315080128A021FF0B4B0B4F188005F05EF80A4B187089
S315080128B005F060F8094B1860094805F05DF8094B01
S315080128C0BBF8061018600FE008C80020E8C700200A
S315080128D0CAC700203CC5002015CA0020FCC7002035
S315080128E09CC10008F4C8002039B999F8713003B1C0
S315080128F0012114200CF058FAF98899F83030BDF8FE
S31508012900482099F83100A4F8982184F8A831BDF82F
S31508012910202099F83330A4F89A2184F8A90199F866
S31508012920322099F8340084F8AB3199F8363084F8B6
S31508012930AA2184F8AC0199F8352099F8370084F86A
S31508012940AE3199F8393084F8AD2184F8AF0199F898
S31508012950382099F83A0084F8B13199F83C3084F86E
S31508012960B02184ED588A99F83B2084ED598A84ED83
S315080129705A9A84ED5BBAC4ED5C9A84F8B20184F87C
S31508012980B431119B99F83DE01B68C4F874319DF880
S315080129903C3084F8C0319DF8383099F83E7099F882
S315080129A03F0084F8B32184F8C13199F8402099F899
S315080129B0423099F841C084F8B5E184F8B67199F8BE
S315080129C043E099F8447084F8B70184F8B82199F876
S315080129D0450099F8462084F8BA3199F8483084F8C0
S315080129E0B9C184F8BBE199F847C099F849E084F878
S315080129F0BC7184F8BD0199F84A7084F8BE2184F83F
S31508012A00C231BBF8043099F84B2084F8C52184F803
S31508012A10BFC184F8C3E184F8C471CB4A1BB99DF8D8
S31508012A20843082F8E43199F84C0099F84D2084F8FD
S31508012A30C60184F8C72199F84E0099F84F2084F801
S31508012A40C80184F8C92199F8500099F85120BBF8B2
S31508012A50083084F8CA0184F8CB2199F8520099F80C
S31508012A60532084F8CD2184F8CC01B74A1BB99DF8C7
S31508012A70783082F8A43171B999F872309DF85C20E2
S31508012A8084F8DE2103B1012115200CF08DF99DF89A
S31508012A90603084F8DF3199F8761001B101210820F8
S31508012AA00CF082F999F8781001B1012109200CF08E
S31508012AB07BF999F8771001B101210A200CF074F914
S31508012AC0139B197801B101210E200CF06DF9B9F8A3
S31508012AD02C1005200BF0FAFFD4F83C31D4F8542118
S31508012AE0C4F83831D4F82031D4F84011C4F850214B
S31508012AF0D4F81C21C4F81C31D4F8F830C4F83C11B8
S31508012B00C4F81821D4F82411D4F8F420C4F8F43000
S31508012B108E4BC4F82011C4F8F020D4F8FC10D4F870
S31508012B200021C4F8F81084ED558A84ED508A84EDA5
S31508012B30498AC4F8FC2084ED408A03F114015A68D5
S31508012B4043F8042B8B42FAD1814B84ED358A03F184
S31508012B5018015A6843F8042B8B42FAD17D4B84ED50
S31508012B60288A03F11C015A6843F8042B9942FAD1C1
S31508012B7084ED198A744C234604F120015A6843F8F6
S31508012B80042B8B42FAD1BBF8061084ED088A724FE2
S31508012B9039B999F8803003B101211B200CF004F9E9
S31508012BA0F988109BBDF834001A680A9BC4F88C2171
S31508012BB0BBF802201B68C4F87831C4F87C31A4F844
S31508012BC09C01C4ED608AC4ED61AA84ED62AA5E4BDC
S31508012BD01AB99DF8802083F8E52199F8540099F8E7
S31508012BE0552084F8CE0184F8CF2199F8560099F832
S31508012BF0572084F8D00184F8D12199F8580099F81A
S31508012C005920BBF8083084F8D20184F8D32199F801
S31508012C105A0099F85B2084F8D52184F8D4014A4AE8
S31508012C201BB99DF87C3082F8A53171B999F88130C4
S31508012C309DF8582084F8E02103B1012117200CF0F2
S31508012C40B3F89DF8643084F8E13199F8851001B13B
S31508012C5001210B200CF0A8F899F8871001B1012180
S31508012C600C200CF0A1F899F8861001B101210D206C
S31508012C700CF09AF8149B197801B1012110200CF077
S31508012C8093F8B9F82E1004200BF020FF0A9BD4F80C
S31508012C905C211968D4F84C31D4F84801C4F8483194
S31508012CA0D4F83031C4F85821C4F84401D4F8342191
S31508012CB0D4F82C01C4F82C31D4F81031C4F83021D9
S31508012CC0C4F82801D4F81421D4F80C01C4F80C313D
S31508012CD0224BC4F81021D4F80821C4F85C11C4F8B1
S31508012CE00801C4F84C11C4F83411C4F81411C4F815
S31508012CF0042103F114005A6843F8042B9842FAD1C7
S31508012D00174BC4F8EC1003F118005A6843F8042B62
S31508012D109842FAD1134BC4F8BC1003F11C005A6847
S31508012D2043F8042B9842FAD10F4BC4F8841003F1E7
S31508012D3020005A6843F8042B9842FAD1BBF80830A8
S31508012D406164014AD3B911E050C5002010C60020BC
S31508012D50D8C5002098C500203CC5002028C60020FB
S31508012D60F4C50020B8C5002074C50020A249A34BAC
S31508012D7009781B7882F8A61182F8A731BDF81830B0
S31508012D8099F85C0099F85D203178A4F89E3199F894
S31508012D905E30A4F8A05199F85F6084F8D60199F8D5
S31508012DA0605084F8D72199F8610084F8D83199F8E8
S31508012DB0622099F8633084F8D96184F8DA5184F885
S31508012DC0DB0184F8DC2184F8DD3101B10121182009
S31508012DD00BF0EAFFBBF80230894A01339BB2092B93
S31508012DE088BF00235380BBF80430854A01339BB260
S31508012DF0632B88BF00239380BBF80630804A0133D2
S31508012E009BB2B3F5C87F28BF0023D380BBF808302F
S31508012E107B4A01339BB2B3F5FA6F28BF00231381AE
S31508012E203FB0BDEC0A8BBDE8F08F99F86A30754A58
S31508012E30002B42F0FC8492F86B30002B43F0ED83B3
S31508012E4092F86C30002B42F0368692F86D30002BE2
S31508012E5002F0ED84DDE926010022002314F06CFA64
S31508012E60002803F0EF85684A684BD2ED007A93EDA6
S31508012E70007A37EEC77AF3EE026AF1EE087AE7EEE0
S31508012E80267A9FED637AF4EEC77AF1EE10FA42F3E9
S31508012E90C684604B4FF084421A60109A002A02F0E9
S31508012EA0AF835D4AD3ED006AD2ED007AF4EEE76AA4
S31508012EB0F1EE10FA42F38584DFED586A584B87EE36
S31508012EC0A67AC3ED007A0A9B89ED057A002B7DF473
S31508012ED0F8AFFDF7D1BF00230893FEF7C5BE01235E
S31508012EE089F8853089F88630FEF73EBEB8F1000FBD
S31508012EF042F075834B4E4C4F96F844303F78002B81
S31508012F0042F03B8796F84530002B42F0498799F8FD
S31508012F10D3303C4A002B42F03F8392F8D6700037F3
S31508012F2018BF0127414B14931A4696F84630177075
S31508012F30002B42F0558796F84730002B42F0408720
S31508012F4099F8D9302F4A002B42F0238392F8DC30C6
S31508012F50003318BF01233649BBF806200B70002A37
S31508012F607EF4BCAD1993FEF78CBD5B88002B7EF40D
S31508012F7049AD99F87F70FEF7E5BB3EAA99F8463048
S31508012F8042F8343D32A902200123019000912948D3
S31508012F901946FDF7A9F9FDF73CBD109B99F84500BF
S31508012FA003EBD010C0B213F0C1FE11A3D3E900237D
S31508012FB013F07EFD02460B4600204FF0804112F0C9
S31508012FC02FFD99F845303EAA03F07F03CDE90801A4
S31508012FD042F8343D34A9022601238DE842001548FA
S31508012FE01946FDF781F9FDF7FABC00BFAFF300807A
S31508012FF00000000000C05F40F8C700202ACA002070
S315080130003CC5002008C9002008CA00203800002055
S315080130100000004200C9002004CA002000007042D6
S3150801302010CA0020A8C00008C8C70020B8C70020D9
S31508013030C6C700208CC0000899F85D3099F85C0075
S31508013040DB0903EB4000C0B213F070FEC2A3D3E95B
S31508013050002313F02DFD02460B4600204FF0804158
S3150801306012F0DEFC99F85D30CDE924013EA903F0A2
S315080130707F0341F8343D4FF0020A36AE01230A4672
S31508013080B7481A918DE840041946FDF72DF938AF6E
S31508013090012399F85E001A9A009719463190CDF8DE
S315080130A004A0AF48FDF720F9424630465146FDF7E0
S315080130B08DF94246CDE91C0138465146FDF786F998
S315080130C00022CDE922014FF07C53DDE91C0113F002
S315080130D0A3FE002206460F464FF07A53DDE9220188
S315080130E013F09AFE02460B463046394613F0E2FCC7
S315080130F0064699F85F000F4613F018FE02460B467E
S315080131003046394613F0D6FC4FF04042954B964E61
S3150801311013F0D0FC4FF000524FF07A5313F07CFEB7
S31508013120DDE9242313F078FE14F026F999F86130C5
S3150801313099F860203060D80900EB4200C0B213F05C
S31508013140F5FD85A3D3E9002313F0B2FC02460B462D
S3150801315000204FF0804112F063FC99F861701A9AC9
S31508013160CDF804A03AAE0123CDE91C0107F07F078B
S31508013170194600967A483197FDF7B6F801233CA916
S3150801318099F862701A9A00917548CDF804A0194603
S315080131903197FDF7A9F8424630465146FDF716F92B
S315080131A03CAB06460F46424618465146FDF70EF910
S315080131B00022CDE91A014FF07C533046394613F007
S315080131C02BFE002206460F464FF07A53DDE91A0117
S315080131D013F022FE02460B463046394613F06AFCC6
S315080131E0064699F863000F4613F0A0FD02460B4602
S315080131F03046394613F05EFC4FF04042594B13F006
S3150801320059FC4FF000524FF07A5313F005FEDDE9F1
S315080132101C2313F001FE14F0AFF8544B0C9A1860F6
S3150801322040F2BD239A427FF41CA995F84E30012B32
S3150801323003D04F4901200CF039FA012385F84E30A5
S315080132400C9BA3F53373B3FA83F300225B0985F864
S31508013250482085F847300C9940F2CD23CB1AB3FAAA
S3150801326083F340F2BE225B09914285F84630414B11
S315080132707FF416A993F84530012B03D03E49012066
S315080132800CF014FA00230122984685F83C3085F89B
S3150801329036301E461F4685F845200C9985F8358037
S315080132A040F295329142334B7FF434A993F8343086
S315080132B0012B03D0314901200CF0F8F985F8347057
S315080132C0FFF738B93EAA99F8523042F8343D32A987
S315080132D0022001230190009121481946FDF704F8BF
S315080132E0FDF78ABD3EAA99F8323042F8343D32A933
S315080132F0022001230190009119481946FCF7F4FFB1
S31508013300FDF765B999F8310006EBD010C0B213F094
S315080133100DFD11A3D3E9002313F0CAFB02460B46A0
S3150801332000204FF0804112F07BFB99F831303EAA1C
S3150801333003F07F03CDE92A0142F8343D34A9022678
S3150801334001238DE8420006481946FCF7CDFFFDF733
S3150801335026B900BFAFF300800000000000C05F403F
S315080133608CC00008FFFF5F4118CA0020FCC8002076
S3150801337036C5002008C800202CC5002098C90020A1
S315080133804246022134A8FDF721F8424606460F4671
S3150801339032A80221FDF71AF80022CDE906014FF0FD
S315080133A07C533046394613F037FD002206460F4650
S315080133B04FF07A53DDE9060113F02EFD02460B465E
S315080133C03046394613F076FB064699F83B000F4618
S315080133D013F0ACFC02460B463046394613F06AFB3D
S315080133E04FF04042A04B13F065FB4FF000524FF0EF
S315080133F07A5313F011FDDDE9082313F00DFD13F0DF
S31508013400BBFF9A4B1860119B07EE900A002B02F03E
S31508013410A4812E9B002B02F09186B1EE087AF4EE78
S31508013420C77AF1EE10FACCBF0123002302F096B950
S315080134303EAA99F83A3042F8343D32A902200123CE
S31508013440019000918A481946FCF74EFFFDF781B9AC
S315080134500A9B99F8390003EBD010C0B213F066FC49
S315080134607FA3D3E9002313F023FB02460B46002072
S315080134704FF0804112F0D4FA99F839303EAA03F098
S315080134807F03CDE9080142F8343D34A90226012318
S315080134908DE8420076481946FCF726FFFDF741B943
S315080134A04246022134A8FCF791FF424606460F46DA
S315080134B032A80221FCF78AFF0022CDE906014FF066
S315080134C07C533046394613F0A7FC002206460F46C0
S315080134D04FF07A53DDE9060113F09EFC02460B46CE
S315080134E03046394613F0E6FA064699F837000F468C
S315080134F013F01CFC02460B463046394613F0DAFA3D
S315080135004FF04042584B13F0D5FA4FF000524FF0A6
S315080135107A5313F081FCDDE9082313F07DFC13F0DF
S315080135202BFF07EE900AB1EE087A524BF4EEC77AF2
S31508013530F1EE10FA1860CCBF012300232E93FDF794
S31508013540C0B83EAA99F8363042F8343D32A902206D
S3150801355001230190009146481946FCF7C5FEFDF77F
S3150801356097B8069B99F8350003EBD010C0B213F053
S31508013570DDFB3BA3D3E9002313F09AFA02460B4677
S3150801358000204FF0804112F04BFA99F835303EAAE7
S3150801359003F07F03CDE9080142F8343D34A9022638
S315080135A001238DE8420032481946FCF79DFEFDF7D6
S315080135B057B84246022134A8FCF708FF4246064698
S315080135C00F4632A80221FCF701FF0022CDE90801C6
S315080135D04FF07C533046394613F01EFC002206464E
S315080135E00F464FF07A53DDE9080113F015FC024640
S315080135F00B463046394613F05DFA064699F833000C
S315080136000F4613F093FB02460B463046394613F034
S3150801361051FA4FF04042144B13F04CFA4FF0005256
S315080136204FF07A5313F0F8FB0B460246DDE92A01FF
S31508013630CDE9082313F0F0FB13F09EFE07EE900A7E
S31508013640B1EE087A0C4BF4EEC77AF1EE10FA18606F
S31508013650CCBF012300231193FCF7D2BFAFF300803F
S315080136600000000000C05F40FFFF5F41E0C7002087
S315080136708CC000080CCA002048C500204246022119
S3150801368034A8FCF7A3FE424606460F4632A8022195
S31508013690FCF79CFE0022CDE90A014FF07C53304627
S315080136A0394613F0B9FB002206460F464FF07A5306
S315080136B0DDE90A0113F0B0FB02460B4630463946EE
S315080136C013F0F8F9064699F85300DFF888830F4690
S315080136D013F02CFB02460B463046394613F0EAF93D
S315080136E04FF04042D24B13F0E5F94FF000524FF03C
S315080136F07A5313F091FBDDE9082313F08DFB13F0E0
S315080137003BFECC4B18602C9B07EE900A002B42F02F
S315080137100880C94B93ED007A77EE676AB1EE006AC5
S31508013720F4EEC66AF1EE10FA02F33D81F9EE005A9B
S31508013730F4EEE56AF1EE10FA02F13581BF4BD3EDED
S31508013740006A77EEE66AF4EEC66AF1EE10FA02F35B
S31508013750CD87F4EEE56AF1EE10FA02F1C78788ED36
S31508013760047AFDF773BB229B99F8510003EBD0103D
S31508013770C0B213F0DBFAACA3D3E9002313F098F92E
S3150801378002460B4600204FF0804112F049F999F89C
S3150801379051303EAA03F07F03CDE9080142F8343DD2
S315080137A034A9022601238DE84200A5481946FCF7EB
S315080137B09BFDFDF707BB4246022134A8FCF706FE2E
S315080137C0424606460F4632A80221FCF7FFFD0022B3
S315080137D0CDE906014FF07C533046394613F01CFB00
S315080137E0002206460F464FF07A53DDE9060113F02B
S315080137F013FB02460B463046394613F05BF906467B
S3150801380099F843000F4613F091FA02460B463046E3
S31508013810394613F04FF94FF04042854B13F04AF9F8
S315080138204FF000524FF07A5313F0F6FADDE9082308
S3150801383013F0F2FA13F0A0FD07EE900AB1EE087A3A
S31508013840804BF4EEC77AF1EE10FA1860CCBF01236B
S3150801385000232F93FDF790B83EAA99F8423042F813
S31508013860343D32A90220012301900091744819467A
S31508013870FCF73AFDFDF766B80E9B99F8410003EB94
S31508013880D010C0B213F052FA67A3D3E9002313F09C
S315080138900FF902460B4600204FF0804112F0C0F89E
S315080138A099F841303EAA03F07F03CDE9080142F8B1
S315080138B0343D34A9022601238DE8420060481946A1
S315080138C0FCF712FDFDF724B84246022134A8FCF79D
S315080138D07DFD424606460F4632A80221FCF776FDD3
S315080138E00022CDE906014FF07C533046394613F0E4
S315080138F093FA002206460F464FF07A53DDE9060190
S3150801390013F08AFA02460B463046394613F0D2F8C6
S31508013910064699F83F000F4613F008FA02460B4689
S315080139203046394613F0C6F84FF04042404B13F083
S31508013930C1F84FF000524FF07A5313F06DFADDE9F2
S31508013940082313F069FA13F017FD07EE900AB1EE92
S31508013950087A3D4BF4EEC77AF1EE10FA1860CCBF3F
S31508013960012300232993FCF7A0BF3EAA99F83E300C
S3150801397042F8343D32A902200123019000913048D2
S315080139801946FCF7B1FCFCF776BF0D9B99F83D008B
S3150801399003EBD010C0B213F0C9F923A3D3E900236E
S315080139A013F086F802460B4600204FF0804112F0CC
S315080139B037F899F83D303EAA03F07F03CDE90801AF
S315080139C042F8343D34A9022601238DE842001C48F9
S315080139D01946FCF789FCFCF734BF02200BF09AF96B
S315080139E01A4C207003200BF095F9194B1870002812
S315080139F001F094862078031C18BF01231493FCF761
S31508013A001BBD3EAA99F8563042F8343D32A9022028
S31508013A100123019000910A481946FCF765FCFDF758
S31508013A20FEBD00BFAFF300800000000000C05F408C
S31508013A30FFFF5F41E4C70020D4C80020180000201A
S31508013A408CC000081CCA00202CCA0020D0C800203F
S31508013A5028CA002008C90020249B99F8550003EBC1
S31508013A60D010C0B213F062F9CDA3D3E9002313F045
S31508013A701FF802460B4600204FF0804111F0D0FF97
S31508013A8099F855303EAA03F07F03CDE9080142F8BB
S31508013A90343D34A9022601238DE84200C24819465D
S31508013AA0FCF722FCFDF7A2BD4246022134A8FCF729
S31508013AB08DFC424606460F4632A80221FCF786FCD3
S31508013AC00022CDE906014FF07C533046394613F002
S31508013AD0A3F9002206460F464FF07A53DDE906019F
S31508013AE013F09AF902460B463046394612F0E2FFC0
S31508013AF0064699F847000F4613F018F902460B4691
S31508013B003046394612F0D6FF4FF04042A74B12F025
S31508013B10D1FF4FF000524FF07A5313F07DF9DDE9EA
S31508013B20082313F079F913F027FCA14B1860299B98
S31508013B3007EE900A002B41F0CE85299B9D4A89F80C
S31508013B406530B9F86430D2ED006AB1EE087A00330F
S31508013B50F4EEC76A18BF0123F1EE10FA89F8663048
S31508013B6042F30881944BD3ED006AF4EEC76AF1EE8D
S31508013B7010FACCBF01220022904B89F86720D3EDB9
S31508013B80006AB1EE087AF4EEC76AF1EE10FA42F36A
S31508013B90EE808B4BD3ED006AF4EEC76AF1EE10FAAC
S31508013BA0CCBF01220022874B89F86820D3ED006A31
S31508013BB0B1EE087AF4EEC76AF1EE10FA42F3D48050
S31508013BC0F4EEC77AF1EE10FACCBF0123002389F887
S31508013BD06930FCF738BF4246022134A8FCF7F6FBE8
S31508013BE0424606460F4632A80221FCF7EFFB0022A1
S31508013BF0CDE906014FF07C533046394613F00CF9EE
S31508013C00002206460F464FF07A53DDE9060113F006
S31508013C1003F902460B463046394612F04BFF064673
S31508013C2099F84B000F4613F081F802460B463046C9
S31508013C30394612F03FFF4FF040425C4B12F03AFF13
S31508013C404FF000524FF07A5313F0E6F8DDE90823F6
S31508013C5013F0E2F813F090FB5B4B5C4A93ED007AA4
S31508013C60D2ED006A5A4B07EE900AF4EEC77AF1EEE6
S31508013C7010FAF4EEE67A1860CCBF01230023F1EEC0
S31508013C8010FA89F86A3081F21D854246514B89F846
S31508013C906B2093ED007AF4EEC77AF1EE10FAC2F2D0
S31508013CA04080F4EEE67AF1EE10FA4CBF01220022CA
S31508013CB0494B89F86C20D3ED006AF4EEE67AF1EE09
S31508013CC010FAC2F22B80F4EEC77AF1EE10FA4CBF65
S31508013CD00122002299F8673089F86D203F4A002BA6
S31508013CE041F0FC86B2F86830002B41F0F786314B7B
S31508013CF093ED007AF3EE027AB4EEE77A0126F1EE55
S31508013D0010FA82F86E6002F309872C4B93ED007A5C
S31508013D10F3EE027AB4EEE77AF1EE10FA02F30B82C9
S31508013D20284B93ED007AB4EEE77AF1EE10FACCBFA0
S31508013D30022301235A002A4B94F8E41113440B4435
S31508013D4093F897302193184612F0F0FF254BC3E9F3
S31508013D50000176B199F86470002F42F0F2810022D1
S31508013D6000234FF0010613F0BFFA002842F008823B
S31508013D70F6B289F86F60FCF771BF3EAA99F84A3026
S31508013D8042F8343D32A902200123019000910648E8
S31508013D901946FCF7A9FAFCF748BF00BFAFF3008044
S31508013DA00000000000C05F408CC00008FFFF5F41B3
S31508013DB0BCC7002048C500202CCA00200CCA002018
S31508013DC01CCA0020E0C700202C000020300000207B
S31508013DD008CA0020280000203800002008C9002051
S31508013DE000C00008D0C70020139B99F8490003EBCF
S31508013DF0D010C0B212F09AFFE5A3D3E9002312F05E
S31508013E0057FE02460B4600204FF0804111F008FE8E
S31508013E1099F849303EAA03F07F03CDE9080142F833
S31508013E20343D34A9022701238DE88200DA48194670
S31508013E30FCF75AFAFCF7E0BE4246022134A8FCF721
S31508013E40C5FA424606460F4632A80221FCF7BEFAD3
S31508013E500022CDE90A014FF07C533046394612F06B
S31508013E60DBFF002206460F464FF07A53DDE90A01C9
S31508013E7012F0D2FF02460B463046394612F01AFEB8
S31508013E80064699F84F000F4612F050FF02460B46B8
S31508013E903046394612F00EFE4FF04042BF4B12F043
S31508013EA009FE4FF000524FF07A5312F0B5FFDDE9E3
S31508013EB0082312F0B1FF13F05FFAB94AB94BD2EDF4
S31508013EC0007A186007EE100A77EEC77AB1EE007A23
S31508013ED0F4EEC77AF1EE10FA41F3E88301232C9345
S31508013EE0FCF73DBF3EAA99F84E3042F8343D32A957
S31508013EF00220012301900091A7481946FCF7F4F91D
S31508013F00FCF712BF1A9B99F84D0003EBD010C0B20B
S31508013F1012F00CFF9EA3D3E9002312F0C9FD024655
S31508013F200B4600204FF0804111F07AFD99F84D308B
S31508013F303EAA03F07F03CDE9080142F8343D34A9CE
S31508013F40022601238DE8420093481946FCF7CCF96D
S31508013F50FCF7D0BE3EAA99F85A3042F8343D32A948
S31508013F6002200123019000918B481946FCF7BCF900
S31508013F70FDF7BABB289B99F8590003EBD010C0B2DC
S31508013F8012F0D4FE82A3D3E9002312F091FD024672
S31508013F900B4600204FF0804111F042FD99F8593047
S31508013FA03EAA03F07F03CDE9080142F8343D34A95E
S31508013FB0022601238DE8420077481946FCF794F951
S31508013FC0FDF779BB4246022134A8FCF7FFF94246C0
S31508013FD006460F4632A80221FCF7F8F90022CDE978
S31508013FE014014FF07C533046394612F015FF002272
S31508013FF006460F464FF07A53DDE9140112F00CFF1D
S3150801400002460B463046394612F054FD064699F8E3
S3150801401057000F4612F08AFE02460B4630463946CD
S3150801402012F048FD4FF040425C4B12F043FD4FF051
S3150801403000524FF07A5312F0EFFEDDE9082312F031
S31508014040EBFE13F099F9564A574BD2ED007A1860F0
S3150801405007EE100A77EEC77AB1EE007AF4EEC77A60
S31508014060F1EE10FA41F3168301232D93FDF7F1BA08
S315080140704246022134A8FCF7A9F9424606460F46EC
S3150801408032A80221FCF7A2F90022CDE914014FF06A
S315080140907C533046394612F0BFFE002206460F46CB
S315080140A04FF07A53DDE9140112F0B6FE02460B46CB
S315080140B03046394612F0FEFC064699F85B00DFF8F1
S315080140C0F8800F4612F032FE02460B463046394654
S315080140D012F0F0FC4FF04042304B12F0EBFC4FF07F
S315080140E000524FF07A5312F097FEDDE9082312F0D9
S315080140F093FE13F041F92D4B18602D9B07EE900A9C
S31508014100002B41F0C182284B93ED007A77EE676A5E
S31508014110B1EE006AF4EEC66AF1EE10FA01F34784CD
S31508014120F9EE005AF4EEE56AF1EE10FA01F13F8470
S315080141301B4BD3ED006A77EEE66AF4EEC66AF1EE3A
S3150801414010FA02F3D782F4EEE56AF1EE10FA02F1FB
S31508014150D18288ED067AFDF7E1BA95F83920012A68
S315080141603DF49BAA124901200BF0A0FABBF80430D2
