S02100002E2E2F4368617267655F315F56315F6578706572696D656E742E7372656318
S31508004000DC3E0120CD12020800000000000000007E
S315080040100000000000000000000000000000000092
S31508004020000000000000000000000000AD9001083C
S31508004030000000000000000049910108999101085C
S315080040400000000000000000000000000000000062
S315080040500000000000000000000000000000000052
S315080040600000000019E1010800000000000000003F
S315080040700000000000000000000000000000000032
S31508004080000000000000000000000000F511020812
S31508004090AD110208D1110208191202080000000029
S315080040A09D9901088999010875990108659901087A
S315080040B0519901083D990108299901080000000055
S315080040C000000000000000000000000000000000E2
S315080040D000000000A5F50108BDF50108D5F50108A1
S315080040E0000000000000000051F601080000000072
S315080040F01599010801990108F198010800000000C6
S315080041000000000005F6010800000000000000009D
S315080041100000000000000000000000000000000091
S3150800412000000000000000000000000009F6010879
S315080041300000000049E1010800000000851202089D
S315080041403D12020861120208A912020881F6010846
S31508004150000000000000000000000000EDF5010866
S315080041600000000000000000000000000000000041
S315080041700000000000000000000000000000000031
S311080041800000000000000000EE11AA5527
S3150800C000000000000000803F0000803F0000803FE5
S3150800C01000000040000000000000C03F0000F040A3
S3150800C0200000284100004841CDCC4CBE000080BF2E
S3150800C030000048C1000028C10000424200004642F4
S3150800C04000004A4200004E42000000000000204165
S3150800C0500000A0410000F041000057430000614382
S3150800C06000006B43000075430000803F000000009D
S3150800C0700000000000000000000000000000803FF3
S3150800C0800000803F0000803F0000803F0000803FA6
S3150800C0900000000000000000000000000000803FD3
S3150800C0A00000803F000000000000803F0000803F45
S3150800C0B00000803F00000000000000000000008033
S3150800C0C0000100000101000001000101000000005C
S3150800C0D00102030405060700000000000000F03F07
S3150800C0E00000000000000000000000000000000042
S3150800C0F0000000000000F03F000000000000F03FD4
S3150800C1000000000000000000000000000000000021
S3150800C110000000000000F03F0100000101000001DE
S3150800C120000000000000F03F0000000000000000D2
S3150800C1300000000000000000000000000000F03FC2
S3150800C140000000000000F03F0000000000000000B2
S3150800C1500000000000000000000000000000F03FA2
S3150800C160000000000000F03F000000000000000092
S3150800C1700000000000000000000000000000F03F82
S3150800C180000000000000F03F000000000000000072
S3150800C1900000000000000000000000000000F03F62
S3150800C1A00A0A0A004368617267655F315F56315F44
S3150800C1B06578706572696D656E745F736F6674779E
S3150800C1C061726549445F76315F3033303631395FA5
S3150800C1D031373232303900004170704374726C5412
S3150800C1E061736B002000000000140240080009007B
S3150800C1F0200000000014024010000E00200000007D
S3150800C2000014024020000F00200000000014024025
S3150800C21040000400200000000014024080000500D1
S3150800C2202000000000140240000106002000000063
S3150800C230001402400002070020000000001402401B
S3150800C24000040800040000000008024001000A007B
S3150800C250040000000008024004000C004144436347
S3150800C2606F6E76657273696F6E5461736B0000004A
S3150800C2702E2E2F626C6F636B7365742F7274772F13
S3150800C28053544D33322F7372632F686561705F3470
S3150800C2902E630000546D724370754C6F6164000024
S3150800C2A02E2E2F626C6F636B7365742F7274772FE3
S3150800C2B053544D33322F7372632F7461736B732E1D
S3150800C2C06300000049444C45000000002E2E2F62F2
S3150800C2D06C6F636B7365742F7274772F53544D3379
S3150800C2E0322F7372632F74696D6572732E63000043
S3150800C2F0546D7220537663002E2E2F626C6F636B1B
S3150800C3007365742F7274772F53544D33322F7372AB
S3150800C310632F53544D33325F453430372F6D616385
S3150800C3202E6300004D61634E65745461736B0000A3
S3150800C330457643686E6C3100457643686E6C32000C
S3150800C340457643686E6C33002E2E2F626C6F636BD6
S3150800C3507365742F7274772F53544D33322F73725B
S3150800C360632F53544D33325F453430372F706F7215
S3150800C370742E630000000140010000000201000065
S3150800C3801000000000100240000209001000000022
S3150800C3900010024000080B000004004002000000E4
S3150800C3A001020000010000000000024040000600F3
S3150800C3B002000000000402402000050000080040BA
S3150800C3C0040000000102000008000000000C024002
S3150800C3D000100C0008000000000C024000200D00B0
S3150800C3E000040140020000000203000004000000EF
S3150800C3F00008024040000600040000000008024051
S3150800C400800007005443502F4950000004000600DE
S3150800C4100A0005000C0002000400080008000A00D3
S3150800C42032000A001C0020009400200014001000AE
S3150800C43030001400140010001000040670F20020EA
S3150800C44078F2002068F200207CF200200102030442
S3150800C45005060707070707070700000003060C1865
S3150800C46030607800FFFFFFFF00000000FFFFFFFFBE
S3150800C470FFFF00000000000000000000455F6C6937
S3150800C4806E6B000010000000001002400001000062
S3150800C490010008001000000000100240000400011E
S3150800C4A001000A00100000000010024000100002FF
S3150800C4B001000C00100000000010024000020000FD
S3150800C4C001000900100000000010024000080001E9
S3150800C4D001000B00100000000010024000200002BE
S3150800C4E001000D001000000000100240004000038B
S3150800C4F001000E00010000000000024020000100BB
S3150800C5000100050001000000000002404000020092
S3150800C510020006000200000000040240200002019A
S3150800C5200200050008000000000C0240001003008D
S3150800C53002000C0008000000000C02400020030165
S3150800C54002000D000400000000080240400004003C
S3150800C55003000600040000000008024080000401F1
S3150800C560030007001000000000100240200005002C
S3150800C57003000500100000000010024040000501FD
S3150800C58003000600200000000014024040000600D8
S3150800C5900300060020000000001402408000070087
S3150800C5A003000700200000000014024000010800F4
S3150800C5B009000800200000000014024000020900DB
S3150800C5C009000900000001400100000002011900ED
S3150800C5D0000000400100000001021C0000040040A9
S3150800C5E00200000001021D000008004004000000CF
S3150800C5F001021E00000401400200000002012C0096
S3150800C60000400140000001000201180000440140FA
S3150800C6100000020002011900004801400000040061
S3150800C62002011A00001C00408000000001022C00D4
S3150800C630002000400001000001022D000400000057
S3150800C640000802400100000020000000001402401B
S3150800C6504000000020000000001402408000000096
S3150800C6602000000000140240000100002000000025
S3150800C67000140240000200002000000000140240DE
S3150800C68000040000020000000004024080000000D0
S3150800C69002000000000402404000000010000000F4
S3150800C6A000100240040000001000000000100240C4
S3150800C6B010000000100000000010024020000000DA
S3150800C6C0100000000010024040000000400000007A
S3150800C6D000180240800000004000000000180240D8
S3150800C6E00001000040000000001802400010000091
S3150800C6F04000000000180240008000000100000011
S3150800C7000000024010000000020000000004024081
S3150800C7102000000001000000000002404000000068
S3150800C7200100000000000240200000000800000090
S3150800C730000C02400100000008000000000C024046
S3150800C7400200000008000000000C0240040000007F
S3150800C75008000000000C0240080000000800000065
S3150800C760000C02401000000008000000000C024007
S3150800C7702000000008000000000C024040000000F5
S3150800C78008000000000C02408000000008000000BD
S3150800C790000C02400001000008000000000C0240E6
S3150800C7A00002000008000000000C0240000400001F
S3150800C7B008000000000C0240000800000800000005
S3150800C7C0000C02400010000008000000000C0240A7
S3150800C7D00020000008000000000C02400040000095
S3150800C7E008000000000C0240008000001000000055
S3150800C7F00010024001000000100000000010024076
S3150800C80002000000100000000010024008000000AE
S3150800C8101000000000100240800000001000000018
S3150800C8200010024000010000100000000010024045
S3150800C8300002000010000000001002400004000082
S3150800C8401000000000100240000800001000000060
S3150800C8500010024000100000100000000010024006
S3150800C86000200000100000000010024000400000F8
S3150800C87010000000001002400080000020000000A8
S3150800C88000140240010000002000000000140240CD
S3150800C890020000002000000000140240040000000E
S3150800C8A020000000001402400800000020000000DC
S3150800C8B0001402401000000020000000001402408E
S3150800C8C020000000200000000014024000080000BC
S3150800C8D020000000001402400010000020000000A4
S3150800C8E0001402400020000020000000001402404E
S3150800C8F000400000200000000014024000800000F4
S3150800C900400000000018024001000000400000003E
S3150800C9100018024002000000400000000018024013
S3150800C9200400000040000000001802400800000053
S3150800C93040000000001802401000000040000000FF
S3150800C94000180240200000004000000000180240C5
S3150800C95040000000400000000018024000020000ED
S3150800C96040000000001802400004000040000000DB
S3150800C97000180240000800004000000000180240AD
S3150800C980002000004000000000180240004000009F
S3150800C9900100000000000240010000000400000041
S3150800C9A000080240010000002000000000140240B8
S3150800C9B04000000020000000001402408000000033
S3150800C9C020000000001402400001000020000000C2
S3150800C9D0001402400002000020000000001402407B
S3150800C9E0000400000200000000040240800000006D
S3150800C9F00200000000040240400000001000000091
S3150800CA000010024004000000100000000010024060
S3150800CA101000000010000000001002402000000076
S3150800CA201000000000100240400000004000000016
S3150800CA300018024080000000400000000018024074
S3150800CA40000100004000000000180240001000002D
S3150800CA5040000000001802400080000001000000AD
S3150800CA60000002401000000002000000000402401E
S3150800CA702000000001000000000002404000000005
S3150800CA80010000000000024020000000080000002D
S3150800CA90000C02400100000008000000000C0240E3
S3150800CAA00200000008000000000C0240040000001C
S3150800CAB008000000000C0240080000000800000002
S3150800CAC0000C02401000000008000000000C0240A4
S3150800CAD02000000008000000000C02404000000092
S3150800CAE008000000000C024080000000080000005A
S3150800CAF0000C02400001000008000000000C024083
S3150800CB000002000008000000000C024000040000BB
S3150800CB1008000000000C02400008000008000000A1
S3150800CB20000C02400010000008000000000C024043
S3150800CB300020000008000000000C02400040000031
S3150800CB4008000000000C02400080000010000000F1
S3150800CB500010024001000000100000000010024012
S3150800CB60020000001000000000100240080000004B
S3150800CB7010000000001002408000000010000000B5
S3150800CB8000100240000100001000000000100240E2
S3150800CB90000200001000000000100240000400001F
S3150800CBA010000000001002400008000010000000FD
S3150800CBB000100240001000001000000000100240A3
S3150800CBC00020000010000000001002400040000095
S3150800CBD01000000000100240008000002000000045
S3150800CBE0001402400100000020000000001402406A
S3150800CBF002000000200000000014024004000000AB
S3150800CC002000000000140240080000002000000078
S3150800CC10001402401000000020000000001402402A
S3150800CC202000000020000000001402400008000058
S3150800CC302000000000140240001000002000000040
S3150800CC4000140240002000002000000000140240EA
S3150800CC500040000020000000001402400080000090
S3150800CC6040000000001802400100000040000000DB
S3150800CC7000180240020000004000000000180240B0
S3150800CC8004000000400000000018024008000000F0
S3150800CC90400000000018024010000000400000009C
S3150800CCA00018024020000000400000000018024062
S3150800CCB0400000004000000000180240000200008A
S3150800CCC04000000000180240000400004000000078
S3150800CCD0001802400008000040000000001802404A
S3150800CCE0002000004000000000180240004000003C
S3150800CCF004000000000802400020000010000000A8
S3150800CD0000100240000200000200020001000900B3
S3150800CD101000000000100240000800010400200076
S3150800CD2001000B0010000000001002400020000265
S3150800CD300800000201000D0010000000001002406B
S3150800CD40004000031000002001000E000100000052
S3150800CD500000024020000100020002000100050058
S3150800CD60010000000000024040000200020002002C
S3150800CD700200060002000000000402402000020132
S3150800CD80040020000200050008000000000C024014
S3150800CD90001003000200020002000C000800000058
S3150800CDA0000C0240002003010400200002000D00D0
S3150800CDB004000000000802404000040002000200CF
S3150800CDC00300060004000000000802408000040179
S3150800CDD004002000030007001000000000100240B5
S3150800CDE020000500020002000300050010000000F4
S3150800CDF00010024040000501040020000300060060
S3150800CE002000000000140240400006000200020054
S3150800CE1003000600200000000014024080000700FE
S3150800CE200200020003000700200000000014024070
S3150800CE3000010800020002000900080020000000A6
S3150800CE40001402400002090002000200090009005D
S3150800CE50000001400100000002011B000000004024
S3150800CE600100000001021C0000040040020000004E
S3150800CE7001021D00000800400400000001021E0017
S3150800CE80000401400200000002012E00004001409B
S3150800CE9000000100020118000044014000000200E1
S3150800CEA002011900004801400000040002011A00AE
S3150800CEB0001C00408000000001022C0000200040F9
S3150800CEC00001000001022D000010014010000000C2
S3150800CED0022500000200000000040240400006008F
S3150800CEE0020000000004024080000700070000005E
S3150800CEF0004400400000020001260000080000006F
S3150800CF00000C02402000050008000000000C02404A
S3150800CF10400006000700000000480040000004002A
S3150800CF200127000008000000000C0240000108006C
S3150800CF3008000000000C024000020900070000007B
S3150800CF400014014020000000024700000400000011
S3150800CF5000080240400006000400000000080240E5
S3150800CF6080000700080000001000000000100240C2
S3150800CF700002000002000200010009001000000083
S3150800CF8000100240000800010400200001000B0008
S3150800CF9010000000001002400020000208000002F5
S3150800CFA001000D00100000000010024000400003C0
S3150800CFB01000002001000E000100000000000240E1
S3150800CFC02000010002000200010005000100000027
S3150800CFD000000240400002000200020002000600B3
S3150800CFE002000000000402402000020104002000A4
S3150800CFF00200050008000000000C024000100300B3
S3150800D0000200020002000C0008000000000C0240AA
S3150800D010002003010400200002000D0004000000A7
S3150800D0200008024040000400020002000300060057
S3150800D03004000000000802408000040104002000EB
S3150800D0400300070010000000001002402000050041
S3150800D0500200020003000500100000000010024054
S3150800D060400005010400200003000600200000001F
S3150800D07000140240400006000200020003000600F9
S3150800D0802000000000140240800007000200020091
S3150800D09003000700200000000014024000010800F9
S3150800D0A002000200090008002000000000140240E7
S3150800D0B00002090002000200090009000000014000
S3150800D0C00100000002011B000000004001000000F2
S3150800D0D001021C00000400400200000001021D00BD
S3150800D0E0000800400400000001021E000004014080
S3150800D0F00200000002012E0000400140000001006D
S3150800D1000201180000440140000002000201190053
S3150800D110004801400000040002011A00001C0040FB
S3150800D1208000000001022C000020004000010000E1
S3150800D13001022D002E2E2F626C6F636B7365742FA0
S3150800D1407274772F53544D33322F7372632F717560
S3150800D1506575652E6300000050505000457643689B
S3150800D1606E6C3100457643686E6C320045764368CE
S3150800D1706E6C3300070707005CD1000864D100080D
S3150800D1806CD100080404040000640040000000029A
S3150800D19008000000000C0240010000000800000022
S3150800D1A0000C0240020001000913141516000000C5
S3150800D1B0006800400000000402000000000402406D
S3150800D1C0200005000200000000040240400006009E
S3150800D1D0093F4041420000002E2E2F626C6F636BA0
S3150800D1E07365742F7274772F53544D33322F7372BD
S3150800D1F0632F53544D33325F453430372F63616E96
S3150800D2002E63000043616E4576656E745461736BD8
S3150800D2100000000043616E5472616E736D69745448
S3150800D22061736B004574685F69660000706F77000C
S3150800D230000000000000304300000000000030C37A
S315080100000B78FF2B00D070474B78002BFBD107F0FC
S31508010010F5BB00BF08B5012006F0FEFC034A40F215
S3150801002067610020BDE8084008F09EBB0100010891
S31508010030002000F04DBA00BF704700BF2DE9F84F08
S31508010040DDF82CB00C9D0A9E2F7A044690469946F7
S31508010050DBE900010022002317F0BAF800283DD099
S31508010060A7422CBF4FF0000A4FF0010A86F801A0FB
S3150801007000220023DBE9020117F0AAF820B1A74202
S3150801008094BF00270127B770BAF1000F01D1B378E1
S315080100900BB340464946DDE90E2316F055FC80466A
S315080100A089467CB90F9F0E9A07F100434FF0010765
S315080100B017F08EF868B1FBB233702C72C5E9008966
S315080100C0BDE8F88F012333702C72C5E90089BDE8B4
S315080100D0F88F2746EFE7D5E90089DAE796F801A010
S315080100E0C6E700BF2DE9F84FDDF82CB00C9D0A9E36
S315080100F02F7A044690469946DBE90001002200233F
S3150801010017F066F800283DD0A7422CBF4FF0000A29
S315080101104FF0010A86F801A000220023DBE902015B
S3150801012017F056F820B1A74294BF00270127B770E8
S31508010130BAF1000F01D1B3780BB340464946DDE960
S315080101400E2316F001FC804689467CB10F9F0E9A54
S3150801015007F1004317F028F84FF0010368B1DBB245
S3150801016033702C72C5E90089BDE8F88F23463370D0
S315080101702C72C5E90089BDE8F88F0346EFE7D5E992
S315080101800089DAE796F801A0C6E700BF704700BF05
S3150801019091ED007A07EE900AB4EEE77AF1EE10FADD
S315080101A030B43FDA98000C1894ED007AF4EEC77A69
S315080101B0F1EE10FA24D5012B4FEA530037D9002462
S315080101C001EB800595ED007AF4EEC77AF1EE10FAA7
S315080101D054BF044603461D1B1819012D4FEA50004A
S315080101E0EED8A400231D08191944D0ED006A91ED33
S315080101F0007A77EEE67A37EE667AC7EE876A03E023
S315080102000346041FF7EE006A1444134494ED007A7A
S31508010210D3ED007A77EEC77A30BCA6EEA77A17EE49
S31508010220100A7047DFED036A00240423ECE7042370
S315080102300024D8E70000000091ED007A07EE900A45
S31508010240B4EEE77AF1EE10FA30B445DA98000C18F4
S3150801025094ED007AF4EEC77AF1EE10FA24D5012B63
S315080102604FEA530043D9002401EB800595ED007A46
S31508010270F4EEC77AF1EE10FA54BF044603461D1B85
S315080102801819012D4FEA5000EED8A400231D0819AC
S315080102901944D0ED006A91ED007A77EEE67A37EEE9
S315080102A0667AC7EE876A09E054ED016A77EEE67A5F
S315080102B037EE667A0346C7EE876A041F1444134469
S315080102C094ED007AD3ED007A77EEC77A30BCA6EEC4
S315080102D0A77A17EE100A7047D1ED016A77EEC77A49
S315080102E036EEC77A0024C7EE876A0423E6E70423B5
S315080102F00024CCE770B491F90040844240DACC5628
S31508010300844223DD012B4FEA53043ED900250E57BB
S315080103108642D4BF254623465E1B5C19012E4FEA49
S315080103205404F4D86E1CB3001C1F4D5D895D401B37
S31508010330C0B207EE900A491BC9B2B8EE677A07EE52
S31508010340901AF8EE676A87EE266A03E09B001C1F7F
S31508010350B7EE006A1444134494ED007AD3ED007A9B
S3150801036077EEC77ABDEEC77A67EE867A17EE100A78
S31508010370FDEEE77A70BC17EE903A034458B270471F
S315080103809FED046A00240423E4E700242546042398
S315080103900126CAE7000000002DE9F04F85B0029357
S315080103A00F9B0191002B039208DD0E9B0F990022EA
S315080103B003EB810143F8042B8B42FBD1019B002BF4
S315080103C055DDDDF838A0A0F1040E4FF000090F9BAA
S315080103D05EF8046FC9EB0308029B9845A8BF9846C7
S315080103E0B8F1000F4FEA1647B6B243DD039B5446F0
S315080103F01D4603EB880C002255F8043B206880183B
S315080104009AB22CBF4FF0010B4FF0000B02FB07F11C
S315080104101B0C0BEB114B02FB06F203FB07BB03FBA1
S3150801042006F3104409040BEB134B824288BF0BF108
S31508010430010B1B040844814294BF59460BF1010183
S315080104401844834294BF0A464A1CAC4544F8040B37
S31508010450D2D1C8440F9B4345C4BF0E9B43F82820FD
S31508010460019B09F101094B450AF1040AAFD105B00F
S31508010470BDE8F08FC8460022ECE700BF2DE9F84336
S315080104800F1E1EDD14464FF000084FF00009061F27
S31508010490002556F8040F16F095FB224615F060F96B
S315080104A002460B464046494616F050FA0135AF4218
S315080104B08046894604F12004EBD140464946BDE809
S315080104C0F8834FF000084FF00009F6E70000000036
S315080104D02DE9F04FDFF870932DED0A8BD9F804302A
S315080104E0C1B0002B03F07D8204200EF05FFBC94CDE
S315080104F0C94B1870B4F89C310B93002103201D4693
S3150801050006F018FF07EE900AC44B9FEDC56A1880DE
S31508010510F8EE677AB5F5FA7F27EE866A04F0328334
S3150801052094ED598AD4ED5A7A9FEDBE9A9FEDBE7A1B
S31508010530B4EE486AF1EE10FAC8BFB0EE468A78EE14
S31508010540277AF6EE006AA7EEA69A29EE079AB5EE7D
S31508010550C09AF1EE10FA02F1C782B44BB44A0C9371
S315080105601D4602F11401042319EE100AFFF710FEC5
S3150801057007EE900A77EE897AC5ED007AD4ED5CAA82
S31508010580DFEDAC7ADFEDA89AB4EEEA6AF1EE10FA7D
S31508010590B8BFF0EE46AA7AEEE77A67EEA99AF5EEC3
S315080105A0C09AF1EE10FA01DBD4ED5D9AA24ADFF8A2
S315080105B06482012302F1080119EE900AFFF7E8FDAA
S315080105C0B4F89E310A9307EE900A672B79EEA77A5B
S315080105D09A4B08BF0127C3ED007A18BF002704F01C
S315080105E009830A9A964D85F8A370642A0CBF0127D8
S315080105F00027934B04F0AE82924BDFF850B293F882
S3150801060000A085F8AE70BAF1010F0CBF9BF89E30B9
S3150801061094F8AC318BF81830D9F808301BB99BF827
S3150801062018607600F6B2682A0CBF0127002704F085
S315080106308482BAF1010F0CBF9BF89D2094F8AD2175
S3150801064085F8A2708BF81920002B03F0E881B4F81D
S315080106509E31692B0CBF0126002604F0B180BAF140
S31508010660010F0CBF9BF89C3094F8AE318BF81A3009
S31508010670D9F8083085F8A160002B03F0A281B4F8F7
S315080106809E316A2B0CBF0126002604F07082BAF14E
S31508010690010FD9F808800CBF9BF89B3094F8AF314D
S315080106A085F8A0608BF81B30B8F1000F03F0348190
S315080106B0B4F89E21574F6B2A0CBF0126002604F079
S315080106C02F82BAF1010F0CBF9BF89A3094F8B0311A
S315080106D08BF81C30D9F8083085F89F6023B99BF848
S315080106E01C004000C1B206916C2A0CBF01260026E7
S315080106F004F00982BAF1010F0CBF9BF8992094F80E
S31508010700B12185F89E608BF81D20002B03F0DC8053
S31508010710B4F89E316D2B0CBF0126002604F0E88142
S31508010720BAF1010F0CBF9BF8983094F8B2318BF8E7
S315080107301E30D9F8083085F89D60002B03F09C809F
S31508010740B4F89E316E2B0CBF0126002604F0688092
S31508010750BAF1010FD9F808800CBF9BF8A73094F8B5
S31508010760B33185F8AC608BF81F30B8F1000F03F090
S315080107705982B4F89E21274F6F2A0CBF01260026FD
S3150801078004F04180BAF1010F0CBF9BF8A63094F82A
S31508010790B4318BF82030D9F8083085F8AB6023B925
S315080107A09BF820004000C1B20D91702A0CBF0126AA
S315080107B0002604F01B80BAF1010F0CBF9BF8A52097
S315080107C094F8B52185F8AA608BF82120002B03F04F
S315080107D0ED81B4F89E31712B0CBF0126002603F07A
S315080107E0E487BAF1010F0CBF9BF8A43094F8B6312F
S315080107F08BF82230D9F8083085F8A960002B03F068
S31508010800C581B4F89E31722B0CBF0126002603F070
S31508010810C1871DE068C500201ECA002034C5002016
S315080108203333533A45CBDCBF0D650E4140CA002030
S3150801083000C0000845CBDC3F28C00008FCC70020E3
S3150801084034C80020F9C700204CC500202CC9002057
S31508010850BAF1010FD9F808800CBF9BF8A33094F8B8
S31508010860B73185F8A8608BF82330B8F1000F03F08B
S315080108703581B4F89E31CC4F40F22F1293420CBF0A
S315080108800126002604F0E880B3F5967F85F8B56061
S31508010890C64A0CBF0126002604F0F880C44A85F82A
S315080108A0C06092F800A0BAF1020F0CBF9BF8AF2006
S315080108B094F8B8218BF82420D9F8082022B99BF896
S315080108C024004000C1B21091B3F5987F0CBF0126F0
S315080108D0002604F0CE80BAF1020F0CBF9BF8AE30A9
S315080108E094F8B93185F8B4608BF82530002A03F0FD
S315080108F0CD80B4F89E2140F231139A420CBF0126ED
S31508010900002604F09E80BAF1020F0CBF9BF8AD30A9
S3150801091094F8BA318BF82630D9F8083085F8B360DF
S31508010920002B03F0A380B4F89E31B3F5997F0CBF71
S315080109300126002603F04F87BAF1020FD9F808807D
S315080109400CBF9BF8AC3094F8BB3185F8B2608BF8D4
S315080109502730B8F1000F02F03E87B4F89E21924F76
S3150801096040F233139A420CBF0126002604F0B380E5
S31508010970BAF1020F0CBF9BF8AB3094F8BC318BF877
S315080109802830D9F8083085F8B16023B99BF82800D2
S315080109904000C1B20E91B2F59A7F0CBF012600261E
S315080109A004F08C80BAF1020F0CBF9BF8AA2094F8C8
S315080109B0BD2185F8B0608BF82920002B02F0E3866B
S315080109C0B4F89E2140F235139A420CBF012600263F
S315080109D004F06980BAF1020F0CBF9BF8A93094F8AC
S315080109E0BE318BF82A30D9F8083085F8AF60002B6C
S315080109F002F0B986B4F89E31B3F59B7F0CBF012688
S31508010A00002604F01380BAF1020FD9F808800CBF4A
S31508010A109BF8B83094F8BF3185F8BE608BF82B3057
S31508010A20B8F1000F02F04E86B4F89E215E4F40F2EF
S31508010A3037139A420CBF0126002604F0CE80BAF17C
S31508010A40020F0CBF9BF8B73094F8C0318BF82C30E5
S31508010A50D9F8083085F8BD6023B99BF82C00400009
S31508010A60C1B21191B2F59C7F0CBF0126002603F095
S31508010A70D087BAF1020F0CBF9BF8B62094F8C121B2
S31508010A8085F8BC608BF82D20002B02F0F385B4F8AD
S31508010A909E2140F239139A420CBF0126002603F023
S31508010AA0AD87BAF1020F0CBF9BF8B53094F8C23185
S31508010AB08BF82E30D9F8083085F8BB60002B02F088
S31508010AC0C985B4F89E31B3F59D7F0CBF0126002672
S31508010AD003F05487BAF1020FD9F808800CBF9BF8C6
S31508010AE0B43094F8C33185F8BA608BF82F30B8F171
S31508010AF0000F02F01785D9F80430002B4BD1149B4F
S31508010B00002B02F00D809BF84D30002B02F0088077
S31508010B1000202849B4F8A631234E41F6FE729342C5
S31508010B209CBF0133A6F8A63194F894311E4A5E0794
S31508010B3004F1F983012643F0040366F3010382F8FD
S31508010B40943116F065FB1C4BCBF8100007EE900AA2
S31508010B501E709FED1A7AF4EEC77AF1EE10FA44F395
S31508010B60C084174B83ED007A164A174BD2ED008ADB
S31508010B70F1EE047AF4EEE78AF1EE10FAC3ED008A93
S31508010B8004F3AC83F7EE007AF4EE678AF1EE10FA15
S31508010B9048BFF0EE678A94F8C4310D93032B024FD0
S31508010BA00CBF0126002611E068C5002034C80020C4
S31508010BB0F5C80020000030401CCA00200000004291
S31508010BC00CCA00201800002020C8002003F0D68592
S31508010BD00D9B6E70012B0CBF01260026C34A03F03C
S31508010BE0C185022BEE70C14A0CBF0126002603F00F
S31508010BF0AD85BF4AAE70042B0CBF0126002692F8BC
S31508010C0000A0BA4B03F09885BA4B2E701B78FE2BC1
S31508010C1003F0808594F8C5311093BAF1010FB64BEC
S31508010C2003F06E811A461193D4F878311360D9F816
S31508010C301470002F03F01181D9F8083033BBBBF8C3
S31508010C404E30AE4A23B992F85030002B04F0A583F2
S31508010C50AB4B93ED007AF3EE027AB4EEE77A00260F
S31508010C60F1EE10FA8BF8556044F3A583A54A94F87A
S31508010C70EA31DFF8B882134493F8C4301D93184655
S31508010C8015F0A0FFC8E900018BF85660D9F80430C1
S31508010C9053B9149B002B04F0C7839BF856009A4E50
S31508010CA015F090FFC6E90001002F03F0C180B4F8E2
S31508010CB09E31964F40F2C32293420CBF012600266D
S31508010CC003F00185B3F52F7F85F84060874A0CBF8D
S31508010CD00126002603F011858D4A85F84F601278A2
S31508010CE00692012A0CBF9BF8822094F8C8218BF83A
S31508010CF03020D9F8082022B99BF830004000C1B24B
S31508010D001291B3F5317F0CBF0126002603F0E88462
S31508010D10069B85F83F60012B0CBF9BF8813094F840
S31508010D20C9318BF83130002A03F05A80B4F89E2174
S31508010D3040F2C5239A420CBF0126002603F0B88467
S31508010D40069B85F83E60012B0CBF9BF8803094F812
S31508010D50CA318BF83230D9F80830002B03F03080CD
S31508010D60B4F89E2140F2C6239A420CBF01260026FA
S31508010D7003F09384069BD9F8088085F84D60012B0A
S31508010D800CBF9BF88E3094F8CB318BF83330B8F121
S31508010D90000F02F0C087B4F89E215C4F40F2C723CA
S31508010DA09A420CBF0126002603F06A84069B85F841
S31508010DB04C60012B0CBF9BF88D3094F8CC318BF825
S31508010DC03430D9F8083023B99BF834004000C1B251
S31508010DD01891B2F5327F0CBF0126002603F02B8548
S31508010DE0069A85F84B60012A0CBF9BF88C2094F86B
S31508010DF0CD218BF83520002B02F06587B4F89E21AA
S31508010E0040F2C9239A420CBF0126002604F07A80D3
S31508010E10069B85F84A60012B0CBF9BF88B3094F82A
S31508010E20CE318BF83630D9F80830002B02F0CA8259
S31508010E30B4F89E2140F2CA239A420CBF0126002625
S31508010E4004F03680069BD9F8088085F84960012B9D
S31508010E500CBF9BF88A3094F8CF318BF83730B8F14C
S31508010E60000F02F04B82D9F810602A4B002E41F090
S31508010E706B8694F9A8215968A2F10403B3FA83F39E
S31508010E805B098BF85730002901F0628694F8E9313D
S31508010E901E4A022B02D8013382F8E93194F89931B6
S31508010EA01A4A03F0020000F0FF01002844F02882E4
S31508010EB092F89801184E194F43F0020382F89931B6
S31508010EC0012363F3071082F89801154A33704FF02E
S31508010ED07E501E4639701060124A134F02F168019E
S31508010EE006233046FFF706FA22E000BF34C8002081
S31508010EF020C90020EBC700200CC900202CC90020FE
S31508010F0064C5002000C0000838C5002068C5002057
S31508010F10F8C700204CC5002024C8002018C90020A5
S31508010F2030C5002068C0000844CA0020F0C7002068
S31508010F30CB4A804602F14C010623304687F80080E9
S31508010F40FFF7D8F9C74ADFF888E3074602F1300107
S31508010F50062330468EF80070FFF7CCF918F1000821
S31508010F6018BF4FF00108003718BF0127BE4A8BF892
S31508010F705880031C18BF01238BF8597010708BF821
S31508010F805A30BA4B1B78002B41F05C869BF85810F7
S31508010F909BF859209BF85A30003118BF01210032BD
S31508010FA018BF01228BF85C200033D9F810208BF882
S31508010FB05B1018BF01238BF85D30AD49002A41F05B
S31508010FC04E86AC4B9FEDAC7AD3ED007AAB4BAC4E6B
S31508010FD01F780B9B96F84020F0EEE77A67EE877A42
S31508010FE001339BB2FCEEE77A1846B0F57A7F17EE25
S31508010FF0903A88BF00200B908B82002A44F08585A1
S3150801100096F84130002B44F070859BF8CA30984A0F
S31508011010002B44F0858192F8CD70003718BF01275F
S31508011020984B18931A4696F842301770002B44F0DD
S315080110304C8596F84330002B44F03785DBF8D030E1
S31508011040914A23F47F0323F47F43003318BF012316
S315080110501370D9F80C70002F43D1894E94F8E481A6
S31508011060D6E900010022002316F0B2F808B18BF880
S31508011070D87000220023D6E9020116F0A9F830B18A
S3150801108018F1000818BF4FF001088BF8D980BBF892
S31508011090D8E0DFF8DC8194F8E5711EF1000E18BF7F
S315080110A04FF0010E00220023D6E904018BF85EE019
S315080110B016F08EF810B1002388F8D63000220023E6
S315080110C0D6E9060116F084F820B1003718BF0127C2
S315080110D08BF8D770BBF8D630003318BF01238BF8CD
S315080110E05F30B4F8A0310E93002108201F4606F0A0
S315080110F021F907EE900A654B9FED656A654E1880E2
S31508011100F8EE677AB7F5FA7F27EE866A03F08085E7
S3150801111096ED5F7AD4ED606ADFED5F8A5F4B0C93DB
S31508011120B4EEC76AF1EE10FAD4BFF0EE477AF0EEE4
S31508011130467A77EEA67AF6EE006AE7EEA68AD8BF71
S3150801114083ED007A9FED567AC8BF83ED006A68EE93
S31508011150878AF5EEC08AF1EE10FA04F1A380514BA5
S31508011160514A16931E4602F11401042318EE900AF9
S31508011170FFF70EF807EE900A78EEA77AC6ED007A21
S3150801118094ED62BADFED497A9FED45AAB4EECB6AD2
S31508011190F1EE10FAB8BFB0EE46BA7BEE677A27EEE3
S315080111A08AAAB5EEC0AAF1EE10FA01DB94ED63AA9C
S315080111B03F4A012302F108011AEE100AFEF7E8FF79
S315080111C007EE900A3B4BD9F804207AEE277AC3ED4D
S315080111D0007A6AB9384BD3ED007AB1EE047AF4EEA7
S315080111E0C77AF1EE10FA44F37D80344B83ED007A29
S315080111F0BAF1020F324B03F03A8519461293D4F825
S3150801120090310B60D9F81430002B7ED12D49DBEDD6
S31508011210007A91ED007A2C49D1ED006AF4EEC77A8D
S31508011220F1EE10FAF4EEE67ACCBF01210021F1EED7
S3150801123010FA8BF8601006DBF4EEC77AF1EE10FAB5
S3150801124094BF0123002321498BF8613091ED007A7F
S31508011250F4EEC77AF1EE10FAC4F288803AE000BFDC
S3150801126084C00008A0C000081CC800201ECA0020AF
S315080112702CC9002030C5002000C07F4418C90020B1
S31508011280D8C0000800C90020E9C70020F6C8002018
S315080112903333533A68C5002045CBDCBF24C500204B
S315080112A00D650E4120C5002000C0000845CBDC3F76
S315080112B028C0000810C9002020C8002008CA00203C
S315080112C02CC800202C000020300000202800002017
S315080112D038CA0020F4EEE67AF1EE10FA4CBF012185
S315080112E00021C74B8BF86210D3ED006AF4EEE67A5B
S315080112F0F1EE10FAC4F23780F4EEC77AF1EE10FA7D
S315080113004CBF012300238BF86330D9F80860E6B98E
S31508011310BC499BF84C3091ED007AF3EE027AB3FAA8
S3150801132083F3B4EEE77A5B09F1EE10FA8BF86430D1
S3150801133008DCB54B93ED007AB4EEE77AF1EE10FAD4
S3150801134044F3668101238BF865300ABB9BF8653047
S31508011350AE4994F8EB21AE4F002B14BF04230223A8
S315080113600B44134493F8C0302093184615F02AFC11
S31508011370A84BC3E90001149BCDE91E0143B197F8B7
S315080113805530002B44F032819FED9B7B8DED1E7B02
S315080113900A9A40F28B339A4203F0E0820A999E4AEE
S315080113A00023B1F5617F85F82E3003F0C9829B4A87
S315080113B085F83D3092F800A0BAF1020F0CBF9BF8F0
S315080113C0713094F8D0318BF8383026B99BF838004B
S315080113D04000C3B224930A9BB3F5637F0CBF012770
S315080113E0002703F0A082BAF1020F0CBF9BF87030F8
S315080113F094F8D13185F82D708BF83930002E02F02A
S3150801140056800A9A40F28D339A420CBF012600266D
S3150801141003F07E82BAF1020F0CBF9BF86F3094F885
S31508011420D2318BF83A30D9F8083085F82C60002B80
S3150801143002F02D800A9A40F28E339A420CBF012699
S31508011440002603F06A85BAF1020FD9F808800CBFA5
S315080114509BF87E3094F8D33185F83B608BF83B30A6
S31508011460B8F1000F01F0BE870A9A40F28F339A420B
S315080114700CBF0126002603F06885BAF1020F0CBFDE
S315080114809BF87D3094F8D4318BF83C30D9F8083084
S3150801149085F83A6023B99BF83C004000C2B228920D
S315080114A00A9AB2F5647F0CBF0126002603F040852F
S315080114B0BAF1020F0CBF9BF87C2094F8D52185F868
S315080114C039608BF83D20002B01F0F0860A9A40F22C
S315080114D091339A420CBF0126002603F0DE84BAF145
S315080114E0020F0CBF9BF87B3094F8D6318BF83E304F
S315080114F0D9F8083085F83860002B01F0C7860A9AB2
S3150801150040F292339A420CBF0126002603F0BA84B0
S31508011510BAF1020FD9F808800CBF9BF87A3094F813
S31508011520D73185F837608BF83F30B8F1000F01F0F5
S315080115306B84D9F810603A4B002E41F0B58394F9C3
S31508011540A9815B68A8F10408B8FA88F84FEA58181F
S315080115508BF86680002B01F0AD8394F8E831314AA7
S31508011560022B02D8013382F8E83194F899312D4AD1
S3150801157013F0010143F0008792F898012A4E2B4F88
S3150801158043F0010382F89931012363F3030082F8DA
S315080115909801274A33704FF07E501E463970106005
S315080115A0244A062302F168013046FEF7A3FE224AC1
S315080115B0071C18BF012702F14C01062330468BF898
S315080115C06770FEF797FE1D4A071C18BF012702F12F
S315080115D03001304606238BF86870FEF78BFE003023
S315080115E018BF01208BF86900154B1B78002B41F0B9
S315080115F0548327E0AFF300800000000000000000DC
S31508011600380000203CCA002024CA002000C0000877
S315080116102CC9002028CA002034C800201EC8002072
S315080116204CC5002068C5002039CA0020ECC7002037
S31508011630E4C7002068C0000884C00008A0C00008EC
S315080116401ECA00209BF867109BF868209BF8693032
S31508011650003118BF0121003218BF012200338BF86F
S315080116606A108BF86B2018BF0123D9F810708BF814
S315080116706C30BB49002F41F00383BA4B9FEDBA7A10
S31508011680D3ED007AB94BBA4E1F780E9B96F84420D3
S31508011690F0EEE77A67EE877A01339BB2FCEEE77ADA
S315080116A01846B0F57A7F17EE903A88BF0020089061
S315080116B0CB82002A44F0E28196F84530002B44F0AB
S315080116C0CD819BF8BA30A64A002B43F0528692F890
S315080116D0BD70003718BF0127A64B14931A4696F812
S315080116E046301770002B44F0A98196F84730002B35
S315080116F044F09481DBF8C0309F4AD9F8107023F47E
S315080117007F0323F47F43003318BF01231370D9F8ED
S315080117100C80B8F1000F44D1954E94F8E6310E933A
S31508011720D6E908010022002315F052FD08B18BF80D
S31508011730C88000220023D6E90A0115F049FD28B11F
S315080117400E9B003318BF01238BF8C930BBF8C8E0DC
S3150801175094F8E7811EF1000E18BF4FF0010E002222
S315080117600023D6E90C018BF86DE015F031FD18B1AF
S315080117707B4A002382F8C63000220023D6E90E01EF
S3150801178015F026FD30B118F1000818BF4FF0010811
S315080117908BF8C780BBF8C630003318BF01238BF816
S315080117A06E300D9B0133DBB21A46152AD9F804307F
S315080117B028BF00220E9243B9DBED027A9FED6F7ABC
S315080117C06F4B67EE877AC3ED007AD9F8143033B9CF
S315080117D0229B0133DBB21F2B28BF002319932FB994
S315080117E094F9AA311A9394F9AB311B930A9A1346C1
S315080117F001339BB2B3F5AF6F0D9301F23D8240F20F
S31508011800BF239A4243F06A8695F84430012B04D0E7
S315080118105C4901200DF096FE012385F84430069BAC
S31508011820B4F8A221012B40F222330CBF9BF8861093
S3150801183094F8D8118BF840109A420CBF012600265D
S3150801184003F056830A9B85F89260B3F5307F0CBF87
S31508011850012600264C4B03F04083069BB4F8A221CF
S3150801186085F84360012B40F223330CBF9BF88510A2
S3150801187094F8D9118BF841109A420CBF012600261B
S3150801188003F021830A9A85F8916040F2C1239A42AE
S315080118900CBF012600263C4B03F0E982069B85F81E
S315080118A04260012BB4F8A2310CBF9BF8841094F85E
S315080118B0DA118BF84210B3F5497F0CBF01260026D1
S315080118C003F0CB820A9A85F8906040F2C2239A42C5
S315080118D00CBF012600262C4B03F0B482069B85F823
S315080118E04160012BB4F8A2310CBF9BF8831094F820
S315080118F0DB118BF8431040F225329342234F0CBF7C
S315080119000126002603F0928240F22632934285F898
S315080119108F601D4A0CBF0126002603F0438240F260
S315080119202732934285F88E60174A0CBF0126002696
S3150801193003F02A82B3F54A7F85F88D60124A0CBFF7
S315080119400126002603F0128240F22932934285F8D5
S315080119508C600D4A0CBF0126002603F0F98117E0B9
S315080119602CC90020E4C7002000C07F44ECC7002032
S31508011970D8C00008DCC70020EAC70020000066437B
S3150801198014C90020B2C9002034C8002068C5002047
S3150801199040F22E32934285F88B60BB4A0CBF012672
S315080119A0002603F0C881B3F5487F85F88A60B64AF0
S315080119B00CBF0126002603F0B18140F22132934281
S315080119C085F88960B04A0CBF0126002603F0998183
S315080119D040F22A32934285F88860AB4A0CBF012649
S315080119E0002603F0808140F22B32934285F8876006
S315080119F0A54A0CBF0126002603F06781B3F54B7F84
S31508011A0085F88660A04A0CBF0126002603F04F819F
S31508011A1040F22D32934285F885609B4B0CBF012617
S31508011A20002603F038810A9A85F8846040F28733E4
S31508011A309A420CBF01260026934B03F02181B4F884
S31508011A40A22185F83260BAF1020F40F2EA330CBFDF
S31508011A509BF8751094F8DC118BF844109A420CBF68
S31508011A600126002602F002860A9B85F88360B3F5F3
S31508011A70627F0CBF01260026834B02F0EC85B4F881
S31508011A80A22185F83160BAF1020F40F2EB330CBF9F
S31508011A909BF8741094F8DD118BF845109A420CBF27
S31508011AA00126002602F0CD850A9A85F8826040F261
S31508011AB089339A420CBF01260026734B02F0B6857C
S31508011AC0B4F8A23185F83060BAF1020F0CBF9BF861
S31508011AD0731094F8DE118BF84610B3F57B7F0CBFB3
S31508011AE00126002602F098850A9A85F8816040F257
S31508011AF08A339A420CBF01260026634B02F0818580
S31508011B00B4F8A23185F82F60BAF1020F40F2ED322E
S31508011B100CBF9BF8721094F8DF118BF847109342AB
S31508011B205A4F0CBF0126002602F05F8540F2EE32BD
S31508011B30934285F88060544A0CBF0126002602F0BC
S31508011B40468540F2EF32934285F87F604E4A0CBFD4
S31508011B500126002602F02D85B3F57C7F85F87E6087
S31508011B60494A0CBF0126002602F0158540F2F132DA
S31508011B70934285F87D60444A0CBF0126002602F08F
S31508011B80FC8440F2F632934285F87C603E4A0CBFEB
S31508011B900126002602F0E484B3F57A7F85F87B6096
S31508011BA0394A0CBF0126002602F0CD8440F2E932FB
S31508011BB0934285F87A60344A0CBF0126002602F062
S31508011BC0B58440F2F232934285F879602E4A0CBF09
S31508011BD00126002602F09C8440F2F332934285F8EE
S31508011BE07860294A0CBF0126002602F08384B3F5E2
S31508011BF07D7F85F87760244A0CBF0126002602F00E
S31508011C006B8440F2F532934285F876601E4A0CBF22
S31508011C100126002602F05284CA2B85F875601A4AF5
S31508011C200CBF0126002602F03B84CB2B85F8746095
S31508011C30154A0CBF0126002602F02484CC2B85F810
S31508011C407360114A0CBF0126002602F00D84CD2BC4
S31508011C5085F872600C4A0CBF0126002602F0F6834D
S31508011C60CE2B85F87160084A0CBF0126002602F0C2
S31508011C70DF83CF2B85F87060034A0CBF0126002647
S31508011C8002F0C88304E000BF34C8002068C50020FC
S31508011C90D02B85F86F60B84A0CBF0126002602F0E2
S31508011CA09E83D12B85F86E60B34A0CBF01260026A8
S31508011CB002F08783D22B85F86D60AF4A0CBF0126E7
S31508011CC0002602F07083D32B85F86C60AA4A0CBFF4
S31508011CD00126002602F05983D42B85F86B60A64AA3
S31508011CE00CBF0126002602F04283D52B85F86A60CF
S31508011CF0A14A0CBF0126002602F02B83D62B85F8B4
S31508011D0069609D4A0CBF0126002602F01583C82B7F
S31508011D1085F86860984A0CBF0126002602F0FF8202
S31508011D20C92B85F86760944A0CBF0126002602F084
S31508011D30E982B3F5C97F85F866608F4A0CBF01262B
S31508011D40002602F0D18240F29312934285F865602B
S31508011D50894A0CBF0126002602F0B882B3F5CA7F6C
S31508011D6085F86460844A0CBF0126002602F0A08229
S31508011D7040F29512934285F863607F4A0CBF0126AB
S31508011D80002602F08782B3F5CB7F85F862607A4A2E
S31508011D900CBF0126002602F06F8240F29712934289
S31508011DA085F86160744A0CBF0126002602F0568246
S31508011DB0B3F5CC7F85F860606F4A0CBF0126002613
S31508011DC002F03E8240F29912934285F85F606A4AB0
S31508011DD00CBF0126002602F02582B3F5CF7F85F8D0
S31508011DE05E60654A0CBF0126002602F00E82B3F535
S31508011DF0C87F85F85D60604A0CBF0126002602F09F
S31508011E00F78140F29112934285F85C605A4A0CBFF9
S31508011E100126002602F0DF81B3F5CD7F85F85B60E8
S31508011E20554A0CBF0126002602F0C78140F29B12D3
S31508011E30934285F85A60504A0CBF0126002602F0E3
S31508011E40AE81B3F5CE7F85F859604B4A0CBF0126A2
S31508011E50002602F0968140F29D12934285F8586059
S31508011E60454B0CBF0126002602F07F810A9985F8A9
S31508011E70576040F2F71399423F4A02F068810A997E
S31508011E800023B1F5FA7F82F8993002F054813B4A72
S31508011E9085F89C301678B4F8A221012E40F25A230F
S31508011EA00CBF9BF8951094F8E0118BF848109A42EC
S31508011EB00CBF0127002702F034810A9B85F856706A
S31508011EC0B3F5FC7F0CBF012700272B4B02F01E81BF
S31508011ED0B4F8A22185F89870012E40F25B230CBF55
S31508011EE09BF8941094F8E1118BF849109A420CBFAB
S31508011EF00127002702F000810A9A85F8557040F2F9
S31508011F00F9139A420CBF012700271B4B02F0E980FF
S31508011F10B4F8A23185F89770012E0CBF9BF893107F
S31508011F2094F8E2118BF84A10B3F5177F0CBF012715
S31508011F30002702F0CC800A9B85F85470B3F5FD7F23
S31508011F400CBF012700270C4B02F0B680B4F8A2316A
S31508011F5085F89670012E40F25D220CBF9BF892100F
S31508011F6094F8E3118BF84B109342054F0CBF0126E9
S31508011F70002602F0958005E034C8002030C800200C
S31508011F8068C5002040F25E22934285F85360CC4A28
S31508011F900CBF0126002602F07680B3F5167F85F878
S31508011FA05260C74A0CBF0126002602F05F8040F244
S31508011FB05922934285F85160C14A0CBF0126002671
S31508011FC002F0478001339BB2B3F5966F1A4688BF74
S31508011FD0002206920A9A85F8506040F22D139A4219
S31508011FE002F020800A98B64B40F23B110022884243
S31508011FF085F8BF2001F08D870A9983F8B920B1F5D4
S315080120009E7F43F0428493F8B830012B03D0AD4943
S3150801201001200DF097FA0122002385F8B82085F8EA
S31508012020B7300A99A1F59773B3FA83F3A1F1730649
S31508012030A1F1740AA1F17508A1F166075B09B6FA5F
S3150801204086F6BAFA8AFAB8FA88F8B7FA87F76529DE
S3150801205085F8B6304FEA5616994B4FEA5A1A4FEA9F
S3150801206058184FEA571743F0C78393F8AD30012B39
S3150801207003D0954901200DF065FA012385F8A7607B
S3150801208085F8A6A085F8AD300A9A85F8A580662A4E
S315080120908B4B44F0668493F8A430012B03D08B490B
S315080120A001200DF04FFA002385F8A4701E4685F825
S315080120B09B3016931F4685F89A700A9A85F89530CB
S315080120C0B2F5FE7F7E4B43F0118493F89430012BD1
S315080120D003D07F4901200DF035FA9DF8583085F86F
S315080120E09430D9F8088085F89360B8F1000F00F0AC
S315080120F0F9860A9A40F2BD239A4201F063800A984A
S315080121006F4B40F2CB210022884285F84E2003F01E
S31508012110B9800A9983F84820B1F5337F43F046849C
S3150801212093F84730012B03D06A4901200DF00AFACA
S315080121300122002385F8472085F846300A9840F29F
S31508012140BE23C31A40F2933240F2953740F28636DF
S31508012150B3FA83F340F28531C2EB000AC71B861B2B
S31508012160A0F565785B09BAFA8AFAB7FA87F7B6FA73
S3150801217086F6B8FA88F8884285F845304FEA5A1A39
S315080121804FEA57174FEA56164D4B4FEA581843F080
S31508012190C28393F83C30012B03D04F4901200DF03F
S315080121A0D1F9012385F836A085F8358085F83C30C4
S315080121B00A9985F8347040F286329142404B07D12C
S315080121C093F83330012B03D0444901200DF0BAF9B5
S315080121D085F8336001200DF0D1F9B4F8A411404E09
S315080121E0374A404F01290CBF0123002333700BD115
S315080121F092F82B20012A07D03B4B084619700DF09F
S3150801220077F93378B7F8A41185F82B3002290CBF72
S31508012210012600262A4B03F02880032985F82A601F
S31508012220274B0CBF0126002603F01280042985F8E6
S315080122302960234B0CBF0126002602F0FC870529DD
S3150801224085F828601E4B0CBF0126002602F0E6879A
S31508012250062985F827601A4B0CBF0126002602F0CD
S31508012260BD87072985F82660154B0CBF0126002670
S3150801227002F0A787082985F82560114B0CBF0126AE
S31508012280002602F09187CA2985F824600C4B0CBFF9
S315080122900126002602F07B87CB2985F82360084BA7
S315080122A00CBF0126002602F06587CC2985F8226035
S315080122B0034B0CBF0126002602F04F8716E000BF2C
S315080122C034C80020DEC90020D4C90020CBC90020AB
S315080122D0BCC90020B4C90020ABC90020A2C900208E
S315080122E008C9002068C500201DC80020CD2985F829
S315080122F02160A94B0CBF0126002602F02187CE29B1
S3150801230085F82060A44B0CBF0126002602F00C8735
S31508012310CF29EE77A04B0CBF0126002602F0F886DE
S31508012320D029AE779C4B0CBF0126002602F0E48625
S31508012330C9296E77984B0CBF0126002602F0D08674
S31508012340B1F5C97F2E77944B0CBF0126002602F002
S31508012350BB8640F293139942EE768F4B0CBF01264A
S31508012360002602F0A586B1F5CA7FAE768A4B0CBF68
S315080123700126002602F0908640F2951399426E7660
S31508012380854B0CBF0126002602F07A86B1F5CB7F74
S315080123902E76814B0CBF0126002602F0658640F297
S315080123A097139942EE757C4B0CBF0126002602F065
S315080123B04F86B1F5CC7FAE75774B0CBF012600264B
S315080123C002F03A8640F2911399426E75724B0CBF30
S315080123D00126002602F024860F292E7508D9A1F1B7
S315080123E0C8030F2B04D9A1F5C8730F2B03F21C815F
S315080123F06A4E0123337040F2592399420CBF0127D3
S31508012400002702F0018640F25A239942EF74624B83
S315080124100CBF0127002702F0EB8540F25B239942A6
S31508012420AF745D4B0CBF0127002702F0D585B1F5C6
S31508012430177F6F74584B0CBF0127002702F0C08520
S3150801244040F25D2399422F74534B0CBF0127002795
S3150801245002F0AA8540F25E239942EF734E4B0CBFF8
S315080124600127002702F0948540F25F239942AF7352
S31508012470494B0CBF0127002702F07E85B1F5187F6D
S315080124806F73454B0CBF0127002702F0698540F29F
S31508012490213399422F73404B0CBF0127002702F0C5
S315080124A02B8240F222339942EF723B4B0CBF012734
S315080124B0002702F0158240F223339942AF72364B58
S315080124C00CBF0127002702F0FF81B1F5497F6F7222
S315080124D0314B0CBF0127002702F0EA8140F2253370
S315080124E099422F722C4B0CBF0127002702F0D48189
S315080124F040F226339942EF71274B0CBF012700277B
S3150801250002F0BE8140F227339942AF71224B0CBFCC
S315080125100127002702F0A881B1F54A7F6F711E4B8A
S315080125200CBF0127002702F0938101312F718DB26B
S31508012530B5F5AF6F4FF0000088BF05460DF01EF8E0
S31508012540174AD9F81430108033B9219B0133DBB20D
S315080125501F2B28BF00231C9305F052F9114B187045
S3150801256005F054F9104B1860104805F051F9104B55
S315080125709BF85B10186001B1012108200CF060FB83
S315080125809BF85D1001B1012109200CF059FB9BF85C
S315080125905C1079B101210DE034C8002014C800206F
S315080125A0EEC700201DCA002028C80020D8C100088F
S315080125B01CC900200A200CF043FB9BF81830BDF813
S315080125C02C209BF81910A4F89C2184F8AC31BDF88D
S315080125D034209BF81B30A4F89E2184F8AD119BF892
S315080125E01A209BF81C1084F8AF319BF81E3084F82A
S315080125F0AE2184F8B0119BF81D209BF81F1084F8B2
S31508012600B2319BF8213084F8B12184F8B3119BF8D3
S3150801261020209BF8221084F8B5319BF8243084F8E1
S31508012620B42184ED598A9BF8232084ED5A8A84EDD6
S315080126305B9AC4ED5CAAC4ED5D9A84F8B61184F878
S31508012640B831119B84F8B7211968C4F878119DF837
S3150801265038109BF8252084F8C4119DF840109BF882
S3150801266026E09BF827709BF8280084F8C51184F8A2
S31508012670B9219BF829109BF82A20D9F8143084F837
S31508012680BAE184F8BB719BF82BE09BF82C7084F8AF
S31508012690BC0184F8BD119BF82D009BF82E1084F817
S315080126A0BE219BF82F2084F8C32184F8BFE184F862
S315080126B0C07184F8C10184F8C211CB4A3BB99DF8AF
S315080126C0703082F8C6319DF8643082F8C731D9F87E
S315080126D008301BB99DF8743084F8EA319BF830103C
S315080126E09BF8312084F8C81184F8C9219BF8321067
S315080126F09BF8332084F8CA1184F8CB219BF834104F
S315080127009BF83520D9F8103084F8CC1184F8CD21FE
S315080127109BF836109BF8372084F8CF2184F8CE1120
S31508012720B14A1BB99DF8683082F8A831189B197807
S3150801273001B101210E200CF083FABBF81410052013
S315080127400CF010F9D4F83C31D4F85421C4F83831D6
S31508012750D4F82031D4F84011C4F85021D4F81C21FA
S31508012760C4F81C31D4F8F830C4F83C11C4F818215F
S31508012770D4F82411D4F8F420C4F8F4309B4BC4F8E7
S315080127802011C4F8F020D4F8FC10D4F80021C4F8BC
S31508012790F81084ED558A84ED508A84ED498AC4F887
S315080127A0FC2084ED408A03F114015A6843F8042B8E
S315080127B08B42FAD18E4B84ED358A03F118015A689A
S315080127C043F8042B8B42FAD18A4B84ED288A03F10C
S315080127D01C015A6843F8042B8B42FAD184ED198AF5
S315080127E0814C234604F120015A6843F8042B8B4295
S315080127F0FAD1D9F80C3084ED088A9BB99BF85E109A
S3150801280001B1012114200CF01BFA9BF85F1000237B
S3150801281084F8E43101B1012115200CF011FA0023E5
S3150801282084F8E5319BF86A1001B101210B200CF0FF
S3150801283007FA9BF86C1001B101210C200CF000FA83
S315080128409BF86B1001B101210D200CF0F9F9129BCF
S31508012850BDF820101A680C9BC4F89021D9F80420F9
S315080128601B68C4F87C31C4F88031A4F8A011C4ED02
S31508012870618A84ED62BA84ED63AA5B4B1AB99DF845
S31508012880802083F8EB219BF838109BF8392084F8CF
S31508012890D01184F8D1219BF83A109BF83B2084F893
S315080128A0D21184F8D3219BF83C109BF83D20D9F826
S315080128B0103084F8D41184F8D5219BF83E109BF882
S315080128C03F2084F8D72184F8D611474A1BB99DF8C9
S315080128D06C3082F8A931149B197801B101211020B5
S315080128E00CF0AEF9BBF8161004200CF03BF80C9B63
S315080128F0D4F85C211968D4F84C31D4F84801C4F8E5
S315080129004831D4F83031C4F85821C4F84401D4F810
S315080129103421D4F82C01C4F82C31D4F81031C4F878
S315080129203021C4F82801D4F81421D4F80C01C4F8CC
S315080129300C31314BC4F81021D4F80821C4F85C11C4
S31508012940C4F80801C4F84C11C4F83411C4F81411B8
S31508012950C4F8042103F114005A6843F8042B984279
S31508012960FAD1264BC4F8EC1003F118005A6843F85B
S31508012970042B9842FAD1224BC4F8BC1003F11C006F
S315080129805A6843F8042B9842FAD11E4BC4F88410AE
S3150801299003F120005A6843F8042B9842FAD1D9F872
S315080129A00C3061649BB99BF86D1001B101211B20A4
S315080129B00CF046F99BF86E10002384F8E63101B154
S315080129C0012117200CF03CF9002384F8E731D9F8E6
S315080129D01030EBB90C4A0D4B12781B7884F8AA21F2
S315080129E084F8AB3114E000BF68C5002028C6002072
S315080129F0F0C50020B0C5002040C600200CC6002046
S31508012A00D0C500208CC5002024C8002039CA002062
S31508012A10BDF818309BF840009BF84120A4F8A23174
S31508012A209BF842303178A4F8A45184F8D8019BF870
S31508012A3043509BF8440084F8D92184F8DA319BF88D
S31508012A4045209BF8463084F8DB519BF8476084F8AB
S31508012A50DC019BF8485084F8DD219BF8490084F88D
S31508012A60DE319BF84A209BF84B3084F8DF6184F805
S31508012A70E05184F8E10184F8E22184F8E33101B1F7
S31508012A80012118200CF0DCF8D9F80430C44AC449ED
S31508012A900133092B88BF00235360D9F80830C04A8F
S31508012AA00133632B88BF00239360D9F80C30BC4AE5
S31508012AB00133B3F5C87F28BF0023D360D9F8103096
S31508012AC0B74A0133B3F5FA6F28BF00231361D9F862
S31508012AD01430B44A0133934288BF00234B6141B095
S31508012AE0BDEC0A8BBDE8F08FAF4B94ED5B9AAF4A0C
S31508012AF00C931D4619EE100A042302F11401FDF781
S31508012B0047FB07EE900A0B9B79EE277AB3F5FA7F16
S31508012B10C5ED007A7DF432ADF2EE08AAFDF744BDA3
S31508012B209BF84E30A24A002B7DF4F2AF92F84F3053
S31508012B30002B7DF4EDAF92F850300020002B7DF488
S31508012B40E8AF9C49FDF7E6BF5B68002B7EF419AA3E
S31508012B50994B1B78002B02F0A584984B186814F042
S31508012B6053F88DA3D3E9002314F0A2F8FDEEE87A11
S31508012B70934A17EE903A07468846013BC2E9007820
S31508012B80032B02F2F187DFE813F0F115040097151C
S31508012B9038009BF85130864F002B42F0A08597F8F4
S31508012BA05230002B43F0718397F85330002B42F0D3
S31508012BB00F8697F85430002B02F09185814900223F
S31508012BC00023D1E9000114F003FB002803F0EC858A
S31508012BD07D4BD7ED007A93ED007A37EEC77AF3EE9F
S31508012BE0026AF1EE087AE7EE267A9FED787AF4EE34
S31508012BF0C77AF1EE10FA42F36A85754B4FF08442B3
S31508012C001A609BF85720002A02F03C84714AD3EDDA
S31508012C10006AD2ED007AF4EEE76AF1EE10FA42F3B1
S31508012C201285DFED6D6A6D4B87EEA67AC3ED007AE4
S31508012C308BED027A002E3EF429A9694B1B78002BED
S31508012C403EF4A4A9D9F81020594901238BF85B3021
S31508012C508BF85C308BF85D30002A3EF4B2A90B9BE9
S31508012C6001339BB2B3F57A7F0B9384BF00230B9391
S31508012C705C4B1893FEF7EDB900230D93FEF7CDBD16
S31508012C800E9B01339BB2B3F57A7F089384BF002369
S31508012C900893554B1493FEF73ABD01238BF86A3016
S31508012CA08BF86B30FEF7E1BC5B68002B7EF49CACBD
S31508012CB09BF866809BF84C30002B02F0CD834B4B7A
S31508012CC0D3ED007AFDEEE77A17EE903A013B032B36
S31508012CD002F29887DFE813F050151F1508153F0013
S31508012CE0434A444BD2ED00BA93ED007AF4EEC7BAE3
S31508012CF0F1EE10FA02F30A853F4B93ED00CAF4EEA2
S31508012D00CCBAF1EE10FAC2F24185F4EEC7BAF1EE89
S31508012D1010FA02F23B85DDE91E010022002314F0B8
S31508012D2057FA002803F06D857BEECCBA334BF2EEE9
S31508012D300A7A6BEEA77AD3ED006AB3EE037AA7EEA9
S31508012D40A67AF0EE477A9FED217AF4EEC77AF1EE8C
S31508012D5010FA42F3D4842A4B4FF084421A60B8F130
S31508012D60000F02F069831B4AD3ED006AD2ED007A9F
S31508012D70F4EEE76AF1EE10FA42F37684DFED166AAD
S31508012D80204B87EEA67AC3ED007A8BED037A002EE7
S31508012D907EF42AACFEF7E1BBAA4C58E87AB6FB3FAB
S31508012DA04CC50020BFD4010040CA002000C000085D
S31508012DB02CC9002000004040EDC7002004C80020AF
S31508012DC008C8002038C5002038000020000000424D
S31508012DD028C900200CCA00200000704218CA002029
S31508012DE01ECA002000C90020DCC7002008CA00202E
S31508012DF0D8C700203C000020240000201C00002029
S31508012E0004C9002044C500204246022132A8FDF724
S31508012E1035FB424606460F4630A80221FDF72EFB32
S31508012E200022CDE914014FF07C533046394613F0A0
S31508012E303FFF002206460F464FF07A53DDE914019B
S31508012E4013F036FF02460B463046394613F07EFD2F
S31508012E5006469BF83F00DFF888800F4613F0B2FE5E
S31508012E6002460B463046394613F070FD4FF0404294
S31508012E70174B13F06BFD4FF000524FF07A5313F0D6
S31508012E8017FFDDE9082313F013FF14F0C1F9114BFD
S31508012E9018602B9B07EE900A002B42F03E830E4BDF
S31508012EA093ED007A0D4B77EE676AB1EE006AF4EEA0
S31508012EB0C66AF1EE10FA07DCB9EE006AF4EEC66AE4
S31508012EC0F1EE10FA42F1898783ED007AFEF731BBFC
S31508012ED0FFFF5F4128C5002018C80020D8C7002079
S31508012EE02CC900209BF849309BF84800DB0903EB05
S31508012EF04000C0B213F066FED9A3D3E9002313F04C
S31508012F0023FD02460B4600204FF0804112F0D4FC07
S31508012F109BF84930CDE9240140A903F07F0341F824
S31508012F20443D4FF0020A34AE01230A46CE481691B3
S31508012F308DE840041946FDF72FFA36AF01239BF8B1
S31508012F404A00169A009719462F90CDF804A0C6484C
S31508012F50FDF722FA424630465146FDF78FFA4246B8
S31508012F60CDE91E0138465146FDF788FA0022CDE91A
S31508012F7022014FF07C53DDE91E0113F099FE002270
S31508012F8006460F464FF07A53DDE9220113F090FE0B
S31508012F9002460B463046394613F0D8FC06469BF8DE
S31508012FA04B000F4613F00EFE02460B4630463946D5
S31508012FB013F0CCFC4FF04042AC4BAD4E13F0C6FCBF
S31508012FC04FF000524FF07A5313F072FEDDE92423D5
S31508012FD013F06EFE14F01CF99BF841309BF8402063
S31508012FE03060D80900EB4200C0B213F0EBFD9CA398
S31508012FF0D3E9002313F0A8FC02460B4600204FF044
S31508013000804112F059FC9BF84170169ACDF804A03C
S3150801301038AE0123CDE9240107F07F07194600964A
S3150801302091482F97FDF7B8F93AAF01239BF842006B
S31508013030169A009719462F90CDF804A08A48FDF7ED
S31508013040ABF9424630465146FDF718FA4246CDE9F4
S315080130501E0138465146FDF711FA0022CDE9220133
S315080130604FF07C53DDE91E0113F022FE00220646CD
S315080130700F464FF07A53DDE9220113F019FE024695
S315080130800B463046394613F061FC06469BF8430069
S315080130900F4613F097FD02460B463046394613F0A4
S315080130A055FC4FF04042714B724E13F04FFC4FF0F6
S315080130B000524FF07A5313F0FBFDDDE9242313F098
S315080130C0F7FD14F0A5F89BF845309BF844203060CD
S315080130D0D80900EB4200C0B213F074FD60A3D3E92E
S315080130E0002313F031FC02460B4600204FF08041C5
S315080130F012F0E2FB9BF84570169ACDF804A03CAE97
S315080131000123CDE91E0107F07F07194600965648A7
S315080131102F97FDF741F901233EA99BF84670169AA8
S3150801312000915148CDF804A019462F97FDF734F9B7
S31508013130424630465146FDF7A1F93EAB06460F46D3
S31508013140424618465146FDF799F90022CDE916017E
S315080131504FF07C533046394613F0AAFD0022064645
S315080131600F464FF07A53DDE9160113F0A1FD024629
S315080131700B463046394613F0E9FB06469BF84700ED
S315080131800F4613F01FFD02460B463046394613F02B
S31508013190DDFB4FF04042354B13F0D8FB4FF00052A0
S315080131A04FF07A5313F084FDDDE91E2313F080FDF9
S315080131B014F02EF8304B0A9A186040F2BD239A4251
S315080131C07EF49DAF95F84E30012B03D02B49012093
S315080131D00CF0B8F9012385F84E300A9BA3F5337331
S315080131E0B3FA83F300225B0985F8482085F847304E
S315080131F00A9940F2CD23CB1AB3FA83F340F2BE22E1
S315080132005B09914285F846301D4B7EF497AF93F8DA
S315080132104530012B03D01B4901200CF093F90023FB
S3150801322001221E4685F83C3085F836301F469846F9
S3150801323085F845200A9985F8358040F295329142FC
S315080132400F4B7EF4B5AF93F83430012B03D00E49FA
S3150801325001200CF077F985F83470FEF7B9BF00BF85
S315080132600000000000C05F40BCC00008FFFF5F41CE
S3150801327010CA002020CA002024C9002040C5002009
S3150801328034C800202CC50020A3C9002040AA9BF8F9
S315080132903E3042F8443D30A90220012301900091B5
S315080132A099481946FDF778F8FEF729B9289B9BF83E
S315080132B03D0003EBD010C0B213F084FC90A3D3E910
S315080132C0002313F041FB02460B4600204FF08041D4
S315080132D012F0F2FA9BF83D3040AA03F07F03CDE9DC
S315080132E0080142F8443D32A9022601238DE842002D
S315080132F085481946FDF750F8FEF7E8B84246022117
S3150801330032A8FDF7BBF8424606460F4630A8022109
S31508013310FDF7B4F80022CDE90E014FF07C53304693
S31508013320394613F0C5FC002206460F464FF07A537C
S31508013330DDE90E0113F0BCFC02460B463046394660
S3150801334013F004FB06469BF83700DFF8D4810F46D5
S3150801335013F038FC02460B463046394613F0F6FAA6
S315080133604FF04042694B13F0F1FA4FF000524FF01B
S315080133707A5313F09DFCDDE9082313F099FC13F049
S3150801338047FF634B18602A9B07EE900A002B42F011
S31508013390BE80604B93ED007A5F4B77EE676AB1EEBC
S315080133A0006AF4EEC66AF1EE10FA07DCB9EE006AB5
S315080133B0F4EEC66AF1EE10FA42F10C8583ED007A55
S315080133C0FDF751BD40AA9BF8363042F8443D30A975
S315080133D002200123019000914B481946FCF7DCFFB6
S315080133E0FDF726BD4246022132A8FDF747F84246B7
S315080133F006460F4630A80221FDF740F80022CDE91E
S3150801340014014FF07C533046394613F051FC002223
S3150801341006460F464FF07A53DDE9140113F048FCCE
S3150801342002460B463046394613F090FA06469BF893
S315080134303B000F4613F0C6FB02460B46304639469B
S3150801344013F084FA4FF04042304B13F07FFA4FF0F5
S3150801345000524FF07A5313F02BFCDDE9082313F0E1
S3150801346027FC13F0D5FEDBED017A2C4B07EE100A8B
S3150801347077EEC77AF1EE006AF4EEE67AF1EE10FA23
S31508013480186042F3758001232B93FDF7EDBF40AA1F
S315080134909BF83A3042F8443D30A9022001230190B5
S315080134A0009119481946FCF777FFFDF7C3BF249B1E
S315080134B09BF8390003EBD010C0B213F083FB10A3BD
S315080134C0D3E9002313F040FA02460B4600204FF0D9
S315080134D0804112F0F1F99BF8393040AA03F07F03D5
S315080134E0CDE9080142F8443D32A9022601238DE8B7
S315080134F0420005481946FCF74FFFFDF782BF00BF9A
S315080135000000000000C05F40BCC00008FFFF5F412B
S3150801351010C80020FCC8002004C8002018C80020D4
S315080135202CC900204246022132A8FCF7A7FF4246D1
S3150801353006460F4630A80221FCF7A0FF0022CDE976
S3150801354006014FF07C533046394613F0B1FB002291
S3150801355006460F464FF07A53DDE9060113F0A8FB3C
S3150801356002460B463046394613F0F0F906469BF8F3
S315080135702F00DFF850830F4613F024FB02460B4653
S315080135803046394613F0E2F94FF04042C44B13F086
S31508013590DDF94FF000524FF07A5313F089FBDDE95C
S315080135A0082313F085FB13F033FEBE4B1860299BE5
S315080135B007EE900A4BB12D9B3BB1B1EE087AF4EEBA
S315080135C0C77AF1EE10FA02F30084B74B1B78002292
S315080135D09B1A18BF01238BF84C20B44A8BF84D303F
S315080135E0D2ED006AB1EE087AF4EEC76AF1EE10FA86
S315080135F001F3B2870022AE4B8BF84E20D3ED006A59
S31508013600B1EE087AF4EEC76AF1EE10FA42F34A828D
S31508013610A84BD3ED006AF4EEC76AF1EE10FACCBFF7
S3150801362001220022A44B8BF84F20D3ED006AB1EE9C
S31508013630087AF4EEC76AF1EE10FA42F33082F4EE34
S31508013640C77AF1EE10FACCBF012300238BF850306C
S31508013650FDF751BA40AA9BF82E3042F8443D30A9ED
S31508013660022001230190009194481946FCF794FE23
S31508013670FDF727BA119B9BF82D0003EBD010C0B2BA
S3150801368013F0A0FA84A3D3E9002313F05DF90246E7
S315080136900B4600204FF0804112F00EF99BF82D30B1
S315080136A040AA03F07F03CDE9080142F8443D32A957
S315080136B0022601238DE8420080481946FCF76CFE74
S315080136C0FDF7E5B94246022132A8FCF7D7FE424684
S315080136D006460F4630A80221FCF7D0FE0022CDE9A6
S315080136E006014FF07C533046394613F0E1FA0022C1
S315080136F006460F464FF07A53DDE9060113F0D8FA6C
S3150801370002460B463046394613F020F906469BF821
S315080137102B000F4613F056FA02460B463046394639
S3150801372013F014F94FF040425D4B13F00FF94FF0C7
S3150801373000524FF07A5313F0BBFADDE9082313F070
S31508013740B7FA13F065FD07EE900AB1EE087A594B00
S31508013750F4EEC77AF1EE10FA1860CCBF0123002304
S315080137602D93FDF761B940AA9BF82A3042F8443DEA
S3150801377030A9022001230190009150481946FCF70F
S315080137800BFEFDF737B90E9B9BF8290003EBD0100A
S31508013790C0B213F017FA40A3D3E9002313F0D4F803
S315080137A002460B4600204FF0804112F085F89BF83F
S315080137B0293040AA03F07F03CDE9080142F8443DC8
S315080137C032A9022601238DE842003C481946FCF736
S315080137D0E3FDFDF7F5B84246022132A8FCF74EFE95
S315080137E0424606460F4630A80221FCF747FE00224C
S315080137F0CDE906014FF07C533046394613F058FAA5
S31508013800002206460F464FF07A53DDE9060113F00A
S315080138104FFA02460B463046394613F097F80646E4
S315080138209BF827000F4613F0CDF902460B463046A2
S31508013830394613F08BF84FF04042194B13F086F8CE
S315080138404FF000524FF07A5313F032FADDE90823AC
S3150801385013F02EFA13F0DCFC07EE900AB1EE087AA3
S31508013860174BF4EEC77AF1EE10FA1860CCBF0123B4
S3150801387000232993FDF771B840AA9BF81E3042F838
S31508013880443D30A902200123019000910B481946B5
S31508013890FCF782FDFCF754BF0000000000C05F4042
S315080138A0FFFF5F41E0C70020EDC7002064C5002087
S315080138B014CA002024CA002000C80020BCC0000881
S315080138C03CCA00202CC90020069B9BF81D0003EB6F
S315080138D0D010C0B213F076F9C9A3D3E9002313F0C7
S315080138E033F802460B4600204FF0804111F0E4FF01
S315080138F09BF81D3040AA03F07F03CDE9080142F881
S31508013900443D32A9022601238DE84200BE481946E4
S31508013910FCF742FDFCF7FCBE4246022132A8FCF741
S31508013920ADFD424606460F4630A80221FCF7A6FD24
S315080139300022CDE908014FF07C533046394613F091
S31508013940B7F9002206460F464FF07A53DDE908011A
S3150801395013F0AEF902460B463046394612F0F6FF29
S3150801396006469BF81B000F4613F02CF902460B4638
S315080139703046394612F0EAFF4FF04042A34B12F0A7
S31508013980E5FF4FF000524FF07A5313F091F90B46C9
S315080139900246DDE92601CDE9082313F089F913F07A
S315080139A037FC07EE900AB1EE087A994BF4EEC77A1E
S315080139B0F1EE10FA1860CCBF012300231693FCF729
S315080139C077BE40AA9BF81A3042F8443D30A9022036
S315080139D00123019000918C481946FCF7DDFCFCF7A0
S315080139E04EBE02200BF0E2F8044603200BF0DEF887
S315080139F0884B1B78002B41F09685021C864B18BF15
S31508013A0001221A70002C02F0AB80844A012313703C
S31508013A10002842F0958700231493FCF765BD9BF8AF
S31508013A20190006EBD010C0B213F0CCF874A3D3E991
S31508013A30002312F089FF02460B4600204FF0804111
S31508013A4011F03AFF9BF8193040AA03F07F03CDE93C
S31508013A50260142F8443D32A9022601238DE8420097
S31508013A6069481946FCF798FCFCF7F1BD40AA9BF892
S31508013A70263042F8443D30A90220012301900091E5
S31508013A8061481946FCF788FCFCF74DBF109B9BF86B
S31508013A90250003EBD010C0B213F094F858A3D3E96C
S31508013AA0002312F051FF02460B4600204FF08041D9
S31508013AB011F002FF9BF8253040AA03F07F03CDE9F8
S31508013AC0080142F8443D32A9022601238DE8420045
S31508013AD04D481946FCF760FCFCF70BBF424602212C
S31508013AE032A8FCF7CBFC424606460F4630A802210F
S31508013AF0FCF7C4FC0022CDE906014FF07C533046A1
S31508013B00394613F0D5F8002206460F464FF07A5388
S31508013B10DDE9060113F0CCF802460B463046394674
S31508013B2012F014FF06469BF823000F4613F04AF8D5
S31508013B3002460B463046394612F008FF4FF040421E
S31508013B40324B12F003FF4FF000524FF07A5313F045
S31508013B50AFF8DDE9082313F0ABF813F059FB304B46
S31508013B601860169B07EE900A002B01F0F0842C9B37
S31508013B70002B01F0F387B1EE087AF4EEC77AF1EE7D
S31508013B8010FACCBF0122002201F0E2BC40AA9BF840
S31508013B90223042F8443D30A90220012301900091C8
S31508013BA019481946FCF7F8FBFCF72BBE0D9B9BF849
S31508013BB0210003EBD010C0B213F004F810A3D3E927
S31508013BC0002312F0C1FE02460B4600204FF0804149
S31508013BD011F072FE9BF8213040AA03F07F03CDE96C
S31508013BE0080142F8443D32A9022601238DE8420024
S31508013BF005481946FCF7D0FBFCF7EBBDAFF300808F
S31508013C000000000000C05F40BCC00008FFFF5F4124
S31508013C1064C500201000002030CA0020F8C8002022
S31508013C2000C800204246022132A8FCF727FC42467A
S31508013C3006460F4630A80221FCF720FC0022CDE9F2
S31508013C4006014FF07C533046394613F031F800220D
S31508013C5006460F464FF07A53DDE9060113F028F8B8
S31508013C6002460B463046394612F070FE06469BF868
S31508013C701F000F4612F0A6FF02460B46304639468C
S31508013C8012F064FE4FF04042D54B12F05FFE4FF042
S31508013C9000524FF07A5313F00BF8DDE9082313F0BD
S31508013CA007F813F0B5FA07EE900AB1EE087ACD4B8C
S31508013CB0F4EEC77AF1EE10FA1860CCBF012300239F
S31508013CC02C93FCF756BD189B9BF8350003EBD010D7
S31508013CD0C0B212F077FFC0A3D3E9002312F034FE75
S31508013CE002460B4600204FF0804111F0E5FD9BF896
S31508013CF0353040AA03F07F03CDE9080142F8443D77
S31508013D0032A9022601238DE84200B7481946FCF775
S31508013D1043FBFDF773B84246022132A8FCF7AEFB16
S31508013D20424606460F4630A80221FCF7A7FB0022A9
S31508013D30CDE90E014FF07C533046394612F0B8FFF3
S31508013D40002206460F464FF07A53DDE90E0112F0BE
S31508013D50AFFF02460B463046394612F0F7FD0646D6
S31508013D609BF833000F4612F02DFF02460B463046EC
S31508013D70394612F0EBFD4FF04042994B12F0E6FD41
S31508013D804FF000524FF07A5312F092FFDDE9082303
S31508013D9012F08EFF13F03CFADBED017A934B07EE36
S31508013DA0100A77EEC77AF1EE006AF4EEE67AF1EEDA
S31508013DB010FA186041F3BF8301232A93FCF7EBBF7E
S31508013DC040AA9BF8323042F8443D30A9022001232B
S31508013DD00190009184481946FCF7DEFAFCF7C0BF4A
S31508013DE0129B9BF8310003EBD010C0B212F0EAFE29
S31508013DF079A3D3E9002312F0A7FD02460B4600205A
S31508013E004FF0804111F058FD9BF8313040AA03F07C
S31508013E107F03CDE9080142F8443D32A90226012370
S31508013E208DE8420070481946FCF7B6FAFCF77EBFE2
S31508013E3094F8C7316E4A229307EE903AF8EE677AFC
S31508013E40032317EE900AA2F11001FCF7F5F9694B65
S31508013E50CBF804001860FCF72ABF94F8C631664A05
S31508013E60219307EE903AF8EE677A02F1100117EE00
S31508013E70900A0323FCF7E0F9604A614B92ED007A58
S31508013E80D3ED006A5F4ACBF8000007EE900AF4EE1C
S31508013E90C77AF1EE10FAF4EEE67ACCBF01230023D5
S31508013EA0F1EE10FA10608BF8513081F227833A4609
S31508013EB0554B8BF8522093ED007AF4EEC77AF1EE62
S31508013EC010FAC1F2A885F4EEE67AF1EE10FA4CBFC3
S31508013ED0012200224D4B8BF85320D3ED006AF4EEF4
S31508013EE0E67AF1EE10FAC1F29385F4EEC77AF1EEAD
S31508013EF010FA4CBF012300238BF85430FCF79CBE03
S31508013F00DDED107A1193F8EE677AC3ED007AFCF7C6
S31508013F108EBE93F8B930012B03D03D4901200BF031
S31508013F2011FB0122002385F8B92085F8B8300A99D2
S31508013F3040F23D13CB1AB3FA83F35B09B1F5977FC8
S31508013F4085F8B730334B7EF46CA893F8B630012B5D
S31508013F5003D0314901200BF0F5FA002301221F464F
S31508013F6085F8AD3085F8A73098469A4685F8B62083
S31508013F700A9A85F8A6A0752A264B7EF485A893F891
S31508013F80A530012B03D0254901200BF0DBFA0023CC
S31508013F901E4685F8A58085F8A47085F89B30B2463B
S31508013FA0B04637460A9885F89A7040F2FB1188425E
S31508013FB04346CDF858A0174A7EF47FA892F8953063
S31508013FC0012B03D0164901200BF0BCFA85F8958020
S31508013FD085F894A0FEF785B80000000000C05F4090
S31508013FE0FFFF5F4114CA0020BCC00008FCC80020BE
S31508013FF058C0000834CA002038C000082C00002028
S315080140003000002048C50020280000203800002084
S31508014010DFC9002034C80020DCC90020CCC9002033
S31508014020BDC9002095F8BF30012B03D0F349012003
S315080140300BF088FA012385F8BF300A9BA3F59E7316
S31508014040B3FA83F300225B0985F8B92085F8B830FD
S315080140506DE792F85020012A3DF4B4AF0321002000
S315080140600BF046FAB4F8A231FDF7ACBF92F851202D
S31508014070012A3DF49CAF0F2100200BF039FAB4F860
S31508014080A231FDF794BF92F85220012A3DF485AF7B
S315080140900A2100200BF02CFAB4F8A231FDF77DBFF6
S315080140A095F85320012A3DF46DAF00200BF020FA54
S315080140B0B7F8A231FDF766BF93F89630012B3DF4A8
S315080140C045AFCF4901200BF03DFAFDF73FBF95F803
S315080140D05430012B3DF42FAF00200BF009FAFDF700
S315080140E02ABF93F89730012B3DF412AFC549012039
S315080140F00BF028FAFDF70CBF95F85530012B3DF466
S31508014100FBAE00200BF0F4F9FDF7F6BE93F89830F4
S31508014110012B3DF4DDAEBC4901200BF013FAFDF786
S31508014120D7BE95F85630012B3DF4C7AE00200BF0EB
