S01600002E2E2F4368617267655F325F56312E73726563C2
S31508004000D43E0120AD1102080000000000000000A7
S315080040100000000000000000000000000000000092
S315080040200000000000000000000000008D8F01085D
S31508004030000000000000000029900108799001089E
S315080040400000000000000000000000000000000062
S315080040500000000000000000000000000000000052
S3150800406000000000F9DF0108000000000000000061
S315080040700000000000000000000000000000000032
S31508004080000000000000000000000000D510020833
S315080040908D100208B1100208F9100208000000008D
S315080040A07D980108699801085598010845980108FE
S315080040B0319801081D9801080998010800000000B8
S315080040C000000000000000000000000000000000E2
S315080040D00000000085F401089DF40108B5F4010804
S315080040E0000000000000000031F501080000000093
S315080040F0F5970108E1970108D1970108000000002B
S3150800410000000000E5F401080000000000000000BF
S315080041100000000000000000000000000000000091
S31508004120000000000000000000000000E9F401089B
S315080041300000000029E001080000000065110208DF
S315080041401D110208411102088911020861F50108CA
S31508004150000000000000000000000000CDF4010887
S315080041600000000000000000000000000000000041
S315080041700000000000000000000000000000000031
S311080041800000000000000000EE11AA5527
S3150800C000000000000000803F0000803F0000803FE5
S3150800C01000000040000000000000C03F0000F040A3
S3150800C0200000284100004841CDCC4CBE000080BF2E
S3150800C030000048C1000028C10000803F0000000041
S3150800C0400000000000000000000000000000803F23
S3150800C0500000803F0000803F0000803F0000803FD6
S3150800C0600000000000000000000000000000803F03
S3150800C0700000803F000000000000803F0000803F75
S3150800C0800000803F00000000000000000000008063
S3150800C0900102030405060700010000010100000172
S3150800C0A00001010000000000000000000000F03F51
S3150800C0B00000000000000000000000000000000072
S3150800C0C0000000000000F03F000000000000F03F04
S3150800C0D00000000000000000000000000000000052
S3150800C0E0000000000000F03F01000001010000010F
S3150800C0F0000000000000F03F000000000000000003
S3150800C1000000000000000000000000000000F03FF2
S3150800C110000000000000F03F0000000000000000E2
S3150800C1200000000000000000000000000000F03FD2
S3150800C130000000000000F03F0000000000000000C2
S3150800C1400000000000000000000000000000F03FB2
S3150800C150000000000000F03F0000000000000000A2
S3150800C1600000000000000000000000000000F03F92
S3150800C1700A0A0A004368617267655F325F56315F73
S3150800C180736F66747761726549445F76315F3136DD
S3150800C190313131385F3135303333360041707043D1
S3150800C1A074726C5461736B00200000000014024026
S3150800C1B008000900200000000014024010000E00CC
S3150800C1C0200000000014024020000F00200000009C
S3150800C1D00014024040000400200000000014024041
S3150800C1E0800005002000000000140240000106003F
S3150800C1F02000000000140240000207002000000092
S3150800C2000014024000040800040000000008024070
S3150800C21001000A00040000000008024004000C00A7
S3150800C220414443636F6E76657273696F6E546173CA
S3150800C2306B0000002E2E2F626C6F636B7365742F74
S3150800C2407274772F53544D33322F7372632F686588
S3150800C25061705F342E630000546D724370754C6FC5
S3150800C260616400002E2E2F626C6F636B7365742FEA
S3150800C2707274772F53544D33322F7372632F746150
S3150800C280736B732E6300000049444C4500000000A0
S3150800C2902E2E2F626C6F636B7365742F7274772FF3
S3150800C2A053544D33322F7372632F74696D657273ED
S3150800C2B02E630000546D7220537663002E2E2F6273
S3150800C2C06C6F636B7365742F7274772F53544D3389
S3150800C2D0322F7372632F53544D33325F45343037E0
S3150800C2E02F6D61632E6300004D61634E6574546162
S3150800C2F0736B0000457643686E6C3100457643687B
S3150800C3006E6C3200457643686E6C33002E2E2F62B3
S3150800C3106C6F636B7365742F7274772F53544D3338
S3150800C320322F7372632F53544D33325F453430378F
S3150800C3302F706F72742E6300000001400100000028
S3150800C340020100001000000000100240000209006F
S3150800C350100000000010024000080B000004004016
S3150800C3600200000001020000010000000000024077
S3150800C37040000600020000000004024020000500FC
S3150800C3800008004004000000010200000800000048
S3150800C390000C024000100C0008000000000C0240CF
S3150800C3A000200D0000040140020000000203000006
S3150800C3B004000000000802404000060004000000D7
S3150800C3C000080240800007005443502F49500000DF
S3150800C3D0040006000A0005000C000200040008001C
S3150800C3E008000A0032000A001C0020009400200001
S3150800C3F01400100030001400140010001000040689
S3150800C40068F2002070F2002060F2002074F200202A
S3150800C41001020304050607070707070707000000C8
S3150800C42003060C1830607800FFFFFFFF00000000CD
S3150800C430FFFFFFFFFFFF00000000000000000000F4
S3150800C440455F6C696E6B000010000000001002402A
S3150800C4500001000001000800100000000010024062
S3150800C4600004000101000A0010000000001002404C
S3150800C4700010000201000C0010000000001002402D
S3150800C4800002000001000900100000000010024030
S3150800C4900008000101000B00100000000010024017
S3150800C4A00020000201000D001000000000100240EC
S3150800C4B00040000301000E000100000000000240D9
S3150800C4C020000100010005000100000000000240F4
S3150800C4D040000200020006000200000000040240BC
S3150800C4E0200002010200050008000000000C0240BE
S3150800C4F00010030002000C0008000000000C0240B7
S3150800C5000020030102000D0004000000000802409C
S3150800C5104000040003000600040000000008024072
S3150800C520800004010300070010000000001002400C
S3150800C530200005000300050010000000001002405E
S3150800C5404000050103000600200000000014024018
S3150800C5504000060003000600200000000014024008
S3150800C56080000700030007002000000000140240B6
S3150800C570000108000900080020000000001402401D
S3150800C580000209000900090000000140010000003E
S3150800C59002011900000000400100000001021C0011
S3150800C5A0000400400200000001021D0000080040CF
S3150800C5B00400000001021E00000401400200000001
S3150800C5C002012C0000400140000001000201180091
S3150800C5D00044014000000200020119000048014021
S3150800C5E00000040002011A00001C00408000000040
S3150800C5F001022C00002000400001000001022D006D
S3150800C60004000000000802400100000020000000AD
S3150800C6100014024040000000200000000014024000
S3150800C6208000000020000000001402400001000005
S3150800C6302000000000140240000200002000000054
S3150800C640001402400004000002000000000402403A
S3150800C65080000000020000000004024040000000C4
S3150800C6601000000000100240040000001000000046
S3150800C67000100240100000001000000000100240E8
S3150800C68020000000100000000010024040000000DA
S3150800C6904000000000180240800000004000000032
S3150800C6A00018024000010000400000000018024087
S3150800C6B00010000040000000001802400080000042
S3150800C6C00100000000000240100000000200000007
S3150800C6D000040240200000000100000000000240A3
S3150800C6E04000000001000000000002402000000099
S3150800C6F008000000000C02400100000008000000CD
S3150800C700000C02400200000008000000000C024075
S3150800C7100400000008000000000C024008000000A9
S3150800C72008000000000C024010000000080000008D
S3150800C730000C02402000000008000000000C024027
S3150800C7404000000008000000000C024080000000C5
S3150800C75008000000000C024000010000080000006C
S3150800C760000C02400002000008000000000C024015
S3150800C7700004000008000000000C02400008000049
S3150800C78008000000000C024000100000080000002D
S3150800C790000C02400020000008000000000C0240C7
S3150800C7A00040000008000000000C02400080000065
S3150800C7B010000000001002400100000010000000F8
S3150800C7C000100240020000001000000000100240A5
S3150800C7D00800000010000000001002408000000061
S3150800C7E010000000001002400001000010000000C8
S3150800C7F00010024000020000100000000010024075
S3150800C80000040000100000000010024000080000AC
S3150800C8101000000000100240001000001000000088
S3150800C8200010024000200000100000000010024026
S3150800C83000400000100000000010024000800000C8
S3150800C8402000000000140240010000002000000043
S3150800C85000140240020000002000000000140240FC
S3150800C8600400000020000000001402400800000038
S3150800C8702000000000140240100000002000000004
S3150800C88000140240200000002000000000140240AE
S3150800C89000080000200000000014024000100000FC
S3150800C8A020000000001402400020000020000000C4
S3150800C8B0001402400040000020000000001402405E
S3150800C8C0008000004000000000180240010000003F
S3150800C8D0400000000018024002000000400000006E
S3150800C8E00018024004000000400000000018024042
S3150800C8F00800000040000000001802401000000078
S3150800C900400000000018024020000000400000001F
S3150800C91000180240400000004000000000180240D5
S3150800C9200002000040000000001802400004000059
S3150800C9304000000000180240000800004000000007
S3150800C94000180240002000004000000000180240C5
S3150800C9500040000001000000000002400100000045
S3150800C960040000000008024001000000200000004A
S3150800C970001402404000000020000000001402409D
S3150800C98080000000200000000014024000010000A2
S3150800C99020000000001402400002000020000000F1
S3150800C9A000140240000400000200000000040240D7
S3150800C9B08000000002000000000402404000000061
S3150800C9C010000000001002400400000010000000E3
S3150800C9D00010024010000000100000000010024085
S3150800C9E02000000010000000001002404000000077
S3150800C9F040000000001802408000000040000000CF
S3150800CA000018024000010000400000000018024023
S3150800CA1000100000400000000018024000800000DE
S3150800CA2001000000000002401000000002000000A3
S3150800CA30000402402000000001000000000002403F
S3150800CA404000000001000000000002402000000035
S3150800CA5008000000000C0240010000000800000069
S3150800CA60000C02400200000008000000000C024012
S3150800CA700400000008000000000C02400800000046
S3150800CA8008000000000C024010000000080000002A
S3150800CA90000C02402000000008000000000C0240C4
S3150800CAA04000000008000000000C02408000000062
S3150800CAB008000000000C0240000100000800000009
S3150800CAC0000C02400002000008000000000C0240B2
S3150800CAD00004000008000000000C024000080000E6
S3150800CAE008000000000C02400010000008000000CA
S3150800CAF0000C02400020000008000000000C024064
S3150800CB000040000008000000000C02400080000001
S3150800CB101000000000100240010000001000000094
S3150800CB200010024002000000100000000010024041
S3150800CB3008000000100000000010024080000000FD
S3150800CB401000000000100240000100001000000064
S3150800CB500010024000020000100000000010024011
S3150800CB600004000010000000001002400008000049
S3150800CB701000000000100240001000001000000025
S3150800CB8000100240002000001000000000100240C3
S3150800CB900040000010000000001002400080000065
S3150800CBA020000000001402400100000020000000E0
S3150800CBB00014024002000000200000000014024099
S3150800CBC004000000200000000014024008000000D5
S3150800CBD020000000001402401000000020000000A1
S3150800CBE0001402402000000020000000001402404B
S3150800CBF00008000020000000001402400010000099
S3150800CC002000000000140240002000002000000060
S3150800CC1000140240004000002000000000140240FA
S3150800CC2000800000400000000018024001000000DB
S3150800CC30400000000018024002000000400000000A
S3150800CC4000180240040000004000000000180240DE
S3150800CC500800000040000000001802401000000014
S3150800CC6040000000001802402000000040000000BC
S3150800CC700018024040000000400000000018024072
S3150800CC8000020000400000000018024000040000F6
S3150800CC9040000000001802400008000040000000A4
S3150800CCA00018024000200000400000000018024062
S3150800CCB000400000040000000008024000200000B8
S3150800CCC010000000001002400002000002000200EE
S3150800CCD001000900100000000010024000080001D1
S3150800CCE00400200001000B001000000000100240A4
S3150800CCF0002000020800000201000D0010000000DC
S3150800CD0000100240004000031000002001000E0041
S3150800CD10010000000000024020000100020002009D
S3150800CD20010005000100000000000240400002006A
S3150800CD300200020002000600020000000004024091
S3150800CD40200002010400200002000500080000007F
S3150800CD50000C0240001003000200020002000C0052
S3150800CD6008000000000C0240002003010400200017
S3150800CD7002000D0004000000000802404000040004
S3150800CD80020002000300060004000000000802403A
S3150800CD9080000401040020000300070010000000C2
S3150800CDA000100240200005000200020003000500F2
S3150800CDB01000000000100240400005010400200099
S3150800CDC00300060020000000001402404000060090
S3150800CDD002000200030006002000000000140240C2
S3150800CDE08000070002000200030007002000000080
S3150800CDF000140240000108000200020009000800B1
S3150800CE00200000000014024000020900020002008F
S3150800CE1009000900000001400100000002011B0092
S3150800CE20000000400100000001021C000004004050
S3150800CE300200000001021D00000800400400000076
S3150800CE4001021E00000401400200000002012E003B
S3150800CE5000400140000001000201180000440140A2
S3150800CE600000020002011900004801400000040009
S3150800CE7002011A00001C00408000000001022C007C
S3150800CE80002000400001000001022D0000100140B2
S3150800CE901000000002250000020000000004024005
S3150800CEA0400006000200000000040240800007005F
S3150800CEB007000000004400400000020001260000B0
S3150800CEC008000000000C02402000050008000000D1
S3150800CED0000C024040000600070000000048004021
S3150800CEE0000004000127000008000000000C0240B2
S3150800CEF00001080008000000000C024000020900BA
S3150800CF00070000000014014020000000024700004E
S3150800CF10040000000008024040000600040000006B
S3150800CF20000802408000070008000000100000000A
S3150800CF300010024000020000020002000100090081
S3150800CF401000000000100240000800010400200044
S3150800CF5001000B0010000000001002400020000233
S3150800CF600800000201000D00100000000010024039
S3150800CF70004000031000002001000E000100000020
S3150800CF800000024020000100020002000100050026
S3150800CF9001000000000002404000020002000200FA
S3150800CFA00200060002000000000402402000020100
S3150800CFB0040020000200050008000000000C0240E2
S3150800CFC0001003000200020002000C000800000026
S3150800CFD0000C0240002003010400200002000D009E
S3150800CFE0040000000008024040000400020002009D
S3150800CFF00300060004000000000802408000040147
S3150800D0000400200003000700100000000010024082
S3150800D01020000500020002000300050010000000C1
S3150800D020001002404000050104002000030006002D
S3150800D0302000000000140240400006000200020022
S3150800D04003000600200000000014024080000700CC
S3150800D050020002000300070020000000001402403E
S3150800D0600001080002000200090008002000000074
S3150800D070001402400002090002000200090009002B
S3150800D080000001400100000002011B0000000040F2
S3150800D0900100000001021C0000040040020000001C
S3150800D0A001021D00000800400400000001021E00E5
S3150800D0B0000401400200000002012E000040014069
S3150800D0C000000100020118000044014000000200AF
S3150800D0D002011900004801400000040002011A007C
S3150800D0E0001C00408000000001022C0000200040C7
S3150800D0F00001000001022D002E2E2F626C6F636B5B
S3150800D1007365742F7274772F53544D33322F73729D
S3150800D110632F71756575652E6300000050505000C9
S3150800D120457643686E6C3100457643686E6C32000E
S3150800D130457643686E6C33000707070020D1000860
S3150800D14028D1000830D10008040404000064004017
S3150800D1500000000208000000000C02400100000068
S3150800D16008000000000C0240020001000913141513
S3150800D17016000000006800400000000402000000DD
S3150800D18000040240200005000200000000040240DE
S3150800D19040000600093F4041420000002E2E2F6243
S3150800D1A06C6F636B7365742F7274772F53544D339A
S3150800D1B0322F7372632F53544D33325F45343037F1
S3150800D1C02F63616E2E63000043616E4576656E744B
S3150800D1D05461736B0000000043616E5472616E7394
S3150800D1E06D69745461736B004574685F6966000005
S3150800D1F0706F770000000000000000000000304358
S30D0800D20000000000000030C325
S315080100000B78FF2B00D070474B78002BFBD107F0FC
S3150801001065BB00BF08B5012006F05CFC034A40F247
S3150801002067610020BDE8084008F00EBB0100010821
S31508010030002000F0F5B900BF704700BF2DE9F84F61
S31508010040DDF82CB00C9DDDF8289095F8088004465B
S3150801005016461F46DBE900010022002317F028F89F
S31508010060002842D0A0452CBF4FF0000A4FF0010AE4
S3150801007089F801A000220023DBE9020117F018F82C
S3150801008038B1A04594BF4FF000084FF0010889F830
S315080100900280BAF1000F02D199F8023013B3304643
S315080100A03946DDE90E2316F0BFFB06460F46ACB905
S315080100B00F9BDDF838A003F1004B52465B464FF023
S315080100C0010816F0E1FF58B188F00103DBB289F89F
S315080100D000302C72C5E90067BDE8F88F0123F6E701
S315080100E0A046F1E7D5E90067D9E799F801A0C1E784
S315080100F02DE9F84FDDF82CB00C9D0A9E2F7A04469F
S3150801010090469946DBE900010022002316F0D0FF4C
S3150801011000283DD0A7422CBF4FF0000A4FF0010A34
S3150801012086F801A000220023DBE9020116F0C0FFD0
S3150801013020B1A74294BF00270127B770BAF1000F73
S3150801014001D1B3780BB340464946DDE90E2316F0D3
S315080101506BFB804689467CB10F9F0E9A07F10043D7
S3150801016016F092FF4FF0010368B1DBB233702C72BF
S31508010170C5E90089BDE8F88F234633702C72C5E9B5
S315080101800089BDE8F88F0346EFE7D5E90089DAE784
S3150801019096F801A0C6E700BF704700BF91ED007A47
S315080101A007EE900AB4EEE77AF1EE10FA30B43FDAC8
S315080101B098000C1894ED007AF4EEC77AF1EE10FA6D
S315080101C024D5012B4FEA530037D9002401EB8005CA
S315080101D095ED007AF4EEC77AF1EE10FA54BF0446AB
S315080101E003461D1B1819012D4FEA5000EED8A4002D
S315080101F0231D08191944D0ED006A91ED007A77EEAE
S31508010200E67A37EE667AC7EE876A03E00346041F85
S31508010210F7EE006A1444134494ED007AD3ED007A9C
S3150801022077EEC77A30BCA6EEA77A17EE100A7047A2
S31508010230DFED036A00240423ECE704230024D8E74E
S315080102400000000070B491F90040844240DACC56AF
S31508010250844223DD012B4FEA53043ED900250E576C
S315080102608642D4BF254623465E1B5C19012E4FEAFA
S315080102705404F4D86E1CB3001C1F4D5D895D401BE8
S31508010280C0B207EE900A491BC9B2B8EE677A07EE03
S31508010290901AF8EE676A87EE266A03E09B001C1F30
S315080102A0B7EE006A1444134494ED007AD3ED007A4C
S315080102B077EEC77ABDEEC77A67EE867A17EE100A29
S315080102C0FDEEE77A70BC17EE903A034458B27047D0
S315080102D09FED046A00240423E4E700242546042349
S315080102E00126CAE7000000002DE9F04F85B0029308
S315080102F00F9B0191002B039208DD0E9B0F9900229B
S3150801030003EB810143F8042B8B42FBD1019B002BA4
S3150801031055DDDDF838A0A0F1040E4FF000090F9B5A
S315080103205EF8046FC9EB0308029B9845A8BF984677
S31508010330B8F1000F4FEA1647B6B243DD039B5446A0
S315080103401D4603EB880C002255F8043B20688018EB
S315080103509AB22CBF4FF0010B4FF0000B02FB07F1CD
S315080103601B0C0BEB114B02FB06F203FB07BB03FB52
S3150801037006F3104409040BEB134B824288BF0BF1B9
S31508010380010B1B040844814294BF59460BF1010134
S315080103901844834294BF0A464A1CAC4544F8040BE8
S315080103A0D2D1C8440F9B4345C4BF0E9B43F82820AE
S315080103B0019B09F101094B450AF1040AAFD105B0C0
S315080103C0BDE8F08FC8460022ECE700BF2DE9F843E7
S315080103D00F1E1EDD14464FF000084FF00009061FD8
S315080103E0002556F8040F16F05DFB224615F028F98C
S315080103F002460B464046494616F018FA0135AF4201
S315080104008046894604F12004EBD140464946BDE8B9
S31508010410F8834FF000084FF00009F6E700000000E6
S315080104202DE9F04FDFF88C832DED0C8BB8F80230EF
S31508010430C9B0002B03F0578504200EF027FBD04CDA
S31508010440D04B1870B4F898310A93002103201D4641
S3150801045006F0E0FE07EE900ACB4B9FEDCC6A1880BA
S31508010460F8EE677AB5F5FA7F27EE866A04F0928088
S3150801047094ED588AD4ED597A9FEDC59A9FEDC57AC0
S31508010480B4EE486AF1EE10FAC8BFB0EE468A78EEC5
S31508010490277AF6EE006AA7EEA69A29EE079AB5EE2E
S315080104A0C09AF1EE10FA04F18B80BB4BBB4A0D934F
S315080104B01D4602F11401042319EE100AFFF76EFE18
S315080104C007EE900A79EE277AC5ED007A94ED5BBAC4
S315080104D0DFEDB37ADFEDAF9AB4EE4B6AF1EE10FABF
S315080104E048BFB0EE46BA7BEE677A67EEA99AF5EE93
S315080104F0C09AF1EE10FA01DBD4ED5C9AA94ADFF84D
S3150801050080A2012302F1080119EE900AFFF746FEBF
S3150801051007EE900AB4F89A91A34B79EEA77AB9F146
S31508010520680FC3ED007A0CBF0127002703F01C856D
S315080105309E4D4A46652A85F8A5709C4B0CBF012736
S31508010540002703F004859A4BDFF86CB293F800A0F4
S3150801055085F8B170BAF1010F0CBF9BF8AF3094F86A
S31508010560A8318BF82C30B8F804301BB99BF82C60ED
S315080105707600F6B2692A0CBF0127002703F0DA8450
S31508010580BAF1010F0CBF9BF8AE2094F8A92185F8A2
S31508010590A4708BF82D20002B03F07E84B4F89A31D1
S315080105A06A2B0CBF0126002603F0B984BAF1010FA4
S315080105B00CBF9BF8AD3094F8AA318BF82E30B8F8F9
S315080105C0043085F8A360002B03F05684B4F89A31F9
S315080105D06B2B0CBF0126002603F0F984BAF1010F33
S315080105E00CBF9BF8AC3094F8AB318BF82F30B8F8C8
S315080105F0043085F8A260002B03F0E783B4F89A214A
S315080106005F4F6C2A0CBF0126002603F0C884BAF195
S31508010610010F0CBF9BF8AB3094F8AC318BF8303036
S31508010620B8F8043085F8A16023B99BF8300040007A
S31508010630C1B208916D2A0CBF0126002603F0A284D7
S31508010640BAF1010F0CBF9BF8AA2094F8AD2185F8E1
S31508010650A0608BF83120002B03F08F83B4F89A3110
S315080106606E2B0CBF0126002603F0A684BAF1010FF2
S315080106700CBF9BF8BA3094F8AE318BF83230B8F823
S31508010680043085F8B060002B03F06783B4F89A311B
S315080106906F2B0CBF0126002603F0D784BAF1010F90
S315080106A00CBF9BF8B93094F8AF318BF83330B8F8F2
S315080106B0043085F8AF60002B03F0FC82B4F89A2168
S315080106C02F4F702A0CBF0126002603F0B184BAF118
S315080106D0010F0CBF9BF8B83094F8B0318BF8343061
S315080106E0B8F8043085F8AE6023B99BF834004000A9
S315080106F0C1B20B91712A0CBF0126002603F0BB84F7
S31508010700BAF1010F0CBF9BF8B72094F8B12185F80F
S31508010710AD608BF83520002B03F0A482B4F89A312A
S31508010720722B0CBF0126002603F09A84BAF1010F39
S315080107300CBF9BF8B63094F8B2318BF83630B8F85E
S31508010740043085F8AC60002B03F06C82B4F89A315A
S31508010750732B0CBF0126002603F07285BAF1010F2F
S31508010760B8F804A00CBF9BF8B53094F8B33185F8F6
S31508010770AB608BF83730BAF1000F03F0FB811DE04F
S3150801078050C5002016CA002038C500203333533A15
S3150801079045CBDCBF0D650E4138CA002000C00008F4
S315080107A045CBDC3F28C00008DCC700200CC8002068
S315080107B0D9C7002040C5002010C90020B4F89A31D5
S315080107C0CB4FB3F5987F0CBF0126002603F0508561
S315080107D040F22D12934285F8B860C64A0CBF01262D
S315080107E0002603F03885C44A85F8C46092F800A04B
S315080107F0BAF1020F0CBF9BF8C12094F8B4218BF80B
S315080108003820B8F8042022B99BF838004000C1B254
S315080108100E9140F231118B420CBF0126002603F0DE
S315080108200285BAF1020F0CBF9BF8C03094F8B531B6
S3150801083085F8B7608BF83930002A03F07381B4F86C
S315080108409A31B3F5997F0CBF0126002603F042853C
S31508010850BAF1020F0CBF9BF8BF3094F8B6318BF88A
S315080108603A30B8F8043085F8B660002B03F04A81AF
S31508010870B4F89A2140F233139A420CBF0126002696
S3150801088003F01D85BAF1020F0CBF9BF8BE3094F830
S31508010890B7318BF83B30B8F8043085F8B560002BD2
S315080108A003F0DD80B4F89A21914FB2F59A7F0CBF17
S315080108B00126002603F0F684BAF1020F0CBF9BF855
S315080108C0BD3094F8B8318BF83C30B8F8043085F867
S315080108D0B46023B99BF83C004000C1B20F9140F2C5
S315080108E035118A420CBF0126002603F0CE84BAF1DF
S315080108F0020F0CBF9BF8BC2094F8B92185F8B360A8
S315080109008BF83D20002B03F08280B4F89A31B3F5B9
S315080109109B7F0CBF0126002603F06084BAF1020F03
S315080109200CBF9BF8CC3094F8BA318BF83E30B8F846
S31508010930043085F8C360002B03F05980B4F89A2176
S3150801094040F237139A420CBF0126002603F03B8476
S31508010950BAF1020F0CBF9BF8CB3094F8BB318BF878
S315080109603F30B8F8043085F8C260002B02F0EC87F6
S31508010970B4F89A215E4FB2F59C7F0CBF012600267A
S3150801098003F04484BAF1020F0CBF9BF8CA3094F8FD
S31508010990BC318BF84030B8F8043085F8C16023B90A
S315080109A09BF840004000C1B2109140F239118A42C9
S315080109B00CBF0126002603F01C84BAF1020F0CBFF6
S315080109C09BF8C92094F8BD2185F8C0608BF84120B1
S315080109D0002B02F09187B4F89A31B3F59D7F0CBFCD
S315080109E00126002603F05F83BAF1020F0CBF9BF8BC
S315080109F0C83094F8BE318BF84230B8F8043085F81F
S31508010A00BF60002B02F04787B4F89A2140F23B13E6
S31508010A109A420CBF0126002603F03A83BAF1020F67
S31508010A20B8F804A00CBF9BF8C73094F8BF3185F815
S31508010A30BE608BF84330BAF1000F02F09586B8F81C
S31508010A400230002B4BD10C9B002B00F05B849BF8EA
S31508010A506230002B00F0568400202849B4F8A231F0
S31508010A60234E41F6FE7293429CBF0133A6F8A2318A
S31508010A7094F890311E4A5E0704F1FD83012643F07E
S31508010A80040366F3010382F8903116F031FB1C4B1F
S31508010A90CBF8240007EE900A1E709FED1A7AF4EE41
S31508010AA0C77AF1EE10FA44F37084174B83ED007A96
S31508010AB0164A174BD2ED008AF1EE047AF4EEE78A6C
S31508010AC0F1EE10FAC3ED008A04F3F583F7EE007A26
S31508010AD0F4EE678AF1EE10FA48BFF0EE678A94F8E9
S31508010AE0C0A1034FBAF1030F0CBF0126002611E07E
S31508010AF050C500200CC80020D6C800200000304090
S31508010B0014CA00200000004204CA00201400002074
S31508010B10F8C7002000F0EB835346012B6E70964A06
S31508010B200CBF0126002604F03B81022BEE70924A87
S31508010B300CBF0126002603F08585904AAE70042B6A
S31508010B40137808930CBF012600268B4B03F070859A
S31508010B508B4B2E701B78FE2B03F0588594F8C13108
S31508010B600B93089B012B874B03F047851A460E9377
S31508010B70D4F874311360B8F8043033BB9BF863308A
S31508010B80814A002B00F0D983804B93ED007AF3EE6E
S31508010B90027AB4EEE77A0026F1EE10FA8BF866606F
S31508010BA040F3DE837A4A94F8E4317A4F134493F892
S31508010BB09B301E93184615F075FFC7E90001764B61
S31508010BC08BF867601B68CBF81030B8F80230734AA7
S31508010BD0002B40F0F5800C9B002B40F0A7836D4B52
S31508010BE093ED007B8DED107BB8F80870002F45F06A
S31508010BF0D48594F9A431A3F10403B3FA83F35B0909
S31508010C000F938BF868309BF8603016931A465E4B43
S31508010C101869002A04F07A8315F066FF54A3D3E90C
S31508010C20002315F0B5FFCDE9060100225C4BDDE98D
S31508010C30060116F03DFA4FF0010E00B9864600226C
S31508010C40574BDDE906015FFA8EF616F031FA0028F0
S31508010C504FD095F8C830012B4BD0524B186815F078
S31508010C6043FFCDE9120102460B46DDE9060116F0FE
S31508010C701FFA002844F039854B4B186815F034FFE4
S31508010C8002460B46DDE90601CDE9142316F006FAFC
S31508010C90002804F07E84DDE91223DDE9060116F059
S31508010CA0F3F9002804F0758400220023DDE9100118
S31508010CB016F0FEF9002805F0B484DDE91423DDE910
S31508010CC0060115F0B1FD0022384B15F061FF384BCE
S31508010CD0CDE91201186815F007FF02460B46DDE952
S31508010CE0120115F055FF0022324B15F09FFDCBE995
S31508010CF0000100222A4B85F8C860DDE9060116F0D5
S31508010D00B9F94FF0010E00B986460022244BDDE9F8
S31508010D1006015FFA8EF616F0ADF9B0B195F8C9304D
S31508010D20012B12D0244B186815F0DEFECDE912010D
S31508010D3002460B46DDE9060116F0BAF9002804F069
S31508010D403D871E4B0022CBE90223FDEEE87A85F8A2
S31508010D50C96017EE903A013B032B04F2DF86DFE800
S31508010D6013F0FB235C0FE323900F00BFAFF3008062
S31508010D70AA4C58E87AB6FB3F0CC8002000C90020E7
S31508010D80C7C70020ECC8002010C900204CC50020A8
S31508010D9000C00008D0C700201C00002040C5002064
S31508010DA000007440480000204400002000002A404A
S31508010DB020000020000033404000002000001840B9
S31508010DC01789002F05F0F784B8F80630C04A002BBA
S31508010DD040F07B82BF4B0693069BBF4E1B7894F867
S31508010DE0DE2119930D92D6E900010022002316F09F
S31508010DF05FF938B1199B0D9A934294BF00230123D9
S31508010E008BF8EC3000220023D6E9020116F050F9DE
S31508010E1038B1199B0D9A93422CBF002301238BF8F5
S31508010E20ED30BBF8EC30003318BF01238BF869307D
S31508010E30002F01F07387A94BA94A1B7814921A93BC
S31508010E4000220023D6E9040194F8DF7116F030F97F
S31508010E5030B11A9B9F422CBF002301238BF8EA303D
S31508010E6000220023D6E9060116F022F930B11A9BB1
S31508010E709F4294BF002701278BF8EB70BBF8EA3035
S31508010E80003318BF01238BF86A30B8F80830069387
S31508010E90002B36D1934B944A93F90030934F1E4653
S31508010EA002F1580118460623FFF7CCF9904A0D9628
S31508010EB0864602F13C010623304687F800E0CDF864
S31508010EC03CE0FFF7BFF98B4ADFF884E2074602F1F7
S31508010ED0200106230D988EF80070FFF7B3F90F9BD2
S31508010EE0854A191C18BF0121003718BF0127031CA1
S31508010EF018BF01238BF86B108BF86C7010708BF888
S31508010F006D307E4B1B78002B40F0EB819BF86B1004
S31508010F109BF86C209BF86D30003118BF0121003217
S31508010F2018BF012200338BF86E108BF86F2018BF9B
S31508010F3001238BF87030069B714A6BB9714B9FED93
S31508010F40727AD3ED007AF0EEE77A67EE877AFCEEED
S31508010F50E77A17EE903A13850A9B6C4E01339BB2DA
S31508010F60B3F57A7F4FF0000188BF0B460F93B4F8AB
S31508010F709C31069308201F4606F04CF907EE900AA5
S31508010F80634B9FED646A1880F8EE677AB7F5FA7FC6
S31508010F9027EE866A03F0A48696ED5E7AD4ED5F6A3B
S31508010FA0DFED5D8A5D4B0A93B4EEC76AF1EE10FA7E
S31508010FB0D4BFF0EE477AF0EE467A77EEA67AF6EEE9
S31508010FC0006AE7EEA68AD8BF83ED007A9FED547AC8
S31508010FD0C8BF83ED006A68EE878AF5EEC08AF1EE2E
S31508010FE010FA04F120814F4A042302F1140118EE84
S31508010FF0900AFFF7D3F807EE900A4B4B38EEA7CACB
S3150801100083ED00CAD4ED61AADFED487A9FED44AAC3
S31508011010B4EE6A6AF1EE10FA48BFF0EE46AA7AEE25
S31508011020E77A27EE8AAAB5EEC0AAF1EE10FA01DB35
S3150801103094ED62AA3E4A012302F108011AEE100A4A
S31508011040FFF7ACF807EE900A3A4BB8F802207AEEA9
S3150801105027CAC3ED00CA6AB9374BD3ED007AB1EE98
S31508011060047AF4EEC77AF1EE10FA44F3F680334BBC
S3150801107083ED007A089B022B314B03F05E861946F5
S315080110800D93D4F88C310B60B8F80430002B64D179
S315080110902C499BF8613091ED007AF3EE027AB3FAA6
S315080110A083F3B4EEE77A5B09F1EE10FA8BF8713047
S315080110B008DC254B93ED007AB4EEE77AF1EE10FAE7
S315080110C044F3A6810121214B8BF8721042E000BF3F
S315080110D040C50020F8C80020A8C00008C5C70020E0
S315080110E0E0C80020FCC7002038C000083CCA002020
S315080110F054C0000870C00008F0C7002016CA0020B6
S3150801110010C9002034C5002000C07F4450C5002006
S31508011110D8C800203333533A45CBDCBF2CC5002051
S315080111200D650E4100C0000828C5002045CBDC3FEF
S3150801113028C00008F0C80020F8C7002000CA00200F
S3150801114004C8002034CA00201CCA00201C00002044
S3150801115030CA00201B68CBF81830002A41F01686E1
S315080111609BF87230964994F8E521964E002B14BFE8
S31508011170042302230B44134493F897301F9318460C
S3150801118015F090FC904BC3E900010C9BCDE90801D1
S3150801119043B196F86630002B44F096819FED867B25
S315080111A08DED087BB8F80870002F45F0F28294F9A6
S315080111B0A561A6F10406B6FA86F676098BF8736078
S315080111C09BF8613010931A467E4BD3ED06BA002A76
S315080111D004F08780DFED7D7A7D4B6BEEA7BAC3ED10
S315080111E000BADFED7C7AF4EEE7BAF1EE10FACCBF7D
S315080111F0012300230C9333DD95F8C630012B2FD03C
S31508011200754BD3ED007AF4EEEB7AF1EE10FA04F1B0
S315080112106782724B93ED00DAB4EEEBDAF1EE10FA6F
S3150801122004F2DB81F4EEEB7AF1EE10FAC4F2D58121
S3150801123000220023DDE9080115F03AFF002805F030
S3150801124039823BEECDDA664BF2EE0A7A6DEE277AF3
S31508011250D3ED006AB3EE037AA7EEA67A8BED087A88
S31508011260DFED5C7A9DF8303085F8C630F4EEE7BAE2
S31508011270F1EE10FA4CBF012300230C93594B0FD5FD
S3150801128093F8C730012B0BD0574BD3ED007AF4EE08
S31508011290EB7AF1EE10FA44F14085544B544A1A6040
S315080112A0544B9DF83020D3ED007A85F8C720FDEE22
S315080112B0E77A17EE903A013B032B04F22584DFE81F
S315080112C013F02D21A9001521DD00002F05F04C8012
S315080112D013890693484B1493484B1B78002B3FF40C
S315080112E015AE01238BF86E308BF86F3021E66B78DB
S315080112F0012B3FF411AC424900200EF093F897F800
S31508011300C0310AE49BF863302E4A002B7FF4A4AB64
S3150801131092F86430002B7FF49FAB92F86530002079
S31508011320002B7FF49AAB3749FFF798BB9BF8670008
S3150801133015F0B8FBCDE9100156E4B2F86430002B7C
S315080113407FF422AC304B93ED007AF3EE027AB4EED9
S31508011350E77A0126F1EE10FA82F8666005F36982EA
S315080113602A4B93ED007AF3EE027AB4EEE77AF1EEC0
S3150801137010FA44F340800422114B94F8E411134403
S315080113800B4493F897301E93184615F08BFB204BA8
S31508011390C3E90001002E3FF412AC9BF86070002FE0
S315080113A044F0AF83002200234FF0010615F058FEE2
S315080113B000B13E46F6B202E400000000000000005B
S315080113C000C0000810C9002020CA0020D7B3DD3F9D
S315080113D0F4C700200000A043480000204400002074
S315080113E0200000200CC80020400000202CCA002044
S315080113F00000C04000CA0020E0C8002016CA00202C
S31508011400C4C70020000040404CC500200CCA00207B
S31508011410D0C70020C54AC64BD2ED00BAD3ED007A33
S31508011420F4EEE7BAF1EE10FA04F37380C14B93EDCB
S3150801143000DAF4EECDBAF1EE10FAC4F27E81F4EEDA
S31508011440E7BAF1EE10FA04F27881DDE90801002223
S31508011450002315F02DFE002805F081817BEECDBA1B
S31508011460B2EE007AF3EE087AEBEE877A9FEDB27A5E
S31508011470F4EEC77AF1EE10FA44F34380AF4A4FF01F
S3150801148084431360AE4B002E03F01C87D2ED006A2D
S31508011490D3ED007AF4EEE76AF1EE10FA43F3D58755
S315080114A0DFEDA86AA84B87EEA67AC3ED007A8BED25
S315080114B0077A002F41F06F8494F8E231A34A022B90
S315080114C002D8013382F8E23194F895319F4A13F034
S315080114D0010743F031879E4892F89411089043F02A
S315080114E00103077082F8953101239A4EDFF888E2E5
S315080114F0337063F3030182F894114FF07E52CEF8EC
S315080115000020B8F80670002F01F04D84924E089A13
S3150801151096F844301778002B44F0978296F84530B0
S31508011520002B44F082829BF8CE308C4A002B43F084
S31508011530C68692F8D170003718BF0127884B1793D2
S315080115401A4696F846301770002B44F05E8296F8D4
S315080115504730002B44F04982DBF8D4308149B8F88A
S31508011560062023F47F0323F47F43003318BF0123A6
S315080115700B702ABB1B9300220023D6E90C0194F8B1
S31508011580E17115F095FD30B11B9B9F422CBF0023DD
S3150801159001238BF8DA3000220023D6E90E0115F073
S315080115A087FD30B11B9B9F4294BF002701278BF80B
S315080115B0DB70BBF8DA30003318BF01238BF87530BE
S315080115C0B8F8086056BB634B674A93F9007002F195
S315080115D0580106233846FEF735FE644A10F1000E17
S315080115E018BF4FF0010E02F13C01062338468BF86D
S315080115F076E0FEF727FE5E4A10F1000E18BF4FF09F
S31508011600010E02F12001384606238BF877E0FEF732
S3150801161019FE003018BF01208BF87800554B1B784E
S31508011620002B41F0FD839BF876109BF877209BF8F9
S315080116307830003118BF0121003218BF012200336A
S315080116408BF879108BF87A2018BF01238BF87B3039
S31508011650424A6EB9484B9FED497AD3ED007AF0EECE
S31508011660E77A67EE877AFCEEE77A17EE903A5385C2
S31508011670069B01339BB219460AF10103DBB21846F0
S31508011680B1F57A7F0A46B8F8023088BF00221528D4
S315080116901692024628BF0022109243B9DBED057A5D
S315080116A09FED377A374B67EE877AC3ED007A2EB905
S315080116B094F9A6311C9394F9A7311D9309F10103F5
S315080116C09BB2B3F5AF6F0C9301F2A383B9F5307FE3
S315080116D043F0468695F84430012B03D02A49012068
S315080116E00DF0A0FE012385F844300023274A85F82A
S315080116F050301678B4F89E21012E40F222330CBFE1
S315080117009BF8931094F8C2118BF844109A420CBFB7
S315080117100127002702F0A28740F2C123994585F8DF
S3150801172094701B4B08BF012734E000BF1800002046
S31508011730300000203400002000000042E4C80020E8
S3150801174004CA0020000070423CC5002050C5002094
S31508011750C8C7002031CA0020A8C0000810C9002047
S31508011760B8C70020C6C7002038C0000854C0000802
S3150801177070C0000816CA0020C0C7002000C07F44F8
S3150801178000006643F4C80020A3C90020D8C700207A
S315080117900CC8002018BF002703F0F782B4F89E2171
S315080117A085F84370012E40F223330CBF9BF8921043
S315080117B094F8C3118BF845109A420CBF01270027EC
S315080117C003F0D98240F2C223994585F89370BF4B3D
S315080117D00CBF0127002703F0C382B4F89E3185F8B0
S315080117E04270012E0CBF9BF8911094F8C4118BF826
S315080117F04610B3F5497F0CBF0127002703F0A682DF
S3150801180040F2C323994585F89270B04B0CBF012766
S31508011810002703F07683B4F89E2185F84170012EDE
S3150801182040F225330CBF9BF8901094F8C5118BF83C
S3150801183047109A420CBF0127002703F05883B9F5D0
S31508011840317F85F89170A14B0CBF0127002703F062
S315080118504383B4F89E2185F84070012E40F2263361
S315080118600CBF9BF88F1094F8C6118BF848109A4252
S315080118700CBF0127002703F0258340F2C5239945AC
S3150801188085F89070914B0CBF0127002703F00F8351
S31508011890B4F89E2185F83F70012E40F227330CBF1C
S315080118A09BF88E1094F8C7118BF849109A420CBF11
S315080118B00127002703F0F18240F2C623994585F8EE
S315080118C08F70824B0CBF0127002703F0DB82B4F827
S315080118D09E3185F84F70012E0CBF9BF89E1094F827
S315080118E0C8118BF84A10B3F54A7F0CBF01270027A8
S315080118F003F0BE8240F2C723994585F88E70734B73
S315080119000CBF0127002703F0A882B4F89E3185F899
S315080119104E70012E40F229320CBF9BF89D1094F8A7
S31508011920C9118BF84B109342DFF8A8A10CBF012708
S31508011930002703F0868240F22E32934285F88D7095
S31508011940624A0CBF0127002703F06E82B3F5487F70
S3150801195085F88C705D4A0CBF0127002703F0578272
S3150801196040F22132934285F88B70584B0CBF012700
S31508011970002703F04182B9F5327F85F88A70534B07
S315080119800CBF0127002703F02C82B4F89E2185F8A5
S315080119904D70012E40F22A330CBF9BF89C1094F827
S315080119A0CA118BF84C109A420CBF0127002703F085
S315080119B00E8240F2C923994585F88970434B0CBFBD
S315080119C00127002703F0F881B4F89E2185F84C70A9
S315080119D0012E40F22B330CBF9BF89B1094F8CB11C8
S315080119E08BF84D109A420CBF0127002703F011848A
S315080119F040F2CA23994585F88870344B0CBF0127F4
S31508011A00002703F0FB83B4F89E3185F84B70012E4D
S31508011A100CBF9BF89A1094F8CC118BF84E10B3F5BD
S31508011A204B7F0CBF0127002703F0DE8340F2CB234F
S31508011A30994585F88770254B0CBF0127002703F0C8
S31508011A40C883B4F89E2185F84A70012E40F22D33D9
S31508011A500CBF9BF8991094F8CD118BF84F109A4248
S31508011A600CBF0126002603F0AA83B9F5627F85F823
S31508011A708660164A03F0958340F28531002389452D
S31508011A8082F8313003F08183114A85F83D301678A2
S31508011A90B4F89E21022E40F2EA330CBF9BF881105E
S31508011AA094F8CE118BF850109A420CBF01270027E3
S31508011AB003F0618340F28933994585F88570034BB4
S31508011AC00CBF0127002703F04B8305E00CC8002053
S31508011AD0F2C7002050C50020B4F89E2185F8307061
S31508011AE0022E40F2EB330CBF9BF8801094F8CF110D
S31508011AF08BF851109A420CBF0127002703F0268361
S31508011B0040F28A33994585F88470C34B0CBF012787
S31508011B10002703F01083B4F89E3185F82F70022E42
S31508011B200CBF9BF87F1094F8D0118BF85210B3F5BF
S31508011B307B7F0CBF0127002703F0F38240F28B332A
S31508011B40994585F88370B44B0CBF0127002703F02C
S31508011B50DD82B4F89E2185F82E70022E40F2ED330F
S31508011B600CBF9BF87E1094F8D1118BF853109A424A
S31508011B700CBF0127002703F0BF82B9F5637F85F8FB
S31508011B808270A54B0CBF0127002703F07F82B4F8AA
S31508011B909E2185F82D70022E40F2EE330CBF9BF87C
S31508011BA07D1094F8D2118BF854109A420CBF012774
S31508011BB0002703F0618240F28D33994585F88170DB
S31508011BC0954B0CBF0127002703F04B82B4F89E21E1
S31508011BD085F82C70022E40F2EF330CBF9BF87C106F
S31508011BE094F8D3118BF855109A420CBF0127002798
S31508011BF003F02D8240F28E33994585F88070864B25
S31508011C000CBF0127002703F01782B4F89E3185F827
S31508011C103C70022E0CBF9BF88C1094F8D4118BF8EB
S31508011C205610B3F57C7F0CBF0127002703F0FA8114
S31508011C3040F28F33994585F87F70774B0CBF0127A2
S31508011C40002703F0E481B4F89E3185F83B70022E33
S31508011C5040F2F1320CBF9BF88B1094F8D5118BF832
S31508011C6057109342DFF8B4A10CBF0127002703F0F0
S31508011C70C28140F2F632934285F87E70664A0CBFFD
S31508011C800127002703F0AA81B3F57A7F85F87D70CD
S31508011C90614A0CBF0127002703F0938140F2E9321C
S31508011CA0934285F87C705C4B0CBF0127002703F033
S31508011CB07D81B9F5647F85F87B70574B0CBF012789
S31508011CC0002703F06881B4F89E2185F83A70022E40
S31508011CD040F2F2330CBF9BF88A1094F8D6118BF8B0
S31508011CE058109A420CBF0127002703F04A8140F297
S31508011CF09133994585F87A70474B0CBF0127002720
S31508011D0003F03481B4F89E2185F83970022E40F229
S31508011D10F3330CBF9BF8891094F8D7118BF8591037
S31508011D209A420CBF0127002703F0168140F292332D
S31508011D30994585F87970384B0CBF0127002703F0C0
S31508011D400081B4F89E3185F83870022E0CBF9BF8D5
S31508011D50881094F8D8118BF85A10B3F57D7F0CBF0B
S31508011D600127002703F0E38040F29333994585F86C
S31508011D707870294B0CBF0127002703F0CD80B4F8F2
S31508011D809E3185F83770022E40F2F5320CBF9BF86A
S31508011D90871094F8D9118BF85B1093421F4F0CBF2B
S31508011DA00126002602F09087CA2B85F877601A4A21
S31508011DB00CBF0126002602F07987CB2B85F87660C1
S31508011DC0154A0CBF0126002602F06287CC2B85F83E
S31508011DD07560114A0CBF0126002602F04B87CD2BF0
S31508011DE085F874600C4A0CBF0126002602F0348778
S31508011DF0CE2B85F87360084A0CBF0126002602F02F
S31508011E001D87CF2B85F87260034A0CBF0126002671
S31508011E1002F0068704E000BF0CC8002050C5002068
S31508011E20D02B85F87160BB4A0CBF0126002602F04B
S31508011E30E986D12B85F87060B64A0CBF01260026C3
S31508011E4002F0D286D22B85F86F60B24A0CBF012602
S31508011E50002602F0BB86D32B85F86E60AD4A0CBF0F
S31508011E600126002602F0A486D42B85F86D60A94ABE
S31508011E700CBF0126002602F08D86D52B85F86C60ED
S31508011E80A44A0CBF0126002602F07686D62B85F8D1
S31508011E906B60A04A0CBF0126002602F06086C82B9B
S31508011EA085F86A609B4A0CBF0126002602F04A861D
S31508011EB0C92B85F86960974A0CBF0126002602F0EE
S31508011EC03486B3F5C97F85F86860924A0CBF012646
S31508011ED0002602F01C8640F29312934285F8676049
S31508011EE08C4A0CBF0126002602F00386B3F5CA7F89
S31508011EF085F86660874A0CBF0126002602F0EB8545
S31508011F0040F29512934285F86560824A0CBF012614
S31508011F10002602F0D285B3F5CB7F85F864607D4A49
S31508011F200CBF0126002602F0BA8540F297129342A9
S31508011F3085F86360774A0CBF0126002602F0A18561
S31508011F40B3F5CC7F85F86260724A0CBF012600267C
S31508011F5002F0898540F29912934285F861606D4ACB
S31508011F600CBF0126002602F07085B3F5CF7F85F8F0
S31508011F706060684A0CBF0126002602F05985B3F550
S31508011F80C87F85F85F60634A0CBF0126002602F008
S31508011F90428540F29112934285F85E605D4A0CBF14
S31508011FA00126002602F02A85B3F5CD7F85F85D6006
S31508011FB0584A0CBF0126002602F0128540F29B12F0
S31508011FC0934285F85C60534A0CBF0126002602F04D
S31508011FD0F984B3F5CE7F85F85B604E4A0CBF0126BE
S31508011FE0002602F0E18440F29D12934285F85A6078
S31508011FF0484B0CBF0126002602F0AC84B9F5FC7FDC
S3150801200085F85960434A02F0978440F2F511002396
S31508012010894582F89A3002F0B5833F4A85F89E30A1
S315080120201678B4F89E21012E40F25A230CBF9BF86C
S31508012030A51094F8DA118BF85C109A420CBF0127A7
S31508012040002702F0958340F2F913994585F85870EF
S31508012050304B0CBF0127002702F07F83B4F89E217D
S3150801206085F89970012E40F25B230CBF9BF8A410EA
S3150801207094F8DB118BF85D109A420CBF01270027F3
S3150801208002F06183B9F5FD7F85F85770214B0CBFC6
S315080120900127002702F04C83B4F89E3185F8987021
S315080120A0012E0CBF9BF8A31094F8DC118BF85E1077
S315080120B0B3F5177F0CBF0127002702F02F8340F2E3
S315080120C0FB13994585F85670124B0CBF012700275B
S315080120D002F01983B4F89E3185F89770012E40F203
S315080120E05D220CBF9BF8A21094F8DD118BF85F10E6
S315080120F093420A4F0CBF0126002602F0F88240F2ED
S315080121005E22934285F85560024A0CBF01260026D5
S3150801211006E000BF0CC8002008C8002050C50020F2
S3150801212002F0D882B3F5167F85F85460C74A0CBF0A
S315080121300126002602F0C18240F25922934285F80F
S315080121405360C24A0CBF0126002602F0A982013358
S315080121509BB2B3F5966F88BF0023B9F5967F85F8CC
S315080121605260129302F084820022B9F59E7F85F8A7
S31508012170C520B64B01F0A28740F23D11894583F887
S31508012180BD2040F07D8693F8BC30012B03D0B049C1
S3150801219001200DF047F90122002385F8BC2085F8B6
S315080121A0BB30A9F59773B3FA83F340F22F125B0993
S315080121B0914585F8BA30A54B43F0B68393F8B93003
S315080121C0012B03D0A34901200DF02CF9002301228C
S315080121D01F4685F8B23085F8AA309A461E460693F8
S315080121E085F8B920B9F1760F85F8A970974B43F0B0
S315080121F0D18393F8A830012B03D0974901200DF01C
S3150801220011F900239DF8182085F8A8201F4685F89E
S31508012210A76085F8A6A085F89F303E46BA463A4695
S3150801222006979DF8183085F89D30B9F5FB7F53461A
S315080122300892BE46854940F0B08691F89C30012B3C
S3150801224005D08649069201200DF0ECF8069A85F824
S315080122509C7085F89B2085F896A0B8F804300693FB
S3150801226085F89560002B00F0B886B9F52F7F01F047
S3150801227026820022B9F5337F85F85120734B02F087
S315080122804B8340F2CD21894583F8492043F0ED82FD
S3150801229093F84830012B03D0714901200DF0C2F89B
S315080122A00122002385F8482085F8473040F2BE23ED
S315080122B0C3EB0903B3FA83F340F2BF225B099145E5
S315080122C085F84630614B43F07D8293F84530012B02
S315080122D003D0644901200DF0A5F8002301221F4609
S315080122E085F83E3085F836301E469A46069385F8B7
S315080122F0452040F29632914585F83570534B43F0A7
S315080123009E8293F83430012B03D0574901200DF0F2
S3150801231089F89DF8183085F8343085F833A085F8A2
S31508012320326001200DF09AF8B4F8A0114F4E474AD1
S315080123304F4F01290CBF0123002333700BD192F8AB
S315080123402B20012A07D04B4B084619700DF040F88F
S315080123503378B7F8A01185F82B3002290CBF01266E
S3150801236000263A4B02F0CB82032985F82A60374BBF
S315080123700CBF0126002602F0B582042985F82960DA
S31508012380324B0CBF0126002602F09F82052985F8EB
S3150801239028602E4B0CBF0126002602F089820629E9
S315080123A085F82760294B0CBF0126002602F07482A6
S315080123B0072985F82660254B0CBF0126002602F061
S315080123C05E82082985F82560204B0CBF0126002668
S315080123D002F04882CA2985F824601C4B0CBF0126E5
S315080123E0002602F03282CB2985F82360174B0CBFF1
S315080123F00126002602F01C82CC2985F82260134B9F
S315080124000CBF0126002602F00682CD2985F8216037
S315080124100E4B0CBF0126002602F0F081CE2985F865
S3150801242020600A4B0CBF0126002602F0DB81CF296A
S31508012430EE77064B0CBF0126002602F0C781D0298C
S31508012440AE77024B0CBF0126002615E00CC800200A
S31508012450D5C90020D2C90020C2C90020B7C90020A9
S31508012460A7C90020A4C9002094C90020E8C80020F3
S3150801247050C50020F1C7002002F09C81C9296E775A
S31508012480904B0CBF0126002602F08881B1F5C97F61
S315080124902E778C4B0CBF0126002602F00F8040F2E6
S315080124A093139942EE76874B0CBF0126002601F05D
S315080124B0F987B1F5CA7FAE76824B0CBF0126002695
S315080124C001F0E48740F2951399426E767D4B0CBF75
S315080124D00126002601F0CE87B1F5CB7F2E76794B02
S315080124E00CBF0126002601F0B98740F297139942DD
S315080124F0EE75744B0CBF0126002601F0A387B1F5D2
S31508012500CC7FAE756F4B0CBF0126002601F08E8776
S3150801251040F2911399426E756A4B0CBF012600264B
S3150801252001F043870F292E7508D9A1F1C8030F2B8E
S3150801253004D9A1F5C8730F2B02F24E87624E012307
S31508012540337040F2592399420CBF0127002701F045
S31508012550208740F25A239942EF745A4B0CBF012740
S31508012560002701F00A8740F25B239942AF74554B65
S315080125700CBF0127002701F0F486B1F5177F6F74A8
S31508012580504B0CBF0127002701F0DF8640F25D237F
S3150801259099422F744B4B0CBF0127002701F0C986BE
S315080125A040F25E239942EF73464B0CBF0127002781
S315080125B001F0B38640F25F239942AF73414B0CBFDA
S315080125C00127002701F09D86B1F5187F6F733D4BF2
S315080125D00CBF0127002701F0888640F22133994272
S315080125E02F73384B0CBF0127002701F0C78740F22C
S315080125F022339942EF72334B0CBF0127002701F0B2
S31508012600B18740F223339942AF722E4B0CBF012793
S31508012610002701F09B87B1F5497F6F72294B0CBFE3
S315080126200127002701F0868740F2253399422F7248
S31508012630244B0CBF0127002701F0708740F226338F
S315080126409942EF711F4B0CBF0127002701F05A87EA
S3150801265040F227339942AF711A4B0CBF0127002765
S3150801266001F04487B1F54A7F6F71164B0CBF0127FC
S31508012670002701F02F8701312F718DB2B5F5AF6FA4
S315080126804FF0000088BF05460CF0E8FE0F4B104FCF
S31508012690188005F025F80F4B187005F027F80E4B32
S315080126A018600E4805F024F80D4BB8F806101860A6
S315080126B0C1B99BF8693003B1012114200CF030FA35
S315080126C0F9880FE00CC80020E8C70020CAC7002017
S315080126D040C5002015CA002000C800209CC100087A
S315080126E0FCC800209BF82C30BDF83C209BF82D0037
S315080126F0A4F8982184F8A831BDF830209BF82F302A
S31508012700A4F89A2184F8A9019BF82E209BF8300099
S3150801271084F8AB319BF8323084F8AA2184F8AC01ED
S315080127209BF831209BF8330084F8AE319BF835309D
S3150801273084F8AD2184F8AF019BF834209BF8360064
S3150801274084F8B1319BF8383084F8B02184ED588A81
S315080127509BF8372084ED598A84ED5A9A84ED5BBA41
S31508012760C4ED5C9A84F8B20184F8B4310E9B84F8FE
S31508012770B3211A68C4F874219DF840209BF839E002
S3150801278084F8C0219DF82C209BF83A709BF83B00F1
S315080127909BF83CC084F8C12184F8B5E19BF83D203B
S315080127A09BF83EE0B8F8043084F8B67184F8B701AE
S315080127B09BF83F709BF8400084F8B8C184F8B921AA
S315080127C09BF841C09BF8422084F8BAE19BF843E0A4
S315080127D084F8BE2184F8BB7184F8BC0184F8BDC1B4
S315080127E084F8BFE1AE4A1BB99DF8783082F8E43126
S315080127F0B8F808301BB99DF8703084F8A43171B95E
S315080128009BF86A309DF8642084F8DE2103B1012122
S3150801281015200CF085F99DF8683084F8DF319BF8AE
S315080128206E1001B1012108200CF07AF99BF870109D
S3150801283001B1012109200CF073F99BF86F1001B160
S3150801284001210A200CF06CF9149B197801B10121B8
S315080128500E200CF065F9BBF8281005200BF0F2FFE5
S31508012860D4F83C31D4F85421C4F83831D4F820319D
S31508012870D4F84011C4F85021D4F81C21C4F81C31ED
S31508012880D4F8F830C4F83C11C4F81821D4F8241146
S31508012890D4F8F420C4F8F430824BC4F82011C4F8F3
S315080128A0F020D4F8FC10D4F80021C4F8F81084ED0F
S315080128B0558A84ED508A84ED498AC4F8FC2084ED52
S315080128C0408A03F114015A6843F8042B8B42FAD162
S315080128D0754B84ED358A03F118015A6843F8042BC0
S315080128E08B42FAD1714B84ED288A03F11C015A688F
S315080128F043F8042B8B42FAD184ED198A684C234696
S3150801290004F120015A6843F8042B8B42FAD1B8F82E
S31508012910061084ED088A664F39B99BF8743003B1FD
S3150801292001211B200CF0FCF8F9880D9BBDF8580015
S315080129301A680A9BC4F88C21B8F802201B68C4F8E7
S315080129407831C4F87C31A4F89C01C4ED608AC4EDE1
S3150801295061AA84ED62AA524B1AB99DF87C2083F8C4
S31508012960E521B8F808301BB99DF8743084F8A5310B
S3150801297071B99BF875309DF8602084F8E02103B1A0
S31508012980012117200CF0CCF89DF86C3084F8E13160
S315080129909BF8791001B101210B200CF0C1F89BF8C5
S315080129A07B1001B101210C200CF0BAF89BF87A10C2
S315080129B001B101210D200CF0B3F8179B197801B16B
S315080129C0012110200CF0ACF8BBF82A1004200BF0FA
S315080129D039FF0A9BD4F85C211968D4F84C31D4F82C
S315080129E04801C4F84831D4F83031C4F85821C4F83C
S315080129F04401D4F83421D4F82C01C4F82C31D4F884
S31508012A001031C4F83021C4F82801D4F81421D4F8B7
S31508012A100C01C4F80C31274BC4F81021D4F808214D
S31508012A20C4F85C11C4F80801C4F84C11C4F834118F
S31508012A30C4F81411C4F8042103F114005A6843F8C0
S31508012A40042B8342FAD11C4BC4F8EC1003F118008D
S31508012A505A6843F8042B8342FAD1184BC4F8BC10C0
S31508012A6003F11C005A6843F8042B9842FAD1144B17
S31508012A70C4F8841003F120005A6843F8042B9842DD
S31508012A80FAD1B8F808306164054AFBB90D490E4B0D
S31508012A9009781B7882F8A61182F8A73116E000BFDB
S31508012AA050C5002010C60020D8C5002098C50020B2
S31508012AB040C5002028C60020F4C50020B8C500205E
S31508012AC074C50020FCC7002031CA00209BF8443099
S31508012AD0BDF848209BF84510A4F89E2184F8C23118
S31508012AE09BF846209BF8473084F8C31184F8C42123
S31508012AF09BF848109BF8492084F8C5319BF84A3061
S31508012B0084F8C61184F8C7219BF84B109BF84C2012
S31508012B1084F8C8319BF84D3084F8C91184F8CA2164
S31508012B209BF84E109BF84F2084F8CB319BF8503018
S31508012B3084F8CC1184F8CD219BF851109BF85220CA
S31508012B4084F8CE319BF8533084F8CF1184F8D0211C
S31508012B509BF854009BF8552084F8D1319BF85630E0
S31508012B603178A4F8A05184F8D2019BF857509BF804
S31508012B70580084F8D32184F8D4319BF859209BF85E
S31508012B805A3084F8D5519BF85B6084F8D6019BF8D6
S31508012B905C5084F8D7219BF85D0084F8D8319BF8FE
S31508012BA05E209BF85F3084F8D96184F8DA5184F89D
S31508012BB0DB0184F8DC2184F8DD3101B1012118201B
S31508012BC00BF0AEFFB8F80230994A01339BB2092BD4
S31508012BD088BF00235380B8F80430954A01339BB265
S31508012BE0632B88BF00239380B8F80630904A0133D7
S31508012BF09BB2B3F5C87F28BF0023D380B8F8083045
S31508012C008B4A01339BB2B3F5FA6F28BF00231381B0
S31508012C1049B0BDEC0C8BBDE8F08F864A864BD2EDE8
S31508012C20008AD3ED007AF4EEE78AF1EE10FA02F3A0
S31508012C308E84824B93ED00AAF4EECA8AF1EE10FA5D
S31508012C40C2F25985F4EEE78AF1EE10FA02F25385DB
S31508012C50DDE910010022002314F02AFA002803F006
S31508012C60748578EECA8AB2EE007AF3EE087AE8EE4F
S31508012C70877A9FED737AF4EEC77AF1EE10FA42F38A
S31508012C805E84704B4FF084421A600F9A002A02F054
S31508012C902D836D4AD3ED006AD2ED007AF4EEE76A28
S31508012CA0F1EE10FA42F3C083DFED686A684B87EEEE
S31508012CB0A67AC3ED007A8BED057A002F7EF484A8F7
S31508012CC094F8E331634A022B02D8013382F8E331DF
S31508012CD094F895315F4A03F0020101F0FF0E0029CD
S31508012CE042F01A835C4892F894110690074643F01D
S31508012CF0020387F800E082F895310123574E5848B8
S31508012D00337063F3071182F894114FF07E52026013
S31508012D10B8F80670002F3EF45FA8524E069A96F848
S31508012D2040301778002B42F0B98696F84130002BCF
S31508012D3042F0C7869BF8DE304B4A002B42F00D83E2
S31508012D4092F8E170003718BF0127484B14931A46C9
S31508012D5096F842301770002B42F0C38696F8433036
S31508012D60002B42F08286DBF8E4304149B8F80620A8
S31508012D7023F47F0323F47F43003318BF01230B7029
S31508012D80002A7EF482A81A93FEF75AB8B8F8087092
S31508012D90002F03F00785B8F80630254A002B41F0C5
S31508012DA0B680344B0893089B2E4E1B7894F8E02185
S31508012DB018930C92D6E908010022002314F078F939
S31508012DC038B1189B0C9A934294BF002301238BF8C0
S31508012DD0DC3000220023D6E90A0114F069F938B17A
S31508012DE0189B0C9A93422CBF002301238BF8DD30E4
S31508012DF0BBF8DC30003318BF01238BF87430002F81
S31508012E003EF485AB1C4B1D4A1B7817921B93FEF7A4
S31508012E10B2BB0022134685F844200C92FEF766BC25
S31508012E2001238BF879308BF87A30FEF70FBC00BF97
S31508012E3040C5002018000020300000203400002082
S31508012E400000004208C9002004CA002000007042A0
S31508012E5010CA002050C50020F8C80020FCC7002071
S31508012E6034C50020A8C0000810C90020E0C8002009
S31508012E70C5C70020C8C70020C6C70020B8C700209C
S31508012E80B9F59F7F83F8BC2041F0268193F8BB30C2
S31508012E90012B03D0D24901200CF0C4FA40F22F13BA
S31508012EA0C3EB0903B3FA83F35B09002285F8B9304A
S31508012EB0A9F1760385F8BA20A9F17507A9F1740273
S31508012EC0B3FA83F3A9F16606A9F1670A0121B2FAF1
S31508012ED082F2B7FA87F75B09B6FA86F6BAFA8AFA78
S31508012EE085F8BB1052097F09069376094FEA5A1AE3
S31508012EF00023B9F1740F85F8B230BA4B41F00D8150
S31508012F0093F8AA30012B05D0B749089201200CF095
S31508012F1089FA089A9DF8183085F8AA2085F8A970C3
S31508012F2085F8A83085F8A76040F2F713C3EB0900C6
S31508012F3040F2FD164242C6EB090E4241A9F5FF7C55
S31508012F40DEF1000646EB0E06DCF1000141EB0C0151
S31508012F500691A9F5FB714F42A9F5FE7085F8A6A061
S31508012F604F41D0F1000A4AEB000AB9F5FA7F9D4BA9
S31508012F7041F00B8193F89F30012B05D09B490892AC
S31508012F8001200CF04FFA089A08920121069A85F851
S31508012F909F105346BE4685F89D2040F2F71081459D
S31508012FA085F89CE08F4942F00A8591F89B10012922
S31508012FB005D08F49069301200CF034FA069B85F853
S31508012FC09630B8F804309DF8202085F89B200693A2
S31508012FD085F89560002B7FF448A99BF85D309BF82E
S31508012FE05C00DB0903EB4000C0B213F05BFD7AA37A
S31508012FF0D3E9002313F018FC02460B4600204FF0D4
S31508013000804112F0C9FB9BF85D30CDE9240148A93E
S3150801301003F07F0341F8843D4FF0020A2CAE0123E9
S315080130200A46744808918DE840041946FDF75CF98B
S315080130302EAF01239BF85E00089A00971946279040
S31508013040CDF804A06B48FDF74FF9069A304651466C
S31508013050FDF7BCF9069ACDE9200138465146FDF738
S31508013060B5F90022CDE922014FF07C53DDE92001B3
S3150801307013F08EFD002206460F464FF07A53DDE91E
S31508013080220113F085FD02460B463046394613F0F8
S31508013090CDFB06469BF85F000F4613F003FD02467B
S315080130A00B463046394613F0C1FB4FF04042524BAE
S315080130B0524E13F0BBFB4FF000524FF07A5313F008
S315080130C067FDDDE9242313F063FD14F011F89BF87D
S315080130D045309BF844203060D80900EB4200C0B265
S315080130E013F0E0FC3CA3D3E9002313F09DFB024651
S315080130F00B4600204FF0804112F04EFB9BF84570BD
S31508013100089ACDF804A030AE0123CDE9240107F0D1
S315080131107F071946009637482797FDF7E5F832AF36
S3150801312001239BF84600089A009719462790CDF87F
S3150801313004A03048FDF7D8F8069A30465146FDF7FF
S3150801314045F9069ACDE9200138465146FDF73EF97B
S315080131500022CDE922014FF07C53DDE9200113F06D
S3150801316017FD002206460F464FF07A53DDE9220184
S3150801317013F00EFD02460B463046394613F056FB50
S3150801318006469BF847000F4613F08CFC02460B4691
S315080131903046394613F04AFB4FF04042164B184E5B
S315080131A013F044FB4FF000524FF07A5313F0F0FC42
S315080131B0DDE9242313F0ECFC13F09AFF9BF8493060
S315080131C09BF848203060D80900EB4200C0B213F0E2
S315080131D069FC17E0AFF300800000000000C05F4003
S315080131E0D4C900200CC80020C4C90020B9C90020D0
S315080131F0B6C900208CC00008FFFF5F4108CA00203D
S3150801320018CA0020D4A3D3E9002313F00DFB024604
S315080132100B4600204FF0804112F0BEFA9BF8497028
S31508013220089ACDF804A034AE0123CDE9240107F0AC
S315080132307F0719460096CA482797FDF755F836AF0E
S3150801324001239BF84A00089A009719462790CDF85A
S3150801325004A0C348FDF748F8069A30465146FDF7DB
S31508013260B5F8069ACDE9200138465146FDF7AEF87C
S315080132700022CDE922014FF07C53DDE9200113F04C
S3150801328087FC002206460F464FF07A53DDE92201F4
S3150801329013F07EFC02460B463046394613F0C6FA51
S315080132A006469BF84B000F4613F0FCFB02460B46FD
S315080132B03046394613F0BAFA4FF04042A94BAA4EA6
S315080132C013F0B4FA4FF000524FF07A5313F060FC42
S315080132D0DDE9242313F05CFC13F00AFF9BF84D305B
S315080132E09BF84C203060D80900EB4200C0B213F0BD
S315080132F0D9FB99A3D3E9002313F096FA02460B46A4
S3150801330000204FF0804112F047FA9BF84D70089A59
S31508013310CDF804A038AE0123CDE9240107F07F07D3
S31508013320194600968E482797FCF7DEFF3AAF012328
S315080133309BF84E00089A009719462790CDF804A0E5
S315080133408748FCF7D1FF069A30465146FDF73EF805
S31508013350069ACDE9200138465146FDF737F800228D
S31508013360CDE922014FF07C53DDE9200113F010FC71
S31508013370002206460F464FF07A53DDE9220113F083
S3150801338007FC02460B463046394613F04FFA064605
S315080133909BF84F000F4613F085FB02460B46304655
S315080133A0394613F043FA4FF040426E4B13F03EFA9A
S315080133B04FF000524FF07A5313F0EAFBDDE924236C
S315080133C013F0E6FB13F094FE9BF8513067499BF81E
S315080133D050200860D80900EB4200C0B213F062FB26
S315080133E05DA3D3E9002313F01FFA02460B4600201A
S315080133F04FF0804112F0D0F99BF85170089ACDF838
S3150801340004A03CAE0123CDE9240107F07F07194644
S31508013410009653482797FCF767FF3EAF01239BF8B1
S315080134205200089A009719462790CDF804A04C48EF
S31508013430FCF75AFF069A30465146FCF7C7FF069A2B
S31508013440CDE9200138465146FCF7C0FF0022CDE9F7
S3150801345022014FF07C53DDE9200113F099FB00228C
S3150801346006460F464FF07A53DDE9220113F090FB29
S3150801347002460B463046394613F0D8F906469BF8FC
S3150801348053000F4613F00EFB02460B4630463946EB
S3150801349013F0CCF94FF04042324B13F0C7F94FF015
S315080134A000524FF07A5313F073FBDDE9242313F02E
S315080134B06FFB13F01DFE9BF855302D499BF85420E0
S315080134C00860D80900EB4200C0B213F0EBFA22A358
S315080134D0D3E9002313F0A8F902460B4600204FF062
S315080134E0804112F059F99BF85570089ACDF804A055
S315080134F040AE0123CDE9240107F07F07194600965E
S3150801350017482797FCF7F0FE42AF01239BF85600B0
S31508013510089A009719462790CDF804A01048FCF799
S31508013520E3FE069A30465146FCF750FF069ACDE966
S31508013530200138465146FCF749FF0022CDE9220110
S315080135404FF07C53DDE9200113F022FB00220646E9
S315080135500F464FF07A530DE00000000000C05F40AF
S315080135608CC00008FFFF5F41DCC80020E4C70020CB
S3150801357004C90020DDE9220113F00AFB02460B46C5
S315080135803046394613F052F906469BF857000F465E
S3150801359013F088FA02460B463046394613F046F9C7
S315080135A04FF04042C64B13F041F94FF000524FF02D
S315080135B07A5313F0EDFADDE9242313F0E9FA13F04F
S315080135C097FD9BF85930BF499BF858200860D809E0
S315080135D000EB4200C0B213F065FAB7A3D3E90023A2
S315080135E013F022F902460B4600204FF0804112F0F3
S315080135F0D3F89BF85970089ACDF804A044AE012374
S31508013600CDE9200107F07F0719460096AE482797AE
S31508013610FCF76AFE012346A99BF85A70089A00919D
S31508013620A948CDF804A019462797FCF75DFE069A26
S3150801363030465146FCF7CAFE46AB06460F46069A81
S3150801364018465146FCF7C2FE0022CDE906014FF0A5
S315080136507C533046394613F09BFA002206460F463C
S315080136604FF07A53DDE9060113F092FA02460B464A
S315080136703046394613F0DAF806469BF85B000F46E2
S3150801368013F010FA02460B463046394613F0CEF8C7
S315080136904FF040428A4B13F0C9F84FF000524FF0F1
S315080136A07A5313F075FADDE9202313F071FA13F052
S315080136B01FFD864BB9F52F7F18607EF4DAAD95F8B4
S315080136C05130012B03D0824901200BF0ABFE40F2A9
S315080136D0CD23C3EB0903B3FA83F35B09012285F80A
S315080136E04830002385F8512085F8493040F2CE2329
S315080136F0C3EB0903B3FA83F340F2BE225B09914592
S3150801370085F84730734B7EF4D1AD93F84630012BDB
S3150801371003D0714901200BF085FE002301211E46C5
S3150801372085F8453085F83E309A4606931F461A466F
S3150801373085F8461040F29531894585F83620654B5E
S315080137407EF4D7AD93F83530012B03D063490120B8
S315080137500BF068FE9DF8183085F8357085F8343019
S3150801376085F833A0FEF7DBBD524602212AA8FCF7ED
S315080137702DFE524606460F4628A80221FCF726FECC
S315080137800022CDE908014FF07C533046394613F043
S31508013790FFF9002206460F464FF07A53DDE9080184
S315080137A013F0F6F902460B463046394613F03EF851
S315080137B006469BF843000F4613F074F902460B467A
S315080137C03046394613F032F84FF040423C4B13F07D
S315080137D02DF84FF000524FF07A5313F0D9F9DDE97D
S315080137E0062313F0D5F913F083FC3D4B1860129BA1
S315080137F007EE900A002B41F0DD85129B394A8BF8BA
S315080138006130BBF86030D2ED006AB1EE087A003358
S31508013810F4EEC76A18BF0123F1EE10FA8BF862308D
S3150801382042F33981304BD3ED006AF4EEC76AF1EE03
S3150801383010FACCBF012200222C4B8BF86320D3ED62
S31508013840006AB1EE087AF4EEC76AF1EE10FA42F3AD
S315080138501F81274BD3ED006AF4EEC76AF1EE10FA21
S31508013860CCBF01220022234B8BF86420D3ED006ADA
S31508013870B1EE087AF4EEC76AF1EE10FA42F3058161
S31508013880F4EEC77AF1EE10FACCBF012300238BF8C8
S315080138906530FDF7D4B848AA9BF8423042F8843D12
S315080138A028A9022001230190009107481946FCF72F
S315080138B01BFDFDF7A9B800BF0000000000C05F406E
S315080138C0FFFF5F41ECC700208CC0000830C500200F
S315080138D0AFC900200CC80020A5C9002095C9002041
S315080138E0BCC700204CC5002034CA00200CCA0020E1
S315080138F01CCA0020E0C70020109B9BF8410003EB7F
S31508013900D010C0B213F0CEF8CFA3D3E9002312F03A
S315080139108BFF02460B4600204FF0804111F03CFF19
S315080139209BF8413048AA03F07F03CDE9060142F826
S31508013930843D2AA9022601238DE84200C448194676
S31508013940FCF7D2FCFDF747B81A4602212AA80893C4
S31508013950FCF73CFD089B06460F461A46022128A895
S31508013960FCF734FD0022CDE908014FF07C533046BF
S31508013970394613F00DF9002206460F464FF07A53E1
S31508013980DDE9080113F004F902460B4630463946CB
S3150801399012F04CFF06469BF83F000F4613F082F8DB
S315080139A002460B463046394612F040FF4FF0404278
S315080139B0A84B12F03BFF4FF000524FF07A5313F029
S315080139C0E7F8DDE9062313F0E3F813F091FB07EEB8
S315080139D0900AB1EE087AA04BF4EEC77AF1EE10FA26
S315080139E01860CCBF012300232093FCF7C1BF48AA66
S315080139F09BF83E3042F8843D28A902200123019014
S31508013A00009193481946FCF76FFCFCF797BF0F9B8B
S31508013A109BF83D0003EBD010C0B213F043F88AA31C
S31508013A20D3E9002312F000FF02460B4600204FF0AF
S31508013A30804111F0B1FE9BF83D3048AA03F07F039F
S31508013A40CDE9060142F8843D2AA9022601238DE81B
S31508013A5042007F481946FCF747FCFCF756BF1A4651
S31508013A6002212AA80893FCF7B1FC089B06460F46D3
S31508013A701A46022128A8FCF7A9FC0022CDE908016B
S31508013A804FF07C533046394613F082F80022064639
S31508013A900F464FF07A53DDE9080113F079F802462B
S31508013AA00B463046394612F0C1FE06469BF83B00E6
S31508013AB00F4612F0F7FF02460B463046394612F01A
S31508013AC0B5FE4FF04042634B12F0B0FE4FF0005284
S31508013AD04FF07A5313F05CF8DDE9062313F058F832
S31508013AE013F006FB07EE900AB1EE087A5B4BF4EE8B
S31508013AF0C77AF1EE10FA1860CCBF0123002312939E
S31508013B00FCF7D0BE48AA9BF83A3042F8843D28A96A
S31508013B1002200123019000914D481946FCF7E4FB68
S31508013B20FCF7A6BE0E9B9BF8390003EBD010C0B27A
S31508013B3012F0B8FF44A3D3E9002312F075FE02463A
S31508013B400B4600204FF0804111F026FE9BF83930D4
S31508013B5048AA03F07F03CDE9060142F8843D2AA964
S31508013B60022601238DE8420039481946FCF7BCFBB9
S31508013B70FCF765BE524602212AA8FCF727FC5246E5
S31508013B8006460F4628A80221FCF720FC0022CDE9AB
S31508013B9008014FF07C533046394612F0F9FF0022EE
S31508013BA006460F464FF07A53DDE9080112F0F0FF99
S31508013BB002460B463046394612F038FE06469BF851
S31508013BC037000F4612F06EFF02460B46304639465D
S31508013BD012F02CFE4FF040421E4B12F027FE4FF01A
S31508013BE000524FF07A5312F0D3FFDDE9062312F0A3
S31508013BF0CFFF13F07DFA1A4B1860169B07EE900A51
S31508013C00002B01F0D283179B002B02F01281B1EE33
S31508013C10087AF4EEC77AF1EE10FACCBF0123002335
S31508013C2001F0C4BB48AA9BF8363042F8843D28A95E
S31508013C30022001230190009105481946FCF754FB1F
S31508013C40FCF784BDAFF300800000000000C05F40B0
S31508013C508CC00008FFFF5F411CCA002034CA00203F
S31508013C60E0C700200B9B9BF8350003EBD010C0B2D0
S31508013C7012F018FFDCA3D3E9002312F0D5FD0246A2
S31508013C800B4600204FF0804111F086FD9BF8353038
S31508013C9048AA03F07F03CDE9060142F8843D2AA923
S31508013CA0022601238DE84200D1481946FCF71CFB80
S31508013CB0FCF734BD1A4602212AA80893FCF786FBAD
S31508013CC0089B06460F461A46022128A8FCF77EFBE2
S31508013CD00022CDE908014FF07C533046394612F0EF
S31508013CE057FF002206460F464FF07A53DDE90801D1
S31508013CF012F04EFF02460B463046394612F096FD43
S31508013D0006469BF833000F4612F0CCFE02460B46D8
S31508013D103046394612F08AFD4FF04042B54B12F053
S31508013D2085FD4FF000524FF07A5312F031FFDDE96D
S31508013D30062312F02DFF13F0DBF907EE900AB1EE18
S31508013D40087AAD4BF4EEC77AF1EE10FA1860CCBFDB
S31508013D50012300231793FCF7B1BC48AA9BF832301C
S31508013D6042F8843D28A90220012301900091A04828
S31508013D701946FCF7B9FAFCF789BC089B9BF8310090
S31508013D8003EBD010C0B212F08DFE97A3D3E900233E
S31508013D9012F04AFD02460B4600204FF0804111F011
S31508013DA0FBFC9BF8313048AA03F07F03CDE90601F5
S31508013DB042F8843D2AA9022601238DE842008C484F
S31508013DC01946FCF791FAFCF749BC1A4602212AA8BA
S31508013DD00693FCF7FBFA069B06460F461A4602218E
S31508013DE028A8FCF7F3FA0022CDE906014FF07C5327
S31508013DF03046394612F0CCFE002206460F464FF0F1
S31508013E007A53DDE9060112F0C3FE02460B46304637
S31508013E10394612F00BFD06469BF82F000F4612F0A5
S31508013E2041FE02460B463046394612F0FFFC4FF07A
S31508013E304042704B12F0FAFC4FF000524FF07A53A1
S31508013E4012F0A6FE0B460246DDE91401CDE906236A
S31508013E5012F09EFE13F04CF907EE900AB1EE087ABD
S31508013E60664BF4EEC77AF1EE10FA1860CCBF01235F
S31508013E7000231693FCF7C2BB48AA9BF82E3042F8DA
S31508013E80843D28A90220012301900091584819462A
S31508013E90FCF72AFAFCF79ABB9BF82D0006EBD01023
S31508013EA0C0B212F0FFFD50A3D3E9002312F0BCFC07
S31508013EB002460B4600204FF0804111F06DFC9BF83D
S31508013EC02D3048AA03F07F03CDE9140142F8843D59
S31508013ED02AA9022601238DE8420045481946FCF71E
S31508013EE003FAFCF75BBB02200AF0D0FD444C2070B4
S31508013EF003200AF0CBFD434B1870002801F05282CB
S31508013F002078031C18BF01230C93FCF795BA002FE0
S31508013F1002F025823C4B16891793FDF77FBB95F86E
S31508013F20A330012B3CF442AB384901200BF07AFA55
S31508013F30FCF73CBB95F8A420012A3CF421AB344993
S31508013F4001200BF06FFAB8F80430FCF719BB93F8A7
S31508013F50B130012B3CF4F7AA2E4901200BF062FA85
S31508013F60B4F89A21FCF7EFBA2B4D95F8A530012B39
S31508013F7001F02F82294901200BF054FABAF89A2147
S31508013F80FCF7D8BA95F8A020012A3CF459AB244984
S31508013F9001200BF047FAB8F80430FCF751BB95F845
S31508013FA0A130012B3CF433AB1E4901200BF03AFA40
S31508013FB0B7F89A21FCF72BBB95F8B030012B3CF4E6
S31508013FC055AB194901200BF02DFAFCF74FBB95F8B3
S31508013FD0A230012B3CF402AB144901200BF022FA62
S31508013FE0FCF7FCBAAFF300800000000000C05F4098
S31508013FF08CC00008FFFF5F410CCA00204CC5002099
S31508014000DAC8002028CA0020B8C70020BDC9002088
S31508014010BEC90020D9C700200CC80020BFC900208E
S31508014020BAC90020BBC90020CAC90020BCC90020E2
S3150801403095F8AE30012B3CF44AABE24901200BF06E
S31508014040F1F9B7F89A21FCF742BB95F8AF30012B85
S315080140503CF424ABDC4901200BF0E4F9FCF71EBB68
S3150801406095F8AC30012B3CF461ABD84901200BF033
S31508014070D9F9FCF75BBB95F8AD20012A3CF440ABB6
S31508014080D34901200BF0CEF9B8F80430FCF738BB58
S3150801409095F8BE30012B3CF4C1ACCE4901200BF09A
S315080140A0C1F9FCF7BBBC95F8BF30012B3CF49CACBD
S315080140B0C94901200BF0B6F9FCF796BC93F8BD3057
S315080140C0012B03D0C54901200BF0ACF901220023CD
S315080140D085F8BD2085F8BC30A9F59F73B3FA83F33B
S315080140E05B09B9F5977F85F8BB30BD4B7EF459A8B6
S315080140F093F8BA30012B03D0BA4901200BF092F993
S31508014100002301219A4685F8B93085F8B2301E4652
S3150801411006931F461A4685F8BA10B9F1750F85F840
S31508014120AA20AF4B7EF45EA893F8A930012B03D0E1
S31508014130AD4901200BF076F99DF8182085F8A820DD
S3150801414040F2F713C3EB090240F2FD11A9F5FF731B
S3150801415085F8A97085F8A76085F8A6A0C1EB0906B8
S31508014160B3FA83F3A9F5FB77A9F5FE7AB2FA82F2D7
