S02100002E2E2F4368617267655F325F56315F467265654368617267652E737265638C
S31508004000DC3E0120591002080000000000000000F4
S315080040100000000000000000000000000000000092
S31508004020000000000000000000000000398E0108B2
S315080040300000000000000000D58E0108258F010849
S315080040400000000000000000000000000000000062
S315080040500000000000000000000000000000000052
S3150800406000000000A5DE01080000000000000000B6
S315080040700000000000000000000000000000000032
S31508004080000000000000000000000000810F020888
S31508004090390F02085D0F0208A50F0208000000008C
S315080040A0299701081597010801970108F196010853
S315080040B0DD960108C9960108B596010800000000BA
S315080040C000000000000000000000000000000000E2
S315080040D00000000031F3010849F3010861F3010803
S315080040E00000000000000000DDF3010800000000E9
S315080040F0A19601088D9601087D960108000000002A
S315080041000000000091F30108000000000000000014
S315080041100000000000000000000000000000000091
S3150800412000000000000000000000000095F30108F0
S3150800413000000000D5DE010800000000111002088A
S31508004140C90F0208ED0F0208351002080DF4010820
S3150800415000000000000000000000000079F30108DC
S315080041600000000000000000000000000000000041
S315080041700000000000000000000000000000000031
S311080041800000000000000000EE11AA5527
S3150800C000000000000000803F0000803F0000803FE5
S3150800C01000000040000000000000C03F0000F040A3
S3150800C0200000284100004841CDCC4CBE000080BF2E
S3150800C030000048C1000028C10000803F0000000041
S3150800C0400000000000000000000000000000803F23
S3150800C0500000803F0000803F0000803F0000803FD6
S3150800C0600000000000000000000000000000803F03
S3150800C0700000803F000000000000803F0000803F75
S3150800C0800000803F00000000000000000000008063
S3150800C090000100000101000001000101000000008C
S3150800C0A00102030405060700000000000000F03F37
S3150800C0B00000000000000000000000000000000072
S3150800C0C0000000000000F03F000000000000F03F04
S3150800C0D00000000000000000000000000000000052
S3150800C0E0000000000000F03F01000001010000010F
S3150800C0F0000000000000F03F000000000000000003
S3150800C1000000000000000000000000000000F03FF2
S3150800C110000000000000F03F0000000000000000E2
S3150800C1200000000000000000000000000000F03FD2
S3150800C130000000000000F03F0000000000000000C2
S3150800C1400000000000000000000000000000F03FB2
S3150800C150000000000000F03F0000000000000000A2
S3150800C1600000000000000000000000000000F03F92
S3150800C1700A0A0A004368617267655F325F56315F73
S3150800C180467265654368617267655F736F66747743
S3150800C19061726549445F76315F3033303631395FD5
S3150800C1A031373234313400004170704374726C5444
S3150800C1B061736B00200000000014024008000900AB
S3150800C1C0200000000014024010000E0020000000AD
S3150800C1D00014024020000F00200000000014024056
S3150800C1E04000040020000000001402408000050002
S3150800C1F02000000000140240000106002000000094
S3150800C200001402400002070020000000001402404B
S3150800C21000040800040000000008024001000A00AB
S3150800C220040000000008024004000C004144436377
S3150800C2306F6E76657273696F6E5461736B0000007A
S3150800C2402E2E2F626C6F636B7365742F7274772F43
S3150800C25053544D33322F7372632F686561705F34A0
S3150800C2602E630000546D724370754C6F6164000054
S3150800C2702E2E2F626C6F636B7365742F7274772F13
S3150800C28053544D33322F7372632F7461736B732E4D
S3150800C2906300000049444C45000000002E2E2F6222
S3150800C2A06C6F636B7365742F7274772F53544D33A9
S3150800C2B0322F7372632F74696D6572732E63000073
S3150800C2C0546D7220537663002E2E2F626C6F636B4B
S3150800C2D07365742F7274772F53544D33322F7372DC
S3150800C2E0632F53544D33325F453430372F6D6163B6
S3150800C2F02E6300004D61634E65745461736B0000D4
S3150800C300457643686E6C3100457643686E6C32003C
S3150800C310457643686E6C33002E2E2F626C6F636B06
S3150800C3207365742F7274772F53544D33322F73728B
S3150800C330632F53544D33325F453430372F706F7245
S3150800C340742E630000000140010000000201000095
S3150800C3501000000000100240000209001000000052
S3150800C3600010024000080B00000400400200000014
S3150800C3700102000001000000000002404000060023
S3150800C38002000000000402402000050000080040EA
S3150800C390040000000102000008000000000C024032
S3150800C3A000100C0008000000000C024000200D00E0
S3150800C3B0000401400200000002030000040000001F
S3150800C3C00008024040000600040000000008024081
S3150800C3D0800007005443502F49500000040006000F
S3150800C3E00A0005000C0002000400080008000A0004
S3150800C3F032000A001C0020009400200014001000DF
S3150800C40030001400140010001000040670F200201A
S3150800C41078F2002068F200207CF200200102030472
S3150800C42005060707070707070700000003060C1895
S3150800C43030607800FFFFFFFF00000000FFFFFFFFEE
S3150800C440FFFF00000000000000000000455F6C6967
S3150800C4506E6B000010000000001002400001000092
S3150800C460010008001000000000100240000400014E
S3150800C47001000A001000000000100240001000022F
S3150800C48001000C001000000000100240000200002D
S3150800C4900100090010000000001002400008000119
S3150800C4A001000B00100000000010024000200002EE
S3150800C4B001000D00100000000010024000400003BB
S3150800C4C001000E00010000000000024020000100EB
S3150800C4D001000500010000000000024040000200C3
S3150800C4E002000600020000000004024020000201CB
S3150800C4F00200050008000000000C024000100300BE
S3150800C50002000C0008000000000C02400020030195
S3150800C51002000D000400000000080240400004006C
S3150800C5200300060004000000000802408000040121
S3150800C530030007001000000000100240200005005C
S3150800C540030005001000000000100240400005012D
S3150800C5500300060020000000001402404000060008
S3150800C56003000600200000000014024080000700B7
S3150800C5700300070020000000001402400001080024
S3150800C580090008002000000000140240000209000B
S3150800C590090009000000014001000000020119001D
S3150800C5A0000000400100000001021C0000040040D9
S3150800C5B00200000001021D000008004004000000FF
S3150800C5C001021E00000401400200000002012C00C6
S3150800C5D0004001400000010002011800004401402B
S3150800C5E00000020002011900004801400000040092
S3150800C5F002011A00001C00408000000001022C0005
S3150800C600002000400001000001022D000400000087
S3150800C610000802400100000020000000001402404B
S3150800C62040000000200000000014024080000000C6
S3150800C6302000000000140240000100002000000055
S3150800C640001402400002000020000000001402400E
S3150800C6500004000002000000000402408000000000
S3150800C6600200000000040240400000001000000024
S3150800C67000100240040000001000000000100240F4
S3150800C680100000001000000000100240200000000A
S3150800C69010000000001002404000000040000000AA
S3150800C6A00018024080000000400000000018024008
S3150800C6B000010000400000000018024000100000C1
S3150800C6C04000000000180240008000000100000041
S3150800C6D000000240100000000200000000040240B2
S3150800C6E02000000001000000000002404000000099
S3150800C6F001000000000002402000000008000000C1
S3150800C700000C02400100000008000000000C024076
S3150800C7100200000008000000000C024004000000AF
S3150800C72008000000000C0240080000000800000095
S3150800C730000C02401000000008000000000C024037
S3150800C7402000000008000000000C02404000000025
S3150800C75008000000000C02408000000008000000ED
S3150800C760000C02400001000008000000000C024016
S3150800C7700002000008000000000C0240000400004F
S3150800C78008000000000C0240000800000800000035
S3150800C790000C02400010000008000000000C0240D7
S3150800C7A00020000008000000000C024000400000C5
S3150800C7B008000000000C0240008000001000000085
S3150800C7C000100240010000001000000000100240A6
S3150800C7D002000000100000000010024008000000DF
S3150800C7E01000000000100240800000001000000049
S3150800C7F00010024000010000100000000010024076
S3150800C80000020000100000000010024000040000B2
S3150800C8101000000000100240000800001000000090
S3150800C8200010024000100000100000000010024036
S3150800C8300020000010000000001002400040000028
S3150800C84010000000001002400080000020000000D8
S3150800C85000140240010000002000000000140240FD
S3150800C860020000002000000000140240040000003E
S3150800C870200000000014024008000000200000000C
S3150800C88000140240100000002000000000140240BE
S3150800C89020000000200000000014024000080000EC
S3150800C8A020000000001402400010000020000000D4
S3150800C8B0001402400020000020000000001402407E
S3150800C8C00040000020000000001402400080000024
S3150800C8D0400000000018024001000000400000006F
S3150800C8E00018024002000000400000000018024044
S3150800C8F00400000040000000001802400800000084
S3150800C900400000000018024010000000400000002F
S3150800C91000180240200000004000000000180240F5
S3150800C920400000004000000000180240000200001D
S3150800C930400000000018024000040000400000000B
S3150800C94000180240000800004000000000180240DD
S3150800C95000200000400000000018024000400000CF
S3150800C9600100000000000240010000000400000071
S3150800C97000080240010000002000000000140240E8
S3150800C9804000000020000000001402408000000063
S3150800C99020000000001402400001000020000000F2
S3150800C9A000140240000200002000000000140240AB
S3150800C9B0000400000200000000040240800000009D
S3150800C9C002000000000402404000000010000000C1
S3150800C9D00010024004000000100000000010024091
S3150800C9E010000000100000000010024020000000A7
S3150800C9F01000000000100240400000004000000047
S3150800CA0000180240800000004000000000180240A4
S3150800CA10000100004000000000180240001000005D
S3150800CA2040000000001802400080000001000000DD
S3150800CA30000002401000000002000000000402404E
S3150800CA402000000001000000000002404000000035
S3150800CA50010000000000024020000000080000005D
S3150800CA60000C02400100000008000000000C024013
S3150800CA700200000008000000000C0240040000004C
S3150800CA8008000000000C0240080000000800000032
S3150800CA90000C02401000000008000000000C0240D4
S3150800CAA02000000008000000000C024040000000C2
S3150800CAB008000000000C024080000000080000008A
S3150800CAC0000C02400001000008000000000C0240B3
S3150800CAD00002000008000000000C024000040000EC
S3150800CAE008000000000C02400008000008000000D2
S3150800CAF0000C02400010000008000000000C024074
S3150800CB000020000008000000000C02400040000061
S3150800CB1008000000000C0240008000001000000021
S3150800CB200010024001000000100000000010024042
S3150800CB30020000001000000000100240080000007B
S3150800CB4010000000001002408000000010000000E5
S3150800CB500010024000010000100000000010024012
S3150800CB60000200001000000000100240000400004F
S3150800CB70100000000010024000080000100000002D
S3150800CB8000100240001000001000000000100240D3
S3150800CB9000200000100000000010024000400000C5
S3150800CBA01000000000100240008000002000000075
S3150800CBB0001402400100000020000000001402409A
S3150800CBC002000000200000000014024004000000DB
S3150800CBD020000000001402400800000020000000A9
S3150800CBE0001402401000000020000000001402405B
S3150800CBF02000000020000000001402400008000089
S3150800CC002000000000140240001000002000000070
S3150800CC10001402400020000020000000001402401A
S3150800CC2000400000200000000014024000800000C0
S3150800CC30400000000018024001000000400000000B
S3150800CC4000180240020000004000000000180240E0
S3150800CC500400000040000000001802400800000020
S3150800CC6040000000001802401000000040000000CC
S3150800CC700018024020000000400000000018024092
S3150800CC8040000000400000000018024000020000BA
S3150800CC9040000000001802400004000040000000A8
S3150800CCA0001802400008000040000000001802407A
S3150800CCB0002000004000000000180240004000006C
S3150800CCC004000000000802400020000010000000D8
S3150800CCD000100240000200000200020001000900E4
S3150800CCE010000000001002400008000104002000A7
S3150800CCF001000B0010000000001002400020000296
S3150800CD000800000201000D0010000000001002409B
S3150800CD10004000031000002001000E000100000082
S3150800CD200000024020000100020002000100050088
S3150800CD30010000000000024040000200020002005C
S3150800CD400200060002000000000402402000020162
S3150800CD50040020000200050008000000000C024044
S3150800CD60001003000200020002000C000800000088
S3150800CD70000C0240002003010400200002000D0000
S3150800CD8004000000000802404000040002000200FF
S3150800CD9003000600040000000008024080000401A9
S3150800CDA004002000030007001000000000100240E5
S3150800CDB02000050002000200030005001000000024
S3150800CDC00010024040000501040020000300060090
S3150800CDD02000000000140240400006000200020085
S3150800CDE0030006002000000000140240800007002F
S3150800CDF002000200030007002000000000140240A1
S3150800CE0000010800020002000900080020000000D6
S3150800CE10001402400002090002000200090009008D
S3150800CE20000001400100000002011B000000004054
S3150800CE300100000001021C0000040040020000007E
S3150800CE4001021D00000800400400000001021E0047
S3150800CE50000401400200000002012E0000400140CB
S3150800CE600000010002011800004401400000020011
S3150800CE7002011900004801400000040002011A00DE
S3150800CE80001C00408000000001022C000020004029
S3150800CE900001000001022D000010014010000000F2
S3150800CEA002250000020000000004024040000600BF
S3150800CEB0020000000004024080000700070000008E
S3150800CEC0004400400000020001260000080000009F
S3150800CED0000C02402000050008000000000C02407B
S3150800CEE0400006000700000000480040000004005B
S3150800CEF00127000008000000000C0240000108009D
S3150800CF0008000000000C02400002090007000000AB
S3150800CF100014014020000000024700000400000041
S3150800CF200008024040000600040000000008024015
S3150800CF3080000700080000001000000000100240F2
S3150800CF4000020000020002000100090010000000B3
S3150800CF5000100240000800010400200001000B0038
S3150800CF601000000000100240002000020800000225
S3150800CF7001000D00100000000010024000400003F0
S3150800CF801000002001000E00010000000000024011
S3150800CF902000010002000200010005000100000057
S3150800CFA000000240400002000200020002000600E3
S3150800CFB002000000000402402000020104002000D4
S3150800CFC00200050008000000000C024000100300E3
S3150800CFD00200020002000C0008000000000C0240DB
S3150800CFE0002003010400200002000D0004000000D8
S3150800CFF00008024040000400020002000300060088
S3150800D000040000000008024080000401040020001B
S3150800D0100300070010000000001002402000050071
S3150800D0200200020003000500100000000010024084
S3150800D030400005010400200003000600200000004F
S3150800D0400014024040000600020002000300060029
S3150800D05020000000001402408000070002000200C1
S3150800D0600300070020000000001402400001080029
S3150800D0700200020009000800200000000014024017
S3150800D0800002090002000200090009000000014030
S3150800D0900100000002011B00000000400100000022
S3150800D0A001021C00000400400200000001021D00ED
S3150800D0B0000800400400000001021E0000040140B0
S3150800D0C00200000002012E0000400140000001009D
S3150800D0D00201180000440140000002000201190084
S3150800D0E0004801400000040002011A00001C00402C
S3150800D0F08000000001022C00002000400001000012
S3150800D10001022D002E2E2F626C6F636B7365742FD0
S3150800D1107274772F53544D33322F7372632F717590
S3150800D1206575652E630000005050500045764368CB
S3150800D1306E6C3100457643686E6C320045764368FE
S3150800D1406E6C3300070707002CD1000834D100089D
S3150800D1503CD10008040404000064004000000002FA
S3150800D16008000000000C0240010000000800000052
S3150800D170000C0240020001000913141516000000F5
S3150800D180006800400000000402000000000402409D
S3150800D19020000500020000000004024040000600CE
S3150800D1A0093F4041420000002E2E2F626C6F636BD0
S3150800D1B07365742F7274772F53544D33322F7372ED
S3150800D1C0632F53544D33325F453430372F63616EC6
S3150800D1D02E63000043616E4576656E745461736B09
S3150800D1E00000000043616E5472616E736D69745479
S3150800D1F061736B004574685F69660000706F77003D
S3150800D200000000000000304300000000000030C3AA
S315080100000B78FF2B00D070474B78002BFBD107F0FC
S31508010010BBBA00BF08B5012006F0B2FB034A40F29D
S3150801002067610020BDE8084008F064BA01000108CC
S31508010030002000F0EDB900BF704700BF2DE9F84F69
S31508010040DDF82CB00C9D0A9E2F7A044690469946F7
S31508010050DBE900010022002316F07EFF00283DD0CF
S31508010060A7422CBF4FF0000A4FF0010A86F801A0FB
S3150801007000220023DBE9020116F06EFF20B1A74238
S3150801008094BF00270127B770BAF1000F01D1B378E1
S315080100900BB340464946DDE90E2316F019FB8046A7
S315080100A089467CB90F9F0E9A07F100434FF0010765
S315080100B016F052FF68B1FBB233702C72C5E900899C
S315080100C0BDE8F88F012333702C72C5E90089BDE8B4
S315080100D0F88F2746EFE7D5E90089DAE796F801A010
S315080100E0C6E700BF2DE9F84FDDF82CB00C9D0A9E36
S315080100F02F7A044690469946DBE90001002200233F
S3150801010016F02AFF00283DD0A7422CBF4FF0000A5F
S315080101104FF0010A86F801A000220023DBE902015B
S3150801012016F01AFF20B1A74294BF00270127B7701E
S31508010130BAF1000F01D1B3780BB340464946DDE960
S315080101400E2316F0C5FA804689467CB10F9F0E9A92
S3150801015007F1004316F0ECFE4FF0010368B1DBB27C
S3150801016033702C72C5E90089BDE8F88F23463370D0
S315080101702C72C5E90089BDE8F88F0346EFE7D5E992
S315080101800089DAE796F801A0C6E700BF704700BF05
S3150801019091ED007A07EE900AB4EEE77AF1EE10FADD
S315080101A030B43FDA98000C1894ED007AF4EEC77A69
S315080101B0F1EE10FA24D5012B4FEA530037D9002462
S315080101C001EB800595ED007AF4EEC77AF1EE10FAA7
S315080101D054BF044603461D1B1819012D4FEA50004A
S315080101E0EED8A400231D08191944D0ED006A91ED33
S315080101F0007A77EEE67A37EE667AC7EE876A03E023
S315080102000346041FF7EE006A1444134494ED007A7A
S31508010210D3ED007A77EEC77A30BCA6EEA77A17EE49
S31508010220100A7047DFED036A00240423ECE7042370
S315080102300024D8E70000000070B491F90040844218
S3150801024040DACC56844223DD012B4FEA53043ED9CA
S3150801025000250E578642D4BF254623465E1B5C19E8
S31508010260012E4FEA5404F4D86E1CB3001C1F4D5DD1
S31508010270895D401BC0B207EE900A491BC9B2B8EEA8
S31508010280677A07EE901AF8EE676A87EE266A03E040
S315080102909B001C1FB7EE006A1444134494ED007AC0
S315080102A0D3ED007A77EEC77ABDEEC77A67EE867A1E
S315080102B017EE100AFDEEE77A70BC17EE903A034482
S315080102C058B270479FED046A00240423E4E700242A
S315080102D0254604230126CAE7000000002DE9F04F50
S315080102E085B002930F9B0191002B039208DD0E9BAB
S315080102F00F99002203EB810143F8042B8B42FBD1B2
S31508010300019B002B55DDDDF838A0A0F1040E4FF056
S3150801031000090F9B5EF8046FC9EB0308029B984519
S31508010320A8BF9846B8F1000F4FEA1647B6B243DDA3
S31508010330039B54461D4603EB880C002255F8043BE3
S31508010340206880189AB22CBF4FF0010B4FF0000BB2
S3150801035002FB07F11B0C0BEB114B02FB06F203FB2D
S3150801036007BB03FB06F3104409040BEB134B82424C
S3150801037088BF0BF1010B1B040844814294BF5946FF
S315080103800BF101011844834294BF0A464A1CAC4545
S3150801039044F8040BD2D1C8440F9B4345C4BF0E9BF6
S315080103A043F82820019B09F101094B450AF1040A82
S315080103B0AFD105B0BDE8F08FC8460022ECE700BF13
S315080103C02DE9F8430F1E1EDD14464FF000084FF0C5
S315080103D00009061F002556F8040F16F0B7FA22463B
S315080103E015F084F802460B464046494616F072F95E
S315080103F00135AF428046894604F12004EBD14046D7
S315080104004946BDE8F8834FF000084FF00009F6E7C2
S315080104102DE9F04FDFF878A32DED0C8BBAF80230F1
S31508010420C7B0002B03F0118504200EF085FACB4BDB
S31508010430BAF806501870002D00F0ED83C84CDFF8A5
S3150801044054B3B4F898310B93002103201E4606F0E5
S3150801045037FE07EE900AC34B9FEDC36AC04D18805D
S31508010460F8EE677AB6F5FA7F27EE866A03F00B850A
S3150801047095ED588AD4ED597A9FEDBC9A9FEDBC7AD1
S31508010480B4EE486AF1EE10FAC8BFB0EE468A78EEC5
S31508010490277AF6EE006AA7EEA69A29EE079AB5EE2E
S315080104A0C09AF1EE10FA03F10485B24BB24A0D93E4
S315080104B01D4602F11401042319EE100AFFF768FE1E
S315080104C007EE900A79EE277AC5ED007A94ED5BBAC4
S315080104D0DFEDAA7ADFEDA69AB4EECB6AF1EE10FA51
S315080104E0B8BFB0EE46BA7BEE677A67EEA99AF5EE23
S315080104F0C09AF1EE10FA01DBD4ED5C9AA04ADFF856
S315080105006082012302F1080119EE900AFFF740FE05
S3150801051007EE900AB4F89A919A4B79EEA77AB9F14F
S31508010520680FC3ED007A0CBF0126002603F0DE84AE
S31508010530954D4A46652A85F8A560934B0CBF012659
S31508010540002603F02B85914B85F8B16093F800805E
S31508010550B8F1010F0CBF9BF8AB3094F8A8318BF8B2
S315080105602830BAF804301BB99BF828707F00FFB20F
S31508010570692A0CBF0126002603F0DC84B8F1010FB5
S315080105800CBF9BF8AA2094F8A92185F8A4608BF8DA
S315080105902920002B03F03284B4F89A316A2B0CBF58
S315080105A00126002603F0BB84B8F1010F0CBF9BF8A6
S315080105B0A93094F8AA318BF82A30BAF8043085F8AC
S315080105C0A360002B03F00A84B4F89A316B2B0CBF95
S315080105D00126002603F09884B8F1010F0CBF9BF899
S315080105E0A83094F8AB318BF82B30BAF8043085F87B
S315080105F0A260002B03F09B83B4F89A21584F6C2A0A
S315080106000CBF0126002603F0F984B8F1010F0CBFCF
S315080106109BF8A73094F8AC318BF82C30BAF8043033
S3150801062085F8A16023B99BF82C004000C1B2089156
S315080106306D2A0CBF0126002603F0D384B8F1010FF9
S315080106400CBF9BF8A62094F8AD2185F8A0608BF81D
S315080106502D20002B03F04383B4F89A316E2B0CBF7F
S315080106600126002603F0B284B8F1010F0CBF9BF8EE
S31508010670B63094F8AE318BF82E30BAF8043085F8D6
S31508010680B060002B03F01B83B4F89A316F2B0CBFB3
S315080106900126002603F08F84B8F1010F0CBF9BF8E1
S315080106A0B53094F8AF318BF82F30BAF8043085F8A5
S315080106B0AF60002B03F0B082B4F89A21284F702A54
S315080106C00CBF0126002603F0C984B8F1010F0CBF3F
S315080106D09BF8B43094F8B0318BF83030BAF804305E
S315080106E085F8AE6023B99BF830004000C1B20E917F
S315080106F0712A0CBF0126002603F0A384B8F1010F65
S315080107000CBF9BF8B32094F8B12185F8AD608BF83E
S315080107103120002B03F05882B4F89A31722B0CBFA2
S315080107200126002603F08284B8F1010F0CBF9BF85D
S31508010730B23094F8B2318BF83230BAF8043085F811
S31508010740AC60002B03F01C82B4F89A31732B0CBFF2
S315080107500126002603F05F841EE000BF1ACA0020A6
S3150801076050C5002038C500203333533A45CBDCBF8A
S315080107700D650E4140CA002000C0000845CBDC3F8C
S3150801078028C00008DCC700200CC80020D9C70020F3
S3150801079040C5002010C90020B8F1010FBAF804803D
S315080107A00CBF9BF8B13094F8B33185F8AB608BF880
S315080107B03330B8F1000F03F08B81B4F89A21CC4F8E
S315080107C0B2F5987F0CBF0126002603F0BF8440F2DC
S315080107D02D139A4285F8B860C64B0CBF0126002630
S315080107E003F0CE84C44B85F8C46093F80080B8F151
S315080107F0020F0CBF9BF8BD3094F8B4318BF8343036
S31508010800BAF8043023B99BF834004000C1B20F91FD
S3150801081040F231118A420CBF0126002603F0A38457
S31508010820B8F1020F0CBF9BF8BC2094F8B52185F8E6
S31508010830B7608BF83520002B03F02281B4F89A3182
S31508010840B3F5997F0CBF0126002603F07484B8F12D
S31508010850020F0CBF9BF8BB3094F8B6318BF83630D3
S31508010860BAF8043085F8B660002B03F0F980B4F8BD
S315080108709A2140F233139A420CBF0126002603F04F
S31508010880B184B8F1020F0CBF9BF8BA3094F8B731AE
S315080108908BF83730BAF8043085F8B560002B02F0CA
S315080108A0B187B4F89A21924FB2F59A7F0CBF012607
S315080108B0002603F08785B8F1020F0CBF9BF8B93003
S315080108C094F8B8318BF83830BAF8043085F8B46042
S315080108D023B99BF838004000C1B2109140F2351196
S315080108E08A420CBF0126002603F05F85B8F1020F84
S315080108F00CBF9BF8B82094F8B92185F8B3608BF83A
S315080109003920002B02F03F87B4F89A31B3F59B7F63
S315080109100CBF0126002603F07B84B8F1020F0CBF39
S315080109209BF8C83094F8BA318BF83A30BAF80430E3
S3150801093085F8C360002B02F01687B4F89A2140F2B5
S3150801094037139A420CBF0126002603F05684B8F1E4
S31508010950020F0CBF9BF8C73094F8BB318BF83B30BC
S31508010960BAF8043085F8C260002B02F0A986B4F8FB
S315080109709A215F4FB2F59C7F0CBF0126002603F032
S315080109801984B8F1020F0CBF9BF8C63094F8BC3134
S315080109908BF83C30BAF8043085F8C16023B99BF866
S315080109A03C004000C1B2119140F239118A420CBF94
S315080109B00126002603F0F183B8F1020F0CBF9BF85C
S315080109C0C52094F8BD2185F8C0608BF83D20002B21
S315080109D003F01E80B4F89A31B3F59D7F0CBF01264A
S315080109E0002603F0F483B8F1020F0CBF9BF8C4305C
S315080109F094F8BE318BF83E30BAF8043085F8BF60FA
S31508010A00002B02F0F587B4F89A2140F23B139A427B
S31508010A100CBF0126002603F0BD84B8F1020FBAF80F
S31508010A2004800CBF9BF8C33094F8BF3185F8BE60CB
S31508010A308BF83F30B8F1000F02F03787BAF8023069
S31508010A40002B4BD10C9B002B00F090849BF8603057
S31508010A50002B00F08B8400202849B4F8A231244EDB
S31508010A6041F6FE7293429CBF0133A6F8A23194F86F
S31508010A7090311F4A5E0704F1AB83012643F0040354
S31508010A8066F3010382F8903116F086FA1C4BCBF80F
S31508010A90200007EE900A1E709FED1A7AF4EEC77AC7
S31508010AA0F1EE10FA44F31084174B83ED007A174AD6
S31508010AB0174BD2ED008AF1EE047AF4EEE78AF1EEED
S31508010AC010FAC3ED008A04F37A83F7EE007AF4EE9E
S31508010AD0678AF1EE10FA48BFF0EE678A94F8C031DA
S31508010AE00E93032B024F0CBF0126002612E000BF0E
S31508010AF050C500200CC80020D6C800200000304090
S31508010B0018CA00200000004204CA0020180000206C
S31508010B10F8C7002003F06C840E9B6E70012B0CBF86
S31508010B2001260026604A03F0CD84022BEE705E4A48
S31508010B300CBF0126002603F0B9845C4AAE70042B6B
S31508010B40137808930CBF01260026574B03F0A4849B
S31508010B50574B2E701B78FE2B03F08C8494F8C13109
S31508010B600F93089B012B534B03F07B841A46119371
S31508010B70D4F874311360BAF804304F4A002B40F0A8
S31508010B80AF804E4BDBF8606093ED007AF3EE027AA4
S31508010B9036F0FF06B4EEE77A0CBF01230023F1EE27
S31508010BA010FA8BF8643040F3F5830422444B94F829
S31508010BB0E41113440B4493F890301D93184615F02D
S31508010BC0C5FE404BC3E90001002E44F0F5829BF8AF
S31508010BD05E3043B9002200234FF0010716F094F95D
S31508010BE000B13746FEB2BAF802308BF8656036496D
S31508010BF0002B40F04681354B354A1B6810680B615E
S31508010C00344A0C9B1060002B75D12E4B93ED007B5B
S31508010C108DED127B75E0304E304CDFF8ACB094F8B0
S31508010C20DE81D6E900010022002316F095F908B104
S31508010C308BF8E85000220023D6E9020116F08CF958
S31508010C4030B118F1000818BF4FF001088BF8E98098
S31508010C50BBF8E8E0DFF8708094F8DF511EF1000E6A
S31508010C6018BF4FF0010E00220023D6E904018BF8C4
S31508010C705CE016F071F910B1002388F8E63000221D
S31508010C800023D6E9060116F067F920B1003518BF29
S31508010C9001258BF8E750BBF8E630003318BF01236E
S31508010CA08BF85D30FFF7CDBB0CC8002004C90020C6
S31508010CB0C7C70020F0C8002040C500204CC5002049
S31508010CC000C00008D0C7002010C90020200000205D
S31508010CD01C00002014CA0020A8C0000850C5002026
S31508010CE05388002B40F0D080A14AA24B12681A60A3
S31508010CF00C9B002B89D09BF8650015F027FECDE9E2
S31508010D001201BAF80860002E45F0048594F9A43159
S31508010D10A3F10407B7FA87F77F098BF866709BF882
S31508010D205E3010931A46944B1869002A04F0A38280
S31508010D3015F02EFE8CA3D3E9002315F07DFECDE92F
S31508010D40060100228D4BDDE9060116F005F94FF083
S31508010D50010800B980460022884BDDE906015FFAE1
S31508010D6088F816F0F9F800284FD095F8C830012B05
S31508010D704BD0834B186815F00BFECDE914010246DA
S31508010D800B46DDE9060116F0E7F8002844F09E84D3
S31508010D907C4B186815F0FCFD02460B46DDE9060199
S31508010DA0CDE9162316F0CEF8002804F0A783DDE96D
S31508010DB01423DDE9060116F0BBF8002804F09E832A
S31508010DC000220023DDE9120116F0C6F8002805F015
S31508010DD09F83DDE91623DDE9060115F079FC00227A
S31508010DE0694B15F029FE694BCDE91401186815F010
S31508010DF0CFFD02460B46DDE9140115F01DFE002262
S31508010E00634B15F067FCCBE9000185F8C880002221
S31508010E105A4BDDE9060116F081F84FF0010800B9D1
S31508010E2080460022554BDDE906015FFA88F816F07F
S31508010E3075F8B0B195F8C930012B12D0554B186821
S31508010E4015F0A6FDCDE9140102460B46DDE90601BA
S31508010E5016F082F8002804F041864F4B0022CBE9B0
S31508010E600223FDEEE87A85F8C98017EE903A013B30
S31508010E70032B04F21D86DFE813F02423B00E0C239E
S31508010E80E40E464A12680A61BAF80860002E05F0AF
S31508010E904984002B05F03E84414B1B78002B40F01A
S31508010EA002829BF867109BF868209BF8693000312D
S31508010EB018BF0121003218BF012200338BF86A10CE
S31508010EC08BF86B2018BF0123BAF808208BF86C3011
S31508010ED02949002A72D1334B9FED337AD3ED007A33
S31508010EE0324B334E1F780B9B96F84020F0EEE77A8B
S31508010EF067EE877A01339BB2FCEEE77A1846B0F5BE
S31508010F007A7F17EE903A88BF00200D908B84002ACD
S31508010F1044F0228296F84130002B44F031829BF846
S31508010F20DA30154A002B40F04B8292F8DD70003713
S31508010F3018BF01271F4B16931A4696F842301770A9
S31508010F40002B44F0A58596F84330002B44F0908594
S31508010F50DBF8E030184A23F47F0323F47F43003398
S31508010F6018BF0123137034E0AA4C58E87AB6FB3F40
S31508010F701C00002014CA002010C90020000074407B
S31508010F804C0000204800002000002A4024000020D0
S31508010F9000003340440000200000184020000020D3
S31508010FA01ACA002034C5002000C07F44FCC80020AE
S31508010FB0A8C00008E0C80020C5C700200B9B013364
S31508010FC09BB2B3F57A7F0D9384BF00230D93C84B6B
S31508010FD0169300210820B4F89C81C64E06F070F8D5
S31508010FE007EE900AC44B9FEDC56A1880F8EE677A3A
S31508010FF0B8F5FA7F27EE866A03F0068296ED5E7AE1
S31508011000D4ED5F6ADFEDBE8ABE4B0B93B4EEC76AB9
S31508011010F1EE10FAD4BFF0EE477AF0EE467A77EEA3
S31508011020A67AF6EE006AE7EEA68AD8BF83ED007ABD
S315080110309FEDB57AC8BF83ED006A68EE878AF5EE3B
S31508011040C08AF1EE10FA00F13481B04A042302F1A4
S31508011050140118EE900AFFF79BF807EE900AAC4BBD
S3150801106038EEA7CA83ED00CAD4ED61AADFEDA97AE5
S315080110709FEDA5AAB4EEEA6AF1EE10FAB8BFF0EE52
S3150801108046AA7AEEE77A27EE8AAAB5EEC0AAF1EE63
S3150801109010FA01DB94ED62AA9F4A012302F10801C5
S315080110A01AEE100AFFF774F807EE900A9B4BBAF886
S315080110B002207AEE27CAC3ED00CA6AB9984BD3ED66
S315080110C0007AB1EE047AF4EEC77AF1EE10FA44F337
S315080110D0D880944B83ED007A089B022B924B03F040
S315080110E07E8119461093D4F88C310B60BAF8043016
S315080110F003BB8E499BF85F3091ED007AF3EE027AD5
S31508011100B3FA83F3B4EEE77A5B09F1EE10FA8BF8DA
S315080111106D3008DC864B93ED007AB4EEE77AF1EE92
S3150801112010FA44F369810121824B8BF86E101B6812
S31508011130CBF81830002A41F016869BF86E307349B1
S3150801114094F8E5217C4E002B14BF042302230B449B
S31508011150134493F890301C93184615F0F7FB774B18
S31508011160C3E900010C9BCDE9060143B196F8643049
S31508011170002B44F04D819FED5C7B8DED067BBAF823
S315080111800870002F45F0CA8294F9A561A6F10406F4
S31508011190B6FA86F676098BF86F609BF85F300C9382
S315080111A01A46654BD3ED06BA002A04F00C80DFED2A
S315080111B0647A644B6BEEA7BAC3ED00BADFED627AC7
S315080111C0F4EEE7BAF1EE10FACCBF01230023089337
S315080111D034DD95F8C630012B30D05C4BD3ED007A5F
S315080111E0F4EEEB7AF1EE10FA04F13282584B93EDF4
S315080111F000DAB4EEEBDAF1EE10FA04F2A381F4EEBA
S31508011200EB7AF1EE10FAC4F29D8100220023DDE9A2
S31508011210060115F0A1FE002805F0B7813BEECDDAEF
S315080112204C4A4D4BD2ED006AF2EE0A7A6DEE277AF8
S31508011230B3EE037AA7EEA67A83ED007ADFED427A5A
S315080112409DF8203085F8C630F4EEE7BAF1EE10FACB
S315080112504CBF012300230893404B0FD593F8C730A1
S31508011260012B0BD03E4BD3ED007AF4EEEB7AF1EE7F
S3150801127010FA44F1E2843B4B3B4A1A60294B9DF82C
S315080112802020D3ED007A85F8C720FDEEE77A17EE20
S31508011290903A013B032B04F21784DFE813F0F4209C
S315080112A09B00DC20CF0001238BF86A308BF86B306A
S315080112B00AE6D4ED608A154A042318EE900A02F16B
S315080112C01401FEF765FF07EE900A114B38EEA7CA1F
S315080112D0B8F5FA7F83ED00CA7FF4C6AEF2EE08AA26
S315080112E0D8E600BFAFF30080000000000000000050
S315080112F0E0C8002050C50020D8C800203333533A2F
S3150801130045CBDCBF2CC500200D650E4100C0000889
S3150801131028C5002045CBDC3F28C00008F4C80020BA
S31508011320F8C7002000CA002004C800203CCA0020D3
S3150801133020CA00202000002010C9002028CA002049
S31508011340D7B3DD3FF4C700200000A0434C000020BE
S31508011350480000202400002034CA00200CC80020C0
S3150801136044000020E8C800200000C0409BF8613016
S31508011370144A002B7FF46FAB92F86230002B7FF48E
S315080113806AAB92F863300020002B7FF465AB0E49F7
S31508011390FFF763BB0D4B93ED007AB4EEE77AF1EEF6
S315080113A010FA3FF702AC0A4B93ED007AB4EEE77AEE
S315080113B0F1EE10FACCBF022301235A00FFF7F6BB60
S315080113C00127B7E510C90020000040400CCA0020DB
S315080113D0E0C70020C54AC64BD2ED00BAD3ED007A64
S315080113E0F4EEE7BAF1EE10FA04F34880C14B93ED37
S315080113F000DAF4EECDBAF1EE10FAC4F26D81F4EE2C
S31508011400E7BAF1EE10FA04F26781DDE90601002276
S31508011410002315F0A1FD002805F0FB807BEECDBA6F
S31508011420B2EE007AF3EE087AEBEE877A9FEDB27A9E
S31508011430F4EEC77AF1EE10FA44F31880AF4A4FF08A
S3150801144084431360AE4B002E03F0E286D2ED006AA8
S31508011450D3ED007AF4EEE76AF1EE10FA43F3EA8780
S31508011460DFEDA86AA84B87EEA67AC3ED007A8BED65
S31508011470077A002F46D194F8E231A44A022B02D802
S31508011480013382F8E23194F89531A04A13F001014B
S3150801149043F0CD8692F894019D4E9E4F43F0010389
S315080114A082F89531012363F3030082F894019A4A7D
S315080114B033704FF07E501E4639701060974A0623E6
S315080114C002F168013046FEF7B7FE954A071C18BFB8
S315080114D0012702F14C01062330468BF87070FEF79E
S315080114E0ABFE904A071C18BF012702F130013046AE
S315080114F006238BF87170FEF79FFE003018BF012096
S315080115008BF87200884B1B78002B41F025849BF8D9
S3150801151070109BF871209BF87230003118BF0121B9
S31508011520003218BF012200338BF873108BF8742030
S3150801153018BF0123BAF808708BF875307B49002F5C
S3150801154041F0FD83744B9FED7A7AD3ED007A714BA6
S31508011550784E1F7896F84420F0EEE77A67EE877A98
S3150801156008F101039BB2FCEEE77A1846B0F57A7FDB
S3150801157017EE903A88BF00200C90CB84002A44F0DD
S31508011580008296F84530002B44F00F829BF8CA304A
S31508011590664A002B43F05C8692F8CD70003718BF77
S315080115A00127654B18931A4696F846301770002B93
S315080115B044F0248296F84730002B44F00F82DBF87A
S315080115C0D0305E4ABAF8087023F47F0323F47F43C8
S315080115D0003318BF01231370BAF80680B8F1000F5B
S315080115E044D1544E94F8E0310693D6E90801002215
S315080115F0002315F0B1FC08B18BF8D880002200232E
S31508011600D6E90A0115F0A8FC28B1069B003318BFD4
S3150801161001238BF8D930BBF8D8E094F8E1811EF1A3
S31508011620000E18BF4FF0010E00220023D6E90C0167
S315080116308BF876E015F090FC18B13C4A002382F845
S31508011640D63000220023D6E90E0115F085FC30B10B
S3150801165018F1000818BF4FF001088BF8D780BBF8BE
S31508011660D630003318BF01238BF877300E9B013330
S31508011670DBB21A46152ABAF8023028BF002212929E
S3150801168043B9DBED057A9FED2E7A2E4B67EE877A05
S31508011690C3ED007A2FB994F9A6311A9394F9A731B3
S315080116A01B9309F101039BB2B3F5AF6F0E9301F2D8
S315080116B03F83B9F5307F43F0F28595F84430012B25
S315080116C003D0214901200DF003FE012385F844309A
S315080116D000231E4A85F850301678B4F89E21012E4B
S315080116E040F2223308BF9BF88F1031E014CA00205C
S315080116F0340000203800002000000042E4C8002021
S3150801170004CA0020000070423CC5002050C50020D4
S3150801171039CA0020C8C70020C0C7002038C0000841
S3150801172054C0000870C000081ACA002010C9002059
S3150801173000C07F44A8C00008B8C70020C6C700205B
S3150801174000006643F8C800209FC90020D8C70020BA
S3150801175018BF94F8C2118BF840109A420CBF0127A2
S31508011760002702F0E58640F2C123994585F8947071
S31508011770C74B0CBF0127002702F0CF86B4F89E217C
S3150801178085F84370012E40F223330CBF9BF88E1067
S3150801179094F8C3118BF841109A420CBF0127002710
S315080117A002F0B18640F2C223994585F89370B84B89
S315080117B00CBF0127002702F09B86B4F89E3185F8F5
S315080117C04270012E0CBF9BF88D1094F8C4118BF84A
S315080117D04210B3F5497F0CBF0127002702F07E8628
S315080117E040F2C323994585F89270A94B0CBF01278E
S315080117F0002703F0C684B4F89E2185F84170012EAE
S3150801180040F225330CBF9BF88C1094F8C5118BF860
S3150801181043109A420CBF0127002703F0A884B9F5A3
S31508011820317F85F891709A4B0CBF0127002703F089
S315080118309384B4F89E2185F84070012E40F2263330
S315080118400CBF9BF88B1094F8C6118BF844109A427A
S315080118500CBF0127002703F0758440F2C52399457B
S3150801186085F890708A4B0CBF0127002703F05F8427
S31508011870B4F89E2185F83F70012E40F227330CBF3C
S315080118809BF88A1094F8C7118BF845109A420CBF39
S315080118900127002703F0418440F2C623994585F8BC
S315080118A08F707B4B0CBF0127002703F02B84B4F8FC
S315080118B09E3185F84F70012E0CBF9BF89A1094F84B
S315080118C0C8118BF84610B3F54A7F0CBF01270027CC
S315080118D003F00E8440F2C723994585F88E706C4B48
S315080118E00CBF0127002703F0F883B4F89E3185F869
S315080118F04E70012E40F229320CBF9BF8991094F8CC
S31508011900C9118BF847109342DFF88C810CBF012768
S31508011910002703F0D68340F22E32934285F88D7064
S315080119205B4A0CBF0127002703F0BE83B3F5487F46
S3150801193085F88C70564A0CBF0127002703F0A78348
S3150801194040F22132934285F88B70514B0CBF012727
S31508011950002703F09183B9F5327F85F88A704C4BDD
S315080119600CBF0127002703F07C83B4F89E2185F874
S315080119704D70012E40F22A330CBF9BF8981094F84B
S31508011980CA118BF848109A420CBF0127002703F0A9
S315080119905E8340F2C923994585F889703C4B0CBF93
S315080119A00127002703F04883B4F89E2185F84C7077
S315080119B0012E40F22B330CBF9BF8971094F8CB11EC
S315080119C08BF849109A420CBF0127002703F02A8396
S315080119D040F2CA23994585F888702D4B0CBF01271B
S315080119E0002703F01483B4F89E3185F84B70012E55
S315080119F00CBF9BF8961094F8CC118BF84A10B3F5E6
S31508011A004B7F0CBF0127002703F0F78240F2CB2357
S31508011A10994585F887701E4B0CBF0127002703F0EF
S31508011A20E182B4F89E2185F84A70012E40F22D33E1
S31508011A300CBF9BF8951094F8CD118BF84B109A4270
S31508011A400CBF0126002603F0C382B9F5627F85F82B
S31508011A5086600F4A03F0AE8240F28531002389453C
S31508011A6082F8313003F09A820A4A85F83D301678B1
S31508011A70B4F89E21022E40F2EA330CBF9BF87D1082
S31508011A8094F8CE118BF84C109A4208BF012705E04D
S31508011A900CC80020F2C7002050C5002018BF002737
S31508011AA003F0728240F28933994585F88570C54BF2
S31508011AB00CBF0127002703F04382B4F89E2185F85D
S31508011AC03070022E40F2EB330CBF9BF87C1094F871
S31508011AD0CF118BF84D109A420CBF0127002703F04E
S31508011AE0258240F28A33994585F88470B54B0CBF37
S31508011AF00127002703F00F82B4F89E3185F82F706D
S31508011B00022E0CBF9BF87B1094F8D0118BF84E105F
S31508011B10B3F57B7F0CBF0127002703F0F28140F262
S31508011B208B33994585F88370A64B0CBF012700278F
S31508011B3003F0DC81B4F89E2185F82E70022E40F25E
S31508011B40ED330CBF9BF87A1094F8D1118BF84F102E
S31508011B509A420CBF0127002703F0BE81B9F5637FBE
S31508011B6085F88270974B0CBF0127002703F0A981DE
S31508011B70B4F89E2185F82D70022E40F2EE330CBF83
S31508011B809BF8791094F8D2118BF850109A420CBF31
S31508011B900127002703F08B8140F28D33994585F89B
S31508011BA08170884B0CBF0127002703F07581B4F8B3
S31508011BB09E2185F82C70022E40F2EF330CBF9BF85C
S31508011BC0781094F8D3118BF851109A420CBF01275B
S31508011BD0002703F0578140F28E33994585F88070C6
S31508011BE0784B0CBF0127002703F04181B4F89E31D9
S31508011BF085F83C70022E0CBF9BF8881094F8D41116
S31508011C008BF85210B3F57C7F0CBF0127002703F030
S31508011C10248140F28F33994585F87F70694B0CBF53
S31508011C200127002703F00E81B4F89E3185F83B7031
S31508011C30022E40F2F1320CBF9BF8871094F8D511A9
S31508011C408BF853109342DFF880810CBF01270027D8
S31508011C5003F0EC8040F2F632934285F87E70594AD9
S31508011C600CBF0127002703F0D480B3F57A7F85F8E6
S31508011C707D70544A0CBF0127002703F0BD8040F24E
S31508011C80E932934285F87C704E4B0CBF0127002739
S31508011C9003F0A780B9F5647F85F87B70494B0CBFC3
S31508011CA00127002703F09280B4F89E2185F83A703F
S31508011CB0022E40F2F2330CBF9BF8861094F8D61127
S31508011CC08BF854109A420CBF0127002703F0748041
S31508011CD040F29133994585F87A703A4B0CBF012742
S31508011CE0002703F05E80B4F89E2185F83970022E2C
S31508011CF040F2F3330CBF9BF8851094F8D7118BF893
S31508011D0055109A420CBF0127002703F0408040F284
S31508011D109233994585F879702A4B0CBF012700271C
S31508011D2003F02A80B4F89E3185F83870022E0CBF6C
S31508011D309BF8841094F8D8118BF85610B3F57D7F6B
S31508011D400CBF0127002703F00D8040F29333994514
S31508011D5085F878701B4B0CBF0127002702F0F7871F
S31508011D60B4F89E3185F83770022E40F2F5320CBF71
S31508011D709BF8831094F8D9118BF857109342124F98
S31508011D800CBF0126002602F0D687CA2B85F8776094
S31508011D900C4A0CBF0126002602F0BF87CB2B85F81B
S31508011DA07660084A0CBF0126002602F0A887CC2BCC
S31508011DB085F87560034A0CBF0126002602F0918753
S31508011DC004E000BF0CC8002050C50020CD2B85F8C3
S31508011DD07460B94A0CBF0126002602F07487CE2B1F
S31508011DE085F87360B44A0CBF0126002602F05D87A8
S31508011DF0CF2B85F87260B04A0CBF0126002602F087
S31508011E004687D02B85F87160AB4A0CBF01260026A0
S31508011E1002F02F87D12B85F87060A74A0CBF0126DF
S31508011E20002602F01887D22B85F86F60A24A0CBFEC
S31508011E300126002602F00187D32B85F86E609E4A9B
S31508011E400CBF0126002602F0EA86D42B85F86D60C0
S31508011E50994A0CBF0126002602F0D386D52B85F8B0
S31508011E606C60954A0CBF0126002602F0BC86D62B6B
S31508011E7085F86B60904A0CBF0126002602F0A686FB
S31508011E80C82B85F86A608C4A0CBF0126002602F029
S31508011E909086C92B85F86960874A0CBF01260026FA
S31508011EA002F07A86B3F5C97F85F86860824A0CBF65
S31508011EB00126002602F0D48440F29312934285F853
S31508011EC067607D4A0CBF0126002602F0BB84B3F584
S31508011ED0CA7F85F86660784A0CBF0126002602F09B
S31508011EE0A38440F29512934285F86560724A0CBF45
S31508011EF00126002602F08A84B3F5CB7F85F8646053
S31508011F006D4A0CBF0126002602F0728440F2971230
S31508011F10934285F86360684A0CBF0126002602F0E1
S31508011F205984B3F5CC7F85F86260634A0CBF0126F4
S31508011F30002602F0418440F29912934285F86160C5
S31508011F405D4A0CBF0126002602F02884B3F5CF7F2F
S31508011F5085F86060584A0CBF0126002602F0E68320
S31508011F60B3F5C87F85F85F60534A0CBF0126002682
S31508011F7002F0CF8340F29112934285F85E604E4A91
S31508011F800CBF0126002602F0B783B3F5CD7F85F88D
S31508011F905D60494A0CBF0126002602F09F8340F284
S31508011FA09B12934285F85C60434A0CBF01260026C2
S31508011FB002F08683B3F5CE7F85F85B603E4A0CBF97
S31508011FC00126002602F06E8340F29D12934285F89F
S31508011FD05A60394B0CBF0126002602F05783B9F522
S31508011FE0FC7F85F85960344A02F0428340F2F511C4
S31508011FF00023894582F89A3002F02E832F4A85F804
S315080120009E301678B4F89E21012E40F25A230CBF51
S315080120109BF8A11094F8DA118BF858109A420CBF64
S315080120200127002702F00E8340F2F913994585F836
S315080120305870214B0CBF0127002702F0F882B4F82B
S315080120409E2185F89970012E40F25B230CBF9BF8FF
S31508012050A01094F8DB118BF859109A420CBF01278E
S31508012060002702F0DA82B9F5FD7F85F85770124B21
S315080120700CBF0127002702F0C582B4F89E3185F806
S315080120809870012E0CBF9BF89F1094F8DC118BF801
S315080120905A10B3F5177F0CBF0127002702F0A88253
S315080120A040F2FB13994585F85670034B0CBF01277F
S315080120B0002702F0928203E00CC8002008C800201D
S315080120C0B4F89E3185F89770012E40F25D220CBF57
S315080120D09BF89E1094F8DD118BF85B109342C94F5B
S315080120E00CBF0126002602F06C8240F25E22934262
S315080120F085F85560C44A0CBF0126002602F05482B1
S31508012100B3F5167F85F85460BF4A0CBF0126002631
S3150801211002F03D8240F25922934285F85360BA4A49
S315080121200CBF0126002602F0258201339BB2B3F5C6
S31508012130966F88BF0023B9F5967F85F85260149388
S3150801214002F000820022B9F59E7F85F8C520AE4BC4
S3150801215002F0698040F23D11894583F8BD2040F0BF
S31508012160398693F8BC30012B03D0A84901200DF01C
S31508012170AFF80122002385F8BC2085F8BB30A9F504
S315080121809773B3FA83F340F22F125B09914585F8E9
S31508012190BA309D4B43F0FA8293F8B930012B03D03C
S315080121A09B4901200DF094F800230121984685F8F2
S315080121B0B23085F8AA301A461F46069385F8B91033
S315080121C0B9F1760F85F8A9208F4B43F0158393F85B
S315080121D0A830012B03D08F4901200DF079F800238F
S315080121E01E4685F8A8809DF8182085F8A72085F849
S315080121F0A67085F89F303746B046324606969DF852
S31508012200183085F89D30B9F5FB7F3B46CDF820801F
S3150801221096467D4940F06C8691F89C30012B05D095
S315080122207D49069201200DF053F8069A85F89C20FF
S3150801223085F89B8085F89670BAF80430069385F878
S315080122409560002B00F07486B9F52F7F01F0E381C4
S315080122500022B9F5337F85F851206B4B02F08C8447
S3150801226040F2CD21894583F8492043F02B8393F821
S315080122704830012B03D0694901200DF029F80122C4
S31508012280002385F8482085F8473040F2BE23C3EB82
S315080122900903B3FA83F340F2BF225B09914585F836
S315080122A04630594B43F0BB8293F84530012B03D096
S315080122B05B4901200DF00CF8002301221E4685F822
S315080122C03E3085F836301F469846069385F84520F0
S315080122D040F296329DF8183085F8353091454A4BCB
S315080122E043F0DC8293F83430012B03D04D490120A9
S315080122F00CF0EEFF85F8348085F8337085F8326086
S3150801230001200DF001F8B4F8A011474E3E4A3D4FA1
S3150801231001290CBF0123002333700BD192F82B201E
S31508012320012A07D0414B084619700CF0A7FF3378EC
S31508012330B7F8A01185F82B3002290CBF0126002613
S31508012340314B02F00C84032985F82A602E4B0CBF09
S315080123500126002602F0F683042985F829602A4B0E
S315080123600CBF0126002602F0E083052985F82860BE
S31508012370254B0CBF0126002602F0CA83062985F8DB
S315080123802760214B0CBF0126002602F0B5830729D9
S3150801239085F826601C4B0CBF0126002602F09F8398
S315080123A0082985F82560184B0CBF0126002602F07E
S315080123B08983CA2985F82460134B0CBF0126002698
S315080123C002F07383CB2985F823600F4B0CBF0126D6
S315080123D0002602F05D83CC2985F822600A4B0CBFE2
S315080123E00126002602F04783CD2985F82160064B90
S315080123F00CBF0126002602F03183CE2985F820601C
S31508012400014B15E050C500200CC80020D1C9002099
S31508012410CEC90020BEC90020B3C90020A3C9002027
S31508012420A0C9002090C90020ECC80020F1C70020EF
S315080124300CBF0126002602F00583CF29EE77A74BAC
S315080124400CBF0126002602F0F182D029AE77A34BF4
S315080124500CBF0126002602F0DD82C9296E779F4B43
S315080124600CBF0126002602F0C982B1F5C97F2E7775
S315080124709A4B0CBF0126002602F0B48240F2931350
S315080124809942EE76954B0CBF0126002602F09E82F4
S31508012490B1F5CA7FAE76914B0CBF0126002602F034
S315080124A0898240F2951399426E768C4B0CBF0126B0
S315080124B0002602F07382B1F5CB7F2E76874B0CBFCF
S315080124C00126002602F05E8240F297139942EE75C4
S315080124D0824B0CBF0126002602F04882B1F5CC7F5B
S315080124E0AE757E4B0CBF0126002602F0338240F200
S315080124F0911399426E75794B0CBF0126002602F09D
S315080125001D820F292E7508D9A1F1C8030F2B04D9ED
S31508012510A1F5C8730F2B02F24F87714E0123337051
S3150801252040F2592399420CBF0127002702F0FA818C
S3150801253040F25A239942EF74684B0CBF01270027D2
S3150801254002F0E48140F25B239942AF74634B0CBFFE
S315080125500127002702F0CE81B1F5177F6F745F4B13
S315080125600CBF0127002702F0B98140F25D23994289
S315080125702F745A4B0CBF0127002702F0A38140F2A2
S315080125805E239942EF73554B0CBF0127002702F0D2
S315080125908D8140F25F239942AF73504B0CBF0127DF
S315080125A0002702F07781B1F5187F6F734B4B0CBF8B
S315080125B00127002702F0628140F2213399422F73E5
S315080125C0464B0CBF0127002701F0A98540F22233AB
S315080125D09942EF72414B0CBF0127002701F0938501
S315080125E040F223339942AF723C4B0CBF01270027B7
S315080125F001F07D85B1F5497F6F72384B0CBF012714
S31508012600002701F0688540F2253399422F72334B32
S315080126100CBF0127002701F0528540F22633994263
S31508012620EF712E4B0CBF0127002701F03C8540F2C4
S3150801263027339942AF71294B0CBF0127002701F0B7
S315080126402685B1F54A7F6F71244B0CBF01270027F8
S3150801265001F0118501312F718DB2B5F5AF6F4FF0CC
S31508012660000088BF05460CF04FFE1E4B188004F08B
S315080126708DFF1D4B187004F08FFF1C4B18601C480A
S3150801268004F08CFF1B4ABAF8063010609BB99BF818
S315080126905C1001B1012114200CF098F99BF85D102A
S315080126A0002384F8DE3101B1012115200CF08EF9E1
S315080126B0002384F8DF319BF86A1001B10121082053
S315080126C00CF084F99BF86C1001B1012109200CF07A
S315080126D07DF99BF86B1079B101210DE00CC800203A
S315080126E0E8C70020CAC7002019CA002000C8002070
S315080126F0A8C1000800C900200A200CF067F99BF858
S315080127002830BDF834209BF82910A4F8982184F8BC
S31508012710A831BDF838209BF82B30A4F89A2184F803
S31508012720A9119BF82A209BF82C1084F8AB319BF849
S315080127302E3084F8AA2184F8AC119BF82D209BF839
S315080127402F1084F8AE319BF8313084F8AD2184F826
S31508012750AF119BF830209BF8321084F8B1319BF801
S31508012760343084F8B02184ED588A9BF8332084EDFF
S31508012770598A84ED5A9A84ED5BBAC4ED5C9A84F859
S31508012780B21184F8B431119B84F8B3211968C4F8DD
S3150801279074119DF848109BF8352084F8C0119DF8EE
S315080127A03C109BF836E09BF837709BF8380084F8A4
S315080127B0C11184F8B5219BF839109BF83A20BAF86B
S315080127C0043084F8B6E184F8B7719BF83BE09BF8CE
S315080127D03C7084F8B80184F8B9119BF83D009BF860
S315080127E03E1084F8BA219BF83F2084F8BF2184F86B
S315080127F0BBE184F8BC7184F8BD0184F8BE11994A1D
S315080128001BB99DF8743082F8E431BAF808301BB95F
S315080128109DF8683084F8A431169B197801B1012115
S315080128200E200CF0D3F8BBF8241005200BF060FF3E
S31508012830D4F83C31D4F85421C4F83831D4F82031CD
S31508012840D4F84011C4F85021D4F81C21C4F81C311D
S31508012850D4F8F830C4F83C11C4F81821D4F8241176
S31508012860D4F8F420C4F8F4307F4BC4F82011C4F826
S31508012870F020D4F8FC10D4F80021C4F8F81084ED3F
S31508012880558A84ED508A84ED498AC4F8FC2084ED82
S31508012890408A03F114015A6843F8042B8B42FAD192
S315080128A0724B84ED358A03F118015A6843F8042BF3
S315080128B08B42FAD16E4B84ED288A03F11C015A68C2
S315080128C043F8042B8B42FAD184ED198A654C2346C9
S315080128D004F120015A6843F8042B8B42FAD19BF87C
S315080128E0731084ED088A01B101210B200CF06EF8F2
S315080128F09BF8751001B101210C200CF067F89BF8C3
S31508012900741001B101210D200CF060F8109BBDF87F
S3150801291030101A680B9BC4F88C21BAF802201B6880
S31508012920C4F87831C4F87C31A4F89C11C4ED608AE6
S31508012930C4ED61AA84ED62AA4A4B1AB99DF87020C2
S3150801294083F8E521BAF808301BB99DF86C3084F88C
S31508012950A531189B197801B1012110200CF036F820
S31508012960BBF8261004200BF0C3FE0B9BD4F85C21A0
S315080129701968D4F84C31D4F84801C4F84831D4F868
S315080129803031C4F85821C4F84401D4F83421D4F8B4
S315080129902C01C4F82C31D4F81031C4F83021C4F80C
S315080129A02801D4F81421D4F80C01C4F80C31314BA0
S315080129B0C4F81021D4F80821C4F85C11C4F8080138
S315080129C0C4F84C11C4F83411C4F81411C4F804211C
S315080129D003F114005A6843F8042B8342FAD1264BB3
S315080129E0C4F8EC1003F118005A6843F8042B834223
S315080129F0FAD1224BC4F8BC1003F11C005A6843F8FB
S31508012A00042B9842FAD11E4BC4F8841003F1200016
S31508012A105A6843F8042B9842FAD1BAF80630616429
S31508012A209BB99BF8761001B101211B200BF0CEFF53
S31508012A309BF87710002384F8E03101B101211720B2
S31508012A400BF0C4FF002384F8E131BAF80830EBB97A
S31508012A500C4A0D4B12781B7884F8A62184F8A73105
S31508012A6014E000BF50C5002010C60020D8C50020BC
S31508012A7098C5002028C60020F4C50020B8C5002046
S31508012A8074C50020FCC7002039CA00209BF84030D5
S31508012A90BDF850209BF84110A4F89E2184F8C23154
S31508012AA09BF842209BF8433084F8C31184F8C4216B
S31508012AB09BF844109BF8452084F8C5319BF84630AD
S31508012AC084F8C61184F8C7219BF847109BF848205B
S31508012AD084F8C8319BF8493084F8C91184F8CA21A9
S31508012AE09BF84A109BF84B2084F8CB319BF84C3065
S31508012AF084F8CC1184F8CD219BF84D109BF84E2013
S31508012B0084F8CE319BF84F3084F8CF1184F8D02160
S31508012B109BF850009BF8512084F8D1319BF852302C
S31508012B203178A4F8A05184F8D2019BF853509BF848
S31508012B30540084F8D32184F8D4319BF855209BF8A6
S31508012B40563084F8D5519BF8576084F8D6019BF81E
S31508012B50585084F8D7219BF8590084F8D8319BF846
S31508012B605A209BF85B3084F8D96184F8DA5184F8E5
S31508012B70DB0184F8DC2184F8DD3101B1012118205B
S31508012B800BF024FFBAF802307E4A01339BB2092BB7
S31508012B9088BF00235380BAF804307A4A01339BB2BE
S31508012BA0632B88BF00239380BAF80630754A013330
S31508012BB09BB2B3F5C87F28BF0023D380BAF8083083
S31508012BC0704A01339BB2B3F5FA6F28BF002313810C
S31508012BD047B0BDEC0C8BBDE8F08F6B4A6B4BD2ED61
S31508012BE0008AD3ED007AF4EEE78AF1EE10FA02F3E1
S31508012BF06384674B93ED00AAF4EECA8AF1EE10FAE4
S31508012C00C2F28C85F4EEE78AF1EE10FA02F28685B5
S31508012C10DDE912010022002314F09EF9002803F0D1
S31508012C20028578EECA8AB2EE007AF3EE087AE8EE01
S31508012C30877A9FED587AF4EEC77AF1EE10FA42F3E5
S31508012C403384554B4FF084421A60002F02F0A48258
S31508012C50524AD3ED006AD2ED007AF4EEE76AF1EE54
S31508012C6010FA42F3B883DFED4E6A4E4B87EEA67A29
S31508012C70C3ED007A8BED057A002E7EF40DA994F842
S31508012C80E331494A022B02D8013382F8E33194F839
S31508012C909531454A03F0020000F0FF01002842F091
S31508012CA0DA8292F89401414E414F43F0020382F8C9
S31508012CB09531012363F3071082F894013D4A337075
S31508012CC04FF07E501E46397010603B4A3B4F02F169
S31508012CD0680106233046FDF7AFFA394A804602F104
S31508012CE04C010623304687F80080FDF7A5FA354AD8
S31508012CF0DFF8DCE0074602F13001062330468EF89C
S31508012D000070FDF799FA18F1000818BF4FF001088D
S31508012D10003718BF01272C4A8BF86780031C18BF98
S31508012D2001238BF8687010708BF86930FEF7B4B818
S31508012D300022134685F844200E92FEF7CABC08F114
S31508012D4001039BB2B3F57A7F0C9384BF00230C93DE
S31508012D501E4B1893FEF740BC01238BF873308BF892
S31508012D607430FEF7E7BBBAF80830002B7EF4CAAB1D
S31508012D7094F9A531191F4B424B418BF86F30FEF779
S31508012D807ABB00BF40C5002014CA002034000020C9
S31508012D9038000020000000420CC9002004CA0020A7
S31508012DA00000704210CA002050C50020FCC7002050
S31508012DB0FCC8002034C5002038C0000844CA0020D9
S31508012DC054C0000870C00008F0C70020B8C700202A
S31508012DD038CA0020B9F59F7F83F8BC2041F03182BB
S31508012DE093F8BB30012B03D0D34901200CF070FABC
S31508012DF040F22F13C3EB0903B3FA83F35B090022ED
S31508012E0085F8B930A9F1660385F8BA20A9F17406DF
S31508012E10A9F17502A9F17608B3FA83F3A9F167074F
S31508012E200121B6FA86F6B2FA82F2B8FA88F85B098F
S31508012E30B7FA87F785F8BB10760952094FEA581889
S31508012E4006937F090023B9F1740F85F8B230BB4B9D
S31508012E5041F0188293F8AA30012B05D0B849089297
S31508012E6001200CF035FA089A9DF8183085F8AA6001
S31508012E7085F8A92085F8A88085F8A73040F2F718C3
S31508012E80C8EB090040F2FD16D0F10008C6EB090EA1
S31508012E9048EB0008A9F5FF7CDEF1000646EB0E06B5
S31508012EA0DCF1000242EB0C02A9F5FB71A9F5FE70F3
S31508012EB006924A4285F8A6704A4147424741B9F502
S31508012EC0FA7F9E4B41F0188293F89F30012B05D06B
S31508012ED09C49089201200CF0FBF9089ACDF820804C
S31508012EE001213B46069F85F89F10964685F89D70F9
S31508012EF040F2F710814585F89CE0904942F030840C
S31508012F0091F89B10012905D08F49069301200CF0F1
S31508012F10DFF9069B85F89630BAF804309DF820202B
S31508012F2085F89B20069385F89560002B7FF48CA97C
S31508012F309BF859309BF85800DB0903EB4000C0B2F7
S31508012F4013F004FD7AA3D3E9002313F0C1FB02466B
S31508012F500B4600204FF0804112F072FB9BF8593066
S31508012F60CDE9220146A903F07F0341F8843D4FF0DC
S31508012F7002082AAE01230A46744808918DE84001E1
S31508012F801946FDF7ABF92CAF01239BF85A00089AAD
S31508012F90009719462590CDF804806C48FDF79EF9EF
S31508012FA0069A30464146FDF70BFA069ACDE91E0107
S31508012FB038464146FDF704FA0022CDE920014FF0D3
S31508012FC07C53DDE91E0113F037FD002206460F4644
S31508012FD04FF07A53DDE9200113F02EFD02460B4628
S31508012FE03046394613F076FB06469BF85B000F46DA
S31508012FF013F0ACFC02460B463046394613F06AFB21
S315080130004FF04042524B534E13F064FB4FF00052BF
S315080130104FF07A5313F010FDDDE9222313F00CFD6E
S3150801302013F0BAFF9BF841309BF840203060D8096D
S3150801303000EB4200C0B213F089FC3DA3D3E900239B
S3150801304013F046FB02460B4600204FF0804112F072
S31508013050F7FA9BF84170089ACDF804802EAE012341
S31508013060CDE9220107F07F071946009637482597CB
S31508013070FDF734F930AF01239BF84200089A00970F
S3150801308019462590CDF804803048FDF727F9069AA8
S3150801309030464146FDF794F9069ACDE91E013846B0
S315080130A04146FDF78DF90022CDE920014FF07C5309
S315080130B0DDE91E0113F0C0FC002206460F464FF05B
S315080130C07A53DDE9200113F0B7FC02460B46304678
S315080130D0394613F0FFFA06469BF843000F4613F0EC
S315080130E035FC02460B463046394613F0F3FA4FF0E3
S315080130F04042174B184E13F0EDFA4FF000524FF0BD
S315080131007A5313F099FCDDE9222313F095FC13F0A9
S3150801311043FF9BF845309BF844203060D80900EB03
S315080131204200C0B213F012FC18E000BFAFF30080F2
S315080131300000000000C05F40D0C900200CC8002074
S31508013140C0C90020B5C90020B2C900208CC000083A
S31508013150FFFF5F4108CA00201CCA0020D4A3D3E997
S31508013160002313F0B5FA02460B4600204FF08041C2
S3150801317012F066FA9BF84570089ACDF8048032AECB
S315080131800123CDE9220107F07F0719460096CA48AF
S315080131902597FDF7A3F834AF01239BF84600089A53
S315080131A0009719462590CDF80480C348FDF796F88F
S315080131B0069A30464146FDF703F9069ACDE91E01FE
S315080131C038464146FDF7FCF80022CDE920014FF0CB
S315080131D07C53DDE91E0113F02FFC002206460F463B
S315080131E04FF07A53DDE9200113F026FC02460B461F
S315080131F03046394613F06EFA06469BF847000F46E5
S3150801320013F0A4FB02460B463046394613F062FA20
S315080132104FF04042A94BAA4E13F05CFA4FF0005208
S315080132204FF07A5313F008FCDDE9222313F004FC6E
S3150801323013F0B2FE9BF849309BF848203060D80954
S3150801324000EB4200C0B213F081FB99A3D3E9002336
S3150801325013F03EFA02460B4600204FF0804112F069
S31508013260EFF99BF84970089ACDF8048036AE012328
S31508013270CDE9220107F07F07194600968E48259762
S31508013280FDF72CF838AF01239BF84A00089A0097F6
S3150801329019462590CDF804808748FDF71FF8069A48
S315080132A030464146FDF78CF8069ACDE91E013846A7
S315080132B04146FDF785F80022CDE920014FF07C5300
S315080132C0DDE91E0113F0B8FB002206460F464FF052
S315080132D07A53DDE9200113F0AFFB02460B4630466F
S315080132E0394613F0F7F906469BF84B000F4613F0DB
S315080132F02DFB02460B463046394613F0EBF94FF0E3
S3150801330040426E4B13F0E6F94FF000524FF07A53F4
S3150801331013F092FBDDE9222313F08EFB13F03CFE3A
S315080133209BF84D3067499BF84C200860D80900EB9B
S315080133304200C0B213F00AFB5DA3D3E9002313F0E0
S31508013340C7F902460B4600204FF0804112F078F982
S315080133509BF84D70089ACDF804803AAE0123CDE961
S31508013360220107F07F071946009653482597FCF76F
S31508013370B5FF3CAF01239BF84E00089A0097194602
S315080133802590CDF804804C48FCF7A8FF069A3046EC
S315080133904146FDF715F8069ACDE91E01384641461C
S315080133A0FDF70EF80022CDE920014FF07C53DDE947
S315080133B01E0113F041FB002206460F464FF07A53D1
S315080133C0DDE9200113F038FB02460B463046394643
S315080133D013F080F906469BF84F000F4613F0B6FA2C
S315080133E002460B463046394613F074F94FF040420F
S315080133F0324B13F06FF94FF000524FF07A5313F036
S315080134001BFBDDE9222313F017FB13F0C5FD9BF81F
S3150801341051302D499BF850200860D80900EB42002D
S31508013420C0B213F093FA22A3D3E9002313F050F99B
S3150801343002460B4600204FF0804112F001F99BF835
S315080134405170089ACDF804803EAE0123CDE92201D8
S3150801345007F07F071946009617482597FCF73EFFA0
S3150801346040AF01239BF85200089A00971946259008
S31508013470CDF804801048FCF731FF069A30464146DC
S31508013480FCF79EFF069ACDE91E0138464146FCF730
S3150801349097FF0022CDE920014FF07C53DDE91E019B
S315080134A013F0CAFA002206460F464FF07A530DE08A
S315080134B00000000000C05F408CC00008FFFF5F41AC
S315080134C0DCC80020E4C7002008C90020DDE9200186
S315080134D013F0B2FA02460B463046394613F0FAF8AB
S315080134E006469BF853000F4613F030FA02460B4680
S315080134F03046394613F0EEF84FF04042B84B13F018
S31508013500E9F84FF000524FF07A5313F095FADDE9D6
S31508013510222313F091FA13F03FFD9BF85530B14978
S315080135209BF854200860D80900EB4200C0B213F09A
S315080135300DFAA9A3D3E9002313F0CAF802460B46EC
S3150801354000204FF0804112F07BF89BF85570089ADD
S31508013550CDF8048042AE0123CDE91E0107F07F07AD
S3150801356019460096A0482597FCF7B8FE012344A9F9
S315080135709BF85670089A00919B48CDF80480194625
S315080135802597FCF7ABFE069A30464146FCF718FF2D
S3150801359044AB06460F46069A18464146FCF710FF05
S315080135A00022CDE906014FF07C533046394613F027
S315080135B043FA002206460F464FF07A53DDE9060123
S315080135C013F03AFA02460B463046394613F082F8AA
S315080135D006469BF857000F4613F0B8F902460B4604
S315080135E03046394613F076F84FF040427C4B13F0DB
S315080135F071F84FF000524FF07A5313F01DFADDE9D6
S315080136001E2313F019FA13F0C7FC784BB9F52F7F6F
S3150801361018607EF41DAE95F85130012B03D074491C
S3150801362001200BF055FE40F2CD23C3EB0903B3FA93
S3150801363083F35B09012285F84830002385F8512078
S3150801364085F8493040F2CE23C3EB0903B3FA83F375
S3150801365040F2BE225B09914585F84730654B7EF4F9
S3150801366014AE93F84630012B03D0634901200BF0C1
S315080136702FFE002301211E4685F8453085F83E3088
S315080136801F46984606931A4685F8461040F2953124
S31508013690894585F83620574B7EF41AAE93F83530AE
S315080136A0012B03D0554901200BF012FE9DF8183065
S315080136B085F8353085F8348085F83370FEF71EBEF7
S315080136C01A46022128A80893FCF77AFE089B0646A3
S315080136D00F461A46022126A8FCF772FE0022CDE9FA
S315080136E008014FF07C533046394613F0A5F90022FC
S315080136F006460F464FF07A53DDE9080113F09CF9A7
S3150801370002460B463046394612F0E4FF06469BF858
S315080137103B000F4613F01AF902460B463046394666
S3150801372012F0D8FF4FF040422D4B12F0D3FF4FF065
S3150801373000524FF07A5313F07FF9DDE9062313F0AF
S315080137407BF913F029FC07EE900AB1EE087A2C4BA7
S31508013750F4EEC77AF1EE10FA1860CCBF0123002304
S315080137602093FDF704B946AA9BF83A3042F8843DFE
S3150801377026A902200123019000911B481946FCF74E
S31508013780ADFDFDF7DAB8109B9BF8390003EBD010B5
S31508013790C0B213F0DBF810A3D3E9002312F098FFA7
S315080137A002460B4600204FF0804111F049FF9BF875
S315080137B0393046AA03F07F03CDE9060142F8843D74
S315080137C028A9022601238DE8420007481946FCF775
S315080137D085FDFDF799B800BF0000000000C05F40F5
S315080137E0FFFF5F41ECC700208CC0000830C50020F0
S315080137F0ABC900200CC80020A1C9002091C900202E
S3150801380020CA00201A46022128A80893FCF7D8FDE9
S31508013810089B06460F461A46022126A8FCF7D0FD44
S315080138200022CDE908014FF07C533046394613F0A2
S3150801383003F9002206460F464FF07A53DDE90801DF
S3150801384013F0FAF802460B463046394612F042FFA3
S3150801385006469BF837000F4613F078F802460B46E2
S315080138603046394612F036FF4FF04042CE4B12F041
S3150801387031FF4FF000524FF07A5313F0DDF8DDE9CE
S31508013880062313F0D9F813F087FB07EE900AB1EE79
S31508013890087AC64BF4EEC77AF1EE10FA1860CCBF77
S315080138A0012300231693FCF7FCBF4246022128A8F0
S315080138B0FCF786FD424606460F4626A80221FCF776
S315080138C07FFD0022CDE908014FF07C533046394689
S315080138D013F0B2F8002206460F464FF07A53DDE997
S315080138E0080113F0A9F802460B463046394612F08C
S315080138F0F1FE06469BF83F000F4613F027F80246ED
S315080139000B463046394612F0E5FE4FF04042A64BCB
S3150801391012F0E0FE4FF000524FF07A5313F08CF894
S31508013920DDE9062313F088F813F036FBA04B18607F
S31508013930169B07EE900A002B01F03885209B002B79
S3150801394002F03682B1EE087AF4EEC77AF1EE10FA91
S31508013950CCBF01230023974A8BF85F30BBF85E3052
S31508013960D2ED006AB1EE087A0033F4EEC76A18BFE1
S315080139700123F1EE10FA8BF8603042F32C808B4B61
S31508013980D3ED006AF4EEC76AF1EE10FACCBF012254
S315080139900022894B8BF86120D3ED006AB1EE087AD3
S315080139A0F4EEC76AF1EE10FA42F31280834BD3EDB7
S315080139B0006AF4EEC76AF1EE10FACCBF01220022C2
S315080139C07F4B8BF86220D3ED006AB1EE087AF4EEEC
S315080139D0C76AF1EE10FA41F3F887F4EEC77AF1EE09
S315080139E010FACCBF012300238BF86330FDF726B804
S315080139F046AA9BF83E3042F8843D26A902200123B7
S31508013A00019000916F481946FCF768FCFCF7FBBF6B
S31508013A10119B9BF83D0003EBD010C0B212F096FF44
S31508013A205FA3D3E9002312F053FE02460B4600209A
S31508013A304FF0804111F004FE9BF83D3046AA03F091
S31508013A407F03CDE9060142F8843D28A90226012310
S31508013A508DE842005B481946FCF740FCFCF7BABF03
S31508013A6046AA9BF8363042F8843D26A9022001234E
S31508013A700190009153481946FCF730FCFCF7F7BE54
S31508013A800F9B9BF8350003EBD010C0B212F05EFF16
S31508013A9043A3D3E9002312F01BFE02460B4600207E
S31508013AA04FF0804111F0CCFD9BF8353046AA03F062
S31508013AB07F03CDE9060142F8843D28A902260123A0
S31508013AC08DE842003F481946FCF708FCFCF7B6BEEC
S31508013AD04246022128A8FCF773FC424606460F46D1
S31508013AE026A80221FCF76CFC0022CDE908014FF05B
S31508013AF07C533046394612F09FFF002206460F4690
S31508013B004FF07A53DDE9080112F096FF02460B469B
S31508013B103046394612F0DEFD06469BF833000F465D
S31508013B2012F014FF02460B463046394612F0D2FD12
S31508013B304FF040421C4B12F0CDFD4FF000524FF0B2
S31508013B407A5312F079FFDDE9062312F075FF13F0B7
S31508013B5023FA1B4B1860149B07EE900A002B01F001
S31508013B60C8831E9B002B02F02081B1EE087AF4EE81
S31508013B70C77AF1EE10FACCBF0123002301F0BABBD4
S31508013B8046AA9BF8323042F8843D26A90220012331
S31508013B90019000910B481946FCF7A0FBFCF7D4BD30
S31508013BA00000000000C05F40FFFF5F413CCA0020E3
S31508013BB0BCC700204CC500200CCA002020CA002022
S31508013BC0E0C700208CC000080E9B9BF8310003EB70
S31508013BD0D010C0B212F0BAFEDDA3D3E9002312F069
S31508013BE077FD02460B4600204FF0804111F028FD73
S31508013BF09BF8313046AA03F07F03CDE9060142F866
S31508013C00843D28A9022601238DE84200D248194697
S31508013C10FCF764FBFCF780BD1A46022128A8089325
S31508013C20FCF7CEFB089B06460F461A46022126A834
S31508013C30FCF7C6FB0022CDE908014FF07C5330465C
S31508013C40394612F0F9FE002206460F464FF07A531E
S31508013C50DDE9080112F0F0FE02460B463046394608
S31508013C6012F038FD06469BF82F000F4612F06EFE3D
S31508013C7002460B463046394612F02CFD4FF04042BB
S31508013C80B64B12F027FD4FF000524FF07A5312F05F
S31508013C90D3FEDDE9062312F0CFFE13F07DF907EE18
S31508013CA0900AB1EE087AAE4BF4EEC77AF1EE10FA45
S31508013CB01860CCBF012300231E93FCF7FDBC46AA5E
S31508013CC09BF82E3042F8843D26A902200123019053
S31508013CD00091A1481946FCF701FBFCF7D5BC089BE6
S31508013CE09BF82D0003EBD010C0B212F02FFE98A35B
S31508013CF0D3E9002312F0ECFC02460B4600204FF0F4
S31508013D00804111F09DFC9BF82D3046AA03F07F03F4
S31508013D10CDE9060142F8843D28A9022601238DE84A
S31508013D2042008D481946FCF7D9FAFCF795BC1A46A4
S31508013D30022128A80693FCF743FB069B06460F4675
S31508013D401A46022126A8FCF73BFB0022CDE906010B
S31508013D504FF07C533046394612F06EFE0022064675
S31508013D600F464FF07A53DDE9060112F065FE024669
S31508013D700B463046394612F0ADFC06469BF82B0039
S31508013D800F4612F0E3FD02460B463046394612F05D
S31508013D90A1FC4FF04042714B12F09CFC4FF00052CF
S31508013DA04FF07A5312F048FE0B460246DDE9180138
S31508013DB0CDE9062312F040FE13F0EEF807EE900A5D
S31508013DC0B1EE087A674BF4EEC77AF1EE10FA18608D
S31508013DD0CCBF012300231493FCF70EBC46AA9BF81B
S31508013DE02A3042F8843D26A9022001230190009138
S31508013DF059481946FCF772FAFCF7E6BB9BF8290005
S31508013E0007EBD010C0B212F0A1FD51A3D3E90023EC
S31508013E1012F05EFC02460B4600204FF0804111F07D
S31508013E200FFC9BF8293046AA03F07F03CDE9180158
S31508013E3042F8843D28A9022601238DE84200464816
S31508013E401946FCF74BFAFCF7A7BB02200AF074FDEA
S31508013E50044603200AF070FD434B1B78002B41F002
S31508013E604082021C414B18BF01221A70002C01F036
S31508013E70A2873F4A01231370002842F02B840023AE
S31508013E800C93FCF7D1BA9FED3B8AD5ED597A9FED94
S31508013E903A9A9FED3A7A77EE887AF6EE006AA7EEB5
S31508013EA0A69A29EE079AB4EEC89AF1EE10FA42F1EB
S31508013EB01A83334B94ED5A9A324A0D931D4619EEDD
S31508013EC0100A042302F11401FCF762F907EE900ABD
S31508013ED00B9B79EE277AB3F5FA7FC5ED007A08BF11
S31508013EE0B2EE08BA3CF408ABFCF7F0BA264D95F8E1
S31508013EF0A530012B01F05D82244901200BF0E8F978
S31508013F00B8F89A21FCF716BB95F8A230012B3CF4B8
S31508013F1063AB1F4901200BF0DBF9FCF75DBB95F894
S31508013F20A330012B3CF440AB1A4901200BF0D0F920
S31508013F30FCF73ABB95F8A420012A3CF41FAB1649B5
S31508013F4001200BF0C5F9BAF80430FCF717BB00BF1E
S31508013F500000000000C05F408CC00008FFFF5F4101
S31508013F600CCA00204CC500201000002030CA0020D1
S31508013F70DAC800200000000045CBDCBF0D650E4104
S31508013F8040CA002000C000080CC80020BBC9002098
S31508013F90B8C90020B9C90020BAC9002093F8B130C0
S31508013FA0012B3CF4D0AAE34901200BF091F9B4F8AE
S31508013FB09A21FCF7C8BA95F8AF30012B3CF46CABE3
S31508013FC0DD4901200BF084F9FCF766BB95F8B030A2
S31508013FD0012B3CF449ABD94901200BF079F9FCF7DF
S31508013FE043BB95F8A020012A3CF428ABD44901200B
S31508013FF00BF06EF9BAF80430FCF720BB95F8A1303E
S31508014000012B3CF402ABCF4901200BF061F9B7F85B
S315080140109A21FCF7FABA95F8AB30012B3CF4BCAB04
S31508014020C94901200BF054F9FCF7B6BB95F8AC3039
S31508014030012B3CF479ABC54901200BF049F9FCF792
S3150801404073BB95F8AD20012A3CF458ABC049012051
S315080140500BF03EF9BAF80430FCF750BB95F8AE30D0
S31508014060012B3CF432ABBB4901200BF031F9B7F80F
S315080140709A21FCF72ABB1B79012B3EF4EBAA3B21BB
S3150801408001200BF0FBF8B4F8A011FEF7E3BA5B794F
S31508014090012B3EF4D6AA702101200BF0EFF8B4F8F3
S315080140A0A011FEF7CEBA9B79012B3EF4C0AA0621D0
S315080140B001200BF0E3F8B4F8A011FEF7B8BADB79E2
S315080140C0012B3EF4AAAA002101200BF0D7F8B4F877
S315080140D0A011FEF7A2BA1B7A012B3EF494AA00217D
S315080140E001200BF0CBF8B4F8A011FEF78CBA5B7A75
S315080140F0012B3EF47FAA002101200BF0BFF8B4F88A
S31508014100A011FEF777BA9B7A012B3EF469AA04211E
S3150801411001200BF0B3F8B4F8A011FEF761BADB7A07
S31508014120012B3EF453AA022101200BF0A7F8B4F89B
S31508014130A011FEF74BBA95F8B630012B3CF487ABC4
S31508014140854901200BF0C4F8FCF781BB95F8B83016
S31508014150012B3CF43CAB814901200BF0B9F8B7F8C7
